:100000000C946B000C94951E0C94C21E0C949300DF
:100010000C9493000C9493000C9493000C94930014
:100020000C9493000C9493000C9493000C94930004
:100030000C9493000C94C5110C9493000C949300B1
:100040000C94EF1E0C9493000C940D110C9452110F
:100050000C9493000C9493000C9493000C949300D4
:100060000C94E70B0C949300410B5A0B5D0B620B45
:10007000670B6C0B710B7D0B880B000000002400DC
:1000800027002A0000000000250028002B000000A7
:1000900000002300260029000404040404040404CE
:1000A0000202020202020303030303030102040823
:1000B00010204080010204081020010204081020D2
:1000C0000000000700020100000304060000000019
:1000D00000000000D51B11241FBECFEFD8E0DEBF0B
:1000E000CDBF12E0A0E0B1E0EEE5F8E402C005907B
:1000F0000D92A23EB107D9F714E0A2EEB2E001C022
:100100001D92AE38B107E1F710E0C6EDD0E004C0B3
:100110002297FE010E94D722C43DD107C9F70E9451
:100120001F220C942D240C9400008091E202813057
:1001300019F482E08093E2028091E202833019F4A4
:1001400084E08093E2020895A89508958EE060E02F
:100150000E9402208FE061E00E94022080E161E0C5
:100160000E94022082E060E00E94022084E061E0C0
:100170000E940220089580E065E970E042E050E0CE
:100180000E94751E0895E3E0F0E089E08093570037
:10019000E491E67081E0E63009F080E008950F9385
:1001A0001F93182F0E94C300882389F00FB781E0A6
:1001B00080935304F8940E94A40088E18093600027
:1001C00010936000112311F00E94A4000FBF1F9133
:1001D0000F910895382F20E0809154049091550498
:1001E0008227932760E041E250E19C01220F331FF8
:1001F00097FF04C0C9018427952701C0C9016F5F1B
:10020000683099F7909355048093540408950F93A0
:100210001F93082F17C0439A64E670E080E090E0D7
:100220000E946B1F439864E670E080E090E00E94BB
:100230006B1F1F5F101778F36CE271E080E090E0B5
:100240000E946B1F10E0F6CF0F931F93CF93DF93A5
:10025000EC01062F15E0115051F0CE010E94172439
:10026000081741F0CE01602F0E941F24F4CF82E0D6
:100270000E940701DF91CF911F910F910895A0E097
:10028000B0E0E5E4F1E00C949E22682E762ECC24BA
:10029000DD24C0E0D0E0AA24BB2400E010E004C0CC
:1002A000CC24DD2477247394662031F0862D8130B0
:1002B00059F08230C1F410C0C0E0D0E0ABE1AA2E0A
:1002C000B12C03EE12E00FC0CDE1D0E0FAE2AF2E88
:1002D000B12C0EEF12E007C0C9E4D0E0E0E2AE2E90
:1002E000B12C0DE913E02E014C0C5D1C109255044D
:1002F00010925404E20117C07801E80CF91C772031
:1003000031F4CE010E941724F701808305C0CE018D
:10031000F70160810E942401F801E80DF91D808138
:100320000E94EA002196CE018419882E99248A140D
:100330009B0410F3CE017E010894E11CF11C772090
:10034000A1F4CE010E941724882EC7010E94172411
:10035000382C222490E08229932920915404309152
:1003600055042817390759F49BCFE70160915504CC
:100370000E942401C701609154040E942401E0E01E
:10038000F1E0CE0EDF1EF1E0CF16F3E0DF0608F459
:100390008BCF872DCDB7DEB7E2E10C94BA2281E096
:1003A00060E00E943F01882339F081E09091FE02D5
:1003B000963319F080E0089580E0089581E061E0CF
:1003C0000E943F010895BC018436910518F480E035
:1003D00090E022C08E3B910548F46A55704080E061
:1003E00090E02AE030E040E050E014C0823D91050A
:1003F00048F4645B704080E090E024E630E040E048
:1004000050E008C06D5C704080E090E028E532E08C
:1004100040E050E00E942E2224E630E040E050E030
:100420000E942E22089590E08C599F4F0E94E30174
:10043000089582E061E00E943F01089582E060E05B
:100440000E943F01882331F48FEF9FEF90939E032A
:1004500080939D03089591E09093E30221E220931D
:10046000E4021092E5029093E60292E09093E70294
:1004700023E02093E80224E02093E90225E0209382
:10048000EA0226E02093EB0227E02093EC0226E22A
:100490002093ED022093EE0224E22093EF0225E266
:1004A0002093F0029093F1029FEF9093F2029AE072
:1004B0009093FB021092FC021092FD021092F30244
:1004C0001092F4021092F5021092F6022EE120939F
:1004D000F7029093F80228EB3BE03093FA02209366
:1004E000F902882361F080E061E00E943F018FEF14
:1004F0009FEF90939E0380939D030E94190208959D
:1005000080E060E00E943F01882319F481E00E94AE
:100510002B020895DC019896EC919897F0E0E77033
:10052000F070EF53FD4F808108951F93CF93DF93B9
:10053000EC0170E0CB018270907060FF1AC00097F0
:1005400031F08091BF0388831092520444C010910F
:1005500052048EEF92E00E948A021817D0F5E12F24
:10056000F0E0E550FC4F808188831F5F10935204B8
:1005700032C00097C1F088818093510410925204D8
:10058000982F907E903651F48091BF03823008F10D
:1005900088818F7180937E0383E019C08E3FD9F4E8
:1005A0001092BF0316C0809151048F3FA1F4809137
:1005B00052048A3270F4E82FF0E0E250FD4F988147
:1005C00090838F5F809352048A3229F481E0809374
:1005D000BF0380E001C081E0DF91CF911F910895BA
:1005E000FC0120A530E0C901817090700196277050
:1005F000307035952795820F931F880F880F0895C7
:10060000A0E0B0E0E6E0F3E00C94A622EC010E944A
:100610008A024FA150E023E130E0429FF001439F66
:10062000F00D529FF00D1124EA50FE4FA080B180D2
:10063000C280D38090E00F969C01B901882777FD96
:100640008095982F20E43FE14DE750E00E942E2254
:10065000A60195010E94612279018A0180ED97E04F
:10066000A0E0B0E0E80EF91E0A1F1B1F88A58871E4
:10067000D1F069A570E0615F7F4F882777FD809595
:10068000982F20E43FE14DE750E00E942E22A60182
:1006900095010E94612228513C4F4F4F5F4FE20E5F
:1006A000F31E041F151FC801B70169517C4F8F4FFE
:1006B0009F4F28EE33E040E050E00E946122B901F4
:1006C000CA0128EE33E040E050E00E942E22CDB770
:1006D000DEB7EAE00C94C222FB01DA01482F46950E
:1006E00090E014962C91149730E023703070322FE4
:1006F00022275C91250F311D3183208314962C9184
:10070000149730E02C70307056E0220F331F5A954A
:10071000E1F711965C911197250F311D33832283E8
:1007200014962C91149730E02073307074E0220FEF
:10073000331F7A95E1F712965C911297250F311DC0
:100740003583248314962C91149730E0207C3070EC
:10075000220F331F220F331F13965C911397250F1F
:10076000311D37832683159638969F5F491708F009
:10077000B8CF80FF47C04C9142954695469543704F
:1007800050E02DE431E0429FC001439F900D529F05
:10079000900D11240C96918380838C9190E054E00D
:1007A000969587955A95E1F783709070829FA00186
:1007B000839F500D929F500D1124445F5F4F5383D0
:1007C00042838C9190E09695879596958795837056
:1007D0009070829FA001839F500D929F500D112415
:1007E000445F5F4F558344834C9150E04370507099
:1007F000429FC001439F900D529F900D11240C9673
:100800009783868308959C0183E02032380708F19E
:1008100083E0283E380740F42F513340E4E036951A
:100820002795EA95E1F71AC087E0203D380718F4CC
:100830002C5D334013C088E02839380768F4285C01
:10084000374074E0369527957A95E1F72D503C4F67
:1008500005C020E030E002C02FEF33E0C901089569
:100860009C018C30910540F4A4E0220F331FAA951F
:10087000E1F7285D3C4F15C083E0243F380718F4AA
:1008800024523C4F0EC084E02030380740F42657F5
:10089000334FF4E0220F331FFA95E1F702C020E94D
:1008A00038E0C90108959C01369527952575357561
:1008B000821B930B9C0123733373969587959695B2
:1008C000879583739373820F931F9C01B4E03695D1
:1008D0002795BA95E1F7280F391F2F703F7041E037
:1008E00051E0249FC001259F900D349F900D11244D
:1008F000892F0895882321F042980000419A03C06F
:100900004298000041980000429A00000895429ADF
:10091000000086B142980000817008950F931F93E4
:10092000082F5C9A42985C9818E0802F80780E948B
:100930007A04000F1150C9F742981F910F91089542
:100940008F770E948E0408950F931F93082F18E04D
:10095000802F80780E947A04000F1150C9F74298C6
:100960001F910F9108950F931F93429818E080E014
:10097000082F000F0E948704800F1150C9F71F91A4
:100980000F9108950E94A0040E94B3045C9A0895F8
:10099000A1E0B0E0EEECF4E00C94AE228068698354
:1009A0000E948E046981862F0E94A4045C9A21967D
:1009B000E2E00C94CA221F93109107031827EEEF70
:1009C000F2E0E80FF11D89E767850E94C8048DE316
:1009D000612F0E94C80482E4612F0E94C8041F9105
:1009E000089586E20E94C20408951F938BE20E943C
:1009F000C204182F8CE20E94C204282F30E076E057
:100A0000369527957A95E1F7812F90E0880F991F09
:100A1000880F991F282B392BC9011F910895CF9357
:100A2000DF93EC018CE16C810E94C8048DE16D8143
:100A30000E94C8048EE16E810E94C80480E26F812A
:100A40000E94C80481E268850E94C80482E2698528
:100A50000E94C80483E26A850E94C80484E26B8510
:100A60000E94C80485E26C850E94C8048AE26D85F4
:100A70000E94C8048EE66E850E94C8048FE66F85CA
:100A80000E94C80480E768890E94C80481E76989D8
:100A90000E94C80482E76A890E94C804DF91CF914E
:100AA0000895A1E0B0E0E7E5F5E00C94A8227B0111
:100AB0008C01603048E374074CE984074CE19407EB
:100AC00048F520E836E948E950E00E946122B8EE96
:100AD000CB2EBFEFDB2EC20ED31EB90180E090E01B
:100AE00020E839E647E65FEF0E942E226E0D7F1D5B
:100AF000801F911FA2E0660F771F881F991FAA957C
:100B0000D1F721E732E040E050E00E946122E32E7D
:100B100080E425C020E03DE241E351E00E946122F3
:100B2000F8EECF2EFFEFDF2EC20ED31EB90180E00C
:100B300090E020E033ED4EEC5EEF0E942E226E0D31
:100B40007F1D801F911F660F771F881F991F21E748
:100B500032E040E050E00E946122E32E80E66C2DFE
:100B60006F71680F85E729830E94C80486E76E2DA0
:100B70000E94C80487E72981622F0E94C804219639
:100B8000E8E00C94C4228F929F92AF92BF92CF92D2
:100B9000DF92EF92FF920F931F93982E83E00E94B3
:100BA000C2048093280384E00E94C2048093290336
:100BB00086E060E00E94C80487E061E00E94C8040B
:100BC00089E06FE70E94C8048AE065E00E94C804DB
:100BD0008BE062E10E94C8048CE065E10E94C804D9
:100BE0008DE06DEF0E94C8048EE060E00E94C804B2
:100BF000992019F085E592E00FC08091250390E0DF
:100C000043E150E0849F9001859F300D949F300D0B
:100C10001124C9018A509E4F0E940F0580E36CE8A1
:100C20000E94C80482E36FE00E94C80483E362E488
:100C30000E94C80484E36AE00E94C80485E36AE273
:100C40000E94C80486E36DE20E94C80487E364ED55
:100C50000E94C80488E360E00E94C80489E360E061
:100C60000E94C804992049F4A0900703B09008039B
:100C7000C0900903D0900A0308C095E7A92E91EC13
:100C8000B92E91ECC92E9EEDD92E8AE3882EED2C3B
:100C9000FF2400271127882D6E2D0E94C804882D5F
:100CA0008B5F6E2D0E94C804DC2CCB2CBA2CAA249E
:100CB0008394882D8E3359F783E46FEF0E94C80424
:100CC00084E46FEF0E94C80485E46FEF0E94C804BB
:100CD00086E46FEF0E94C804992019F08DE666E063
:100CE00003C08DE660910B030E94C80489E760E0B1
:100CF0000E94C8048AE760910C030E94C80483E73D
:100D000060E00E94C80484E760E00E94C804992063
:100D100049F460910303709104038091050390915D
:100D2000060304C060EC72E98DEE99E10E94510562
:100D30001F910F91FF90EF90DF90CF90BF90AF90F9
:100D40009F908F90089587E061E00E94C8048EE72D
:100D500064E20E94C80488E063E00E94C80488E05E
:100D600060E00E94C80487E065E00E94C80485E056
:100D700062E00E94C80483E00E94C20480932803BA
:100D800084E00E94C20480932903089583E00E94B6
:100D9000C2048093280384E00E94C2048093290344
:100DA00087E061E00E94C8046AE070E080E090E0C3
:100DB0000E946B1F0E94A30600000895A2E2B0E00B
:100DC000E4EEF6E00C949E221E010894211C311CD6
:100DD00080E1D1011D928A95E9F782E593E060E018
:100DE00071E00E9403210E94C6061E8A1F8A188E87
:100DF000198E00E01D8A10E088249924540140E4F3
:100E0000442E41EE542E4DE9642E48E1742E30E517
:100E1000C32E33ECD32EE12CF12C24EF31E040E053
:100E200050E02E8F3F8F48A359A380EC91EDA8E9A5
:100E3000BBE18A8F9B8FAC8FBD8F20E431EE4DE9F3
:100E400058E1298B3A8B4B8B5C8BFAC082E593E09F
:100E50000E944A1C843461F0853430F4833261F19D
:100E60008C3209F0C0C039C0833509F0BCC0E1C084
:100E700082E593E064E40E94E62082E593E040E4AA
:100E800051EE6DE978E12AE030E00E94842182E5AC
:100E900093E06CE20E94E62082E593E040EC51EDA5
:100EA00068E97BE12AE030E00E94842182E593E05A
:100EB0006CE20E941621C4C019821A821B821C8215
:100EC0001D821E821F82188619861A861B861C8622
:100ED0001D861E861F86188A39C01F5F143009F0D0
:100EE000AFC069817A818B819C8128EE33E040E03C
:100EF00050E00E942E22698B7A8B8B8B9C8B6D81AC
:100F00007E818F8198850E942E226A8F7B8F8C8FA5
:100F10009D8F89859A85AB85BC858E8F9F8FA8A371
:100F2000B9A36D857E858F8598890E942E226B01DD
:100F30007C0190E2C9169EE4D90690E0E90690E0B3
:100F4000F90630F48CE162E30E94C80410E078C036
:100F5000A0E3CA16A5E7DA06A0E0EA06A0E0FA06D2
:100F600018F48CE162E2F0CFB0E4CB16BCE9DB060A
:100F7000B0E0EB06B0E0FB0618F48CE166E2E4CFEB
:100F8000E0E5CE16E3ECDE06E0E0EE06E0E0FE068D
:100F900018F48CE162E1D8CFF0E6CF16FAEEDF0666
:100FA000F0E0EF06F0E0FF0618F48CE165E1CCCF4D
:100FB00020E7C21621E1D20621E0E20620E0F20697
:100FC00018F48CE161E0C0CF30EAC31636E8D306EE
:100FD00031E0E30630E0F30618F48CE163E0B4CFCF
:100FE0008CE165E0B1CF80538AA38A3048F5212E89
:100FF0003324220C331C220C331C41E050E04C0FF4
:101000005D1F240E351ED1016D917D918D919C91B6
:101010002AE030E040E050E00E942E22BAA16B0F9F
:10102000711D811D911DF101608371838283938302
:1010300007C049885A886B887C8888249924540181
:1010400082E593E00E941A1C009709F0FFCE8114FC
:101050009104A104B10489F4C301B2010E945105B5
:1010600061E070E080E090E00E946B1F1E8A1F8AA2
:10107000188E198E00E0FFEFFD8B2E8D3F8D48A15D
:1010800059A182169306A406B506D8F40E94F1046D
:101090002E893F89488D598D280F311D411D511DC5
:1010A0002E8B3F8B488F598F081708F4082F3D89E6
:1010B000831708F48D8B0894811C911CA11CB11C12
:1010C00056C0C301B20128EE33E040E050E00E9478
:1010D000612282E593E0BA01A9012AE030E00E9492
:1010E000662182E593E06CE20E94E62082E593E0CF
:1010F000602F4AE050E00E947C2182E593E06CE2A0
:101100000E94E6206E897F89888D998DA5019401C2
:101110000E94612282E593E0BA01A9012AE030E051
:101120000E94662182E593E06CE20E94E62082E55F
:1011300093E06D894AE050E00E947C2182E593E0D3
:101140006CE20E9416214C0C5D1C6E1C7F1C8A8D6B
:101150009B8DAC8DBD8D84159505A605B70520F436
:1011600049885A886B887C88882499245401298965
:101170003A894B895C89283E83E0380780E048073C
:1011800080E0580709F05CCFA296E2E10C94BA2205
:10119000A1E0B0E0EEECF8E00C94AA22182F062FA4
:1011A0008EE399830E94C8049981612F792F7B0176
:1011B00006C0F70161917F018FE70E94C8048E2D60
:1011C000811B8017B0F385E064E00E94C80483E0CF
:1011D0000E94C2048093280384E00E94C20480938A
:1011E00029030E94451F60932A0370932B03809369
:1011F0002C0390932D0387E069E00E94C80481E0EE
:101200008093E2022196E6E00C94C6220E94C80870
:101210008091E2028130F1F40E94451F20912A035F
:1012200030912B0340912C0350912D03621B730BC3
:10123000840B950B603A26E8720721E0820720E0D4
:10124000920730F307C082E593E06DE071E00E9401
:10125000032108958091E2028130A9F308958091DD
:10126000E2028130C1F40E94451F20912A0330918F
:101270002B0340912C0350912D03621B730B840BA5
:10128000950B613A26E8720721E0820720E0920779
:1012900020F082E0089581E0089580E00895A0E0C4
:1012A000B0E0E5E5F9E00C94A8228B019C0144270D
:1012B00037FD4095542F60E271EA87E090E00E948C
:1012C0008322E9011C161D0614F0C1E0D0E0B8012C
:1012D000882777FD8095982F20E231EA47E050E09B
:1012E0000E942E229E01442737FD4095542F0E94D4
:1012F0008322790100E010E00BC0419A6E01CE011B
:101300000E94901F4198CE010E94901F0F5F1F4FB7
:101310000E151F0594F3CDB7DEB7E8E00C94C42298
:101320002D9A83E00E94C2048093280384E00E94E7
:10133000C2048093290386E060E00E94C80487E02D
:1013400061E00E94C80489E06FE70E94C8048AE057
:1013500065E00E94C8048BE062E10E94C8048CE052
:1013600065E10E94C8048DE06DEF0E94C8048EE024
:1013700060E00E94C80480E76CE20E94C80480E339
:1013800060E00E94C80489E760E00E94C8048AE720
:1013900065E00E94C80481E762E10E94C80482E718
:1013A00062E00E94C80483E760E00E94C80484E70A
:1013B00060E00E94C8046091F3027091F402809191
:1013C000F5029091F6020E9451058DE667E00E94B9
:1013D000C8046AE070E080E090E00E946B1F87E044
:1013E00069E00E94C8046AE070E080E090E00E943A
:1013F0006B1F88E891E061E070E00E944F090E9455
:10140000A4008DE665E00E94C8046AE070E080E018
:1014100090E00E946B1F88EB91E061E070E00E9419
:101420004F090E94A4008DE664E00E94C8046AE0AF
:1014300070E080E090E00E946B1F8DE591E061E03C
:1014400070E00E944F090E94A4008DE662E00E94B5
:10145000C8046AE070E080E090E00E946B1F8FEAB1
:1014600090E061E070E00E944F090E94A4008DE6C8
:1014700060E00E94C8046AE070E080E090E00E94B2
:101480006B1F85E091E062E070E00E944F090E94CE
:10149000A40087E061E00E94C8042D9808950F938E
:1014A0001F93CF93DF938C01C2E5D3E0CE01612F70
:1014B00070E04AE050E00E947521CE016EE20E9489
:1014C000E620B80154E0769567955A95E1F76F707C
:1014D0007070CE014AE050E00E947521CE016EE2AC
:1014E0000E94E620B8016F707070CE014AE050E0B3
:1014F0000E947521DF91CF911F910F91089582E590
:1015000093E00E941A1C20E031E0281B390B73E0A5
:10151000369527957A95E1F744E650E0249FC0017F
:10152000259F900D349F900D112465E09695879529
:101530006A95E1F70895AF92BF92DF92EF92FF9222
:101540000F931F93DF93CF9300D0CDB7DEB75C012D
:101550008EEF8093560489E080935704809167044E
:10156000809358048F5F8093670483E380935904CA
:1015700084E480935A0486EA80935B040CE514E0CB
:1015800030935D0420935C04D80113961C921E9244
:1015900012974A8369830E947F0AF80186834A81F1
:1015A000448369816583178210868091570457E0D0
:1015B000D52ED80EE82EFF24B7016A5F7F4FFB01BE
:1015C000EA5AFB4F85E18083F801359701E08FEF00
:1015D0009FEF1DC031913827232F2295207F23278D
:1015E00030E0522F4427D90113E0AA0FBB1F1A95F0
:1015F000E1F74A275B27892F992784279527A4E0BD
:1016000035952795AA95E1F7822793270F5F0D154A
:1016100008F36A5A7B4FDB018C93F701EA5AFB4FC0
:101620009783D501ED91FC910484F585E02DC501EA
:1016300009958131910560F0D501ED91FC91028011
:10164000F381E02DC50166E574E041E150E00995C4
:101650000F900F90CF91DF911F910F91FF90EF901E
:10166000DF90BF90AF900895DC011896EC91189729
:10167000F0E0E930F10508F05CC0EC5CFF4F0C9441
:10168000D5226E3F09F055C01C9211961C921197FD
:1016900012961C92129713961C92139714961C92F2
:1016A000149716961C921E92159717961C921797D0
:1016B00081E02AC06C9382E027C011966C93119749
:1016C00083E022C012966C93129784E01DC013969B
:1016D0006C93139785E018C014966C93149786E06A
:1016E00013C017968C9117978F5F17968C93179747
:1016F0009C91891700F187E007C015966C931597A8
:1017000016961C92169788E018968C93189711C01D
:10171000362F20E015968D919C911697822B932B56
:1017200016969C938E93159718961C92189781E0A5
:10173000089580E0089580E008951F9311E08823C4
:1017400009F410E082E1612F0E94472083E1612FBC
:101750000E94472010923303109234038091B90005
:101760008C6F8093B90080E28093B80085E4809309
:10177000BC001F91089591E0442309F490E0880F84
:10178000892B8093BA00660F6093BD0030932F03BE
:1017900020932E030895882311F085EC01C085E87D
:1017A0008093BC00089585ED8093BC008091BC00BF
:1017B00084FDFCCF089585EC8093BC000895ECEB8C
:1017C000F0E0108285E480831092340308951F9224
:1017D0000F920FB60F9211242F933F934F935F9365
:1017E0006F937F938F939F93AF93BF93EF93FF93E9
:1017F000DF93CF930F92CDB7DEB78091B90090E021
:10180000887F90708036910509F4EEC0813691058D
:10181000E4F58832910509F47FC089329105C4F45A
:101820008031910509F473C08131910544F400972A
:1018300009F413C18830910509F011C168C08831DD
:10184000910509F469C08032910509F008C179C099
:101850008034910509F492C0813491054CF48033B1
:10186000910509F470C08833910509F0F8C06DC086
:101870008035910509F472C08835910509F484C05A
:101880008834910509F0EBC0A6C08839910509F4A8
:10189000DEC089399105ECF48837910509F4A4C0BC
:1018A000893791054CF48836910509F49DC080373D
:1018B000910509F0D4C098C08838910509F4C7C0D3
:1018C0008039910509F493C08038910509F0C7C0AB
:1018D0008EC0803B910509F4A7C0813B91054CF473
:1018E000803A910509F49BC0883A910509F0B7C088
:1018F0009BC0803C910509F4ACC0883C910509F47B
:10190000A8C0883B910509F0AAC080E08EC08091F4
:1019100030038093BB009DC080913303982F91507A
:1019200090933303882309F43FC0E0913103F09191
:10193000320381918093BB00F0933203E093310333
:1019400088C082E049C083E047C084E080933503CB
:10195000809134038B7F8093340363C08091BB00FC
:10196000E0913103F09132038193F0933203E093DD
:10197000310380913303815080933303809133038B
:10198000823008F066C063C08091BB00E0913103F3
:10199000F09132038193F0933203E093310380910D
:1019A0003303815080933303809134038B7F809382
:1019B00034038091340380FF50C0809134038E7FC4
:1019C000809334038091340382608093340384EAEB
:1019D0008093BC0044C085E080933503809134033C
:1019E0008B7F8093340339C01092330332C0E0916F
:1019F0002E03F0912F03309751F18091BB00898322
:101A000080913303982F9F5F90933303882311F4C1
:101A100062E001C060E0CE01019609951BC00E9402
:101A2000D30B0E94DB0B1BC081E0E0912E03F091F1
:101A30002F03309761F0882311F063E001C061E06B
:101A4000CE010196099599819093BB0003C080E077
:101A500001C081E00E94CB0B02C00E94D30B0F900B
:101A6000CF91DF91FF91EF91BF91AF919F918F91B6
:101A70007F916F915F914F913F912F910F900FBE8A
:101A80000F901F901895A0E0B0E0E9E4FDE00C9401
:101A9000A622EC010E94451F7B018C015E01CC2433
:101AA000DD2411C0209779F00E94451F6E197F092F
:101AB000800B910BA616B706C806D90620F40E9423
:101AC000DF0B81E008C08091340382FDEBCF809171
:101AD000350310923503CDB7DEB7EAE00C94C2228D
:101AE000AF92BF92DF92EF92FF920F931F93DF931B
:101AF000CF930F92CDB7DEB7D82E5B01022F10E047
:101B000064E0E62EF12CE022F12222FD05C0809156
:101B100088029091890202C080E090E049830E948F
:101B2000430D49818823A9F510923503409333036F
:101B3000B0923203A0923103DD0CD0923003209199
:101B4000340301FF02C095E001C094E0922B909312
:101B500034039091340391FF0BC0909134039D7F27
:101B600090933403909130039093BB0095EC01C0A7
:101B700095EE9093BC0000FF0CC0E114F10429F431
:101B8000809188029091890202C080E090E00E94DA
:101B9000430D0F90CF91DF911F910F91FF90EF9028
:101BA000DF90BF90AF900895AF92BF92DF92EF9217
:101BB000FF920F931F93DF93CF930F92CDB7DEB7B2
:101BC000D82E5B01022F10E074E0E72EF12CE0220A
:101BD000F12222FD05C0809188029091890202C005
:101BE00080E090E049830E94430D49818823B9F544
:101BF0001092350340933303B0923203A092310325
:101C00009D2D990F9160909330032091340301FF33
:101C100002C095E001C094E0922B90933403909120
:101C2000340391FF0BC0909134039D7F9093340354
:101C3000909130039093BB0095EC01C095EE90938A
:101C4000BC0000FF0CC0E114F10429F4809188026B
:101C50009091890202C080E090E00E94430D0F90B5
:101C6000CF91DF911F910F91FF90EF90DF90BF9088
:101C7000AF900895EF92FF920F931F93CF93DF934E
:101C80000E94451F2091360330913703409138035D
:101C9000509139037B018C01E21AF30A040B150BF6
:101CA000A8019701213107E2300700E0400700E07A
:101CB0005007D0F120913A03322F3F5F30933A031F
:101CC00020FF02C017E001C010E06093360370935C
:101CD0003703809338039093390382E593E063E000
:101CE0000E949C1C82E593E061E00E949C1C012FF5
:101CF000095FC12FD0E0CC0FDD1FC859DD4F8881AF
:101D00009981692F6370812F880F880F682B82E576
:101D100093E00E949C1C6881798182E593E00E9497
:101D20009C1C1F5F101729F7CDB7DEB7E6E00C94B7
:101D3000C622A0E0B0E0EFE9FEE00C94A822C82E95
:101D4000D62E0E94451F9B01AC01809136039091D5
:101D50003703A0913803B091390379018A01E81A59
:101D6000F90A0A0B1B0B81E1E81687E2F80680E00E
:101D7000080780E0180708F4D8C120933603309391
:101D80003703409338035093390380916802909150
:101D90006902880F991F80933B03892F87702091D8
:101DA0003C03287F282B20933C0380916A0290916A
:101DB0006B02880F991F382F330F330F330F2770A3
:101DC000232B20933C03382F329536953770209182
:101DD0003D03207C892F8770880F880F880F232B65
:101DE000282B20933D0380916C0290916D02880F07
:101DF000991F382F3295330F330F307C2F73232BDD
:101E000020933D03392F3295330F330F307C282F29
:101E100026952695232B20933E03892F869586951C
:101E2000817020913F032E7F282B20933F038091C8
:101E30006E0290916F02880F991F382F330F217017
:101E4000232B20933F03382F331F3327331F209139
:101E50004003207F892F8770880F232B282B209306
:101E600040038091700290917102880F991F382F62
:101E70003295307F2F70232B20934003382F3295DB
:101E80003F70209141032078892F87708295807F51
:101E9000232B282B2093410380917202909173028F
:101EA000880F991F2F7720934103392F37953327B8
:101EB0003795282F2695232B20934203892F86952B
:101EC0008370209143032C7F282B20934303809120
:101ED000740290917502880F991F382F330F330FBA
:101EE0002370232B20934303382F32953695369554
:101EF000337020914403207E892F8770880F880FCC
:101F0000232B282B20934403809176029091770213
:101F1000880F991F382F3295330F307E2F71232B66
:101F200020934403292F2295220F207E86958695A3
:101F30008695822B80934503809178029091790257
:101F4000880F991F80934603892F8770209147033C
:101F5000287F282B2093470380917A0290917B025F
:101F6000880F991F382F330F330F330F2770232B10
:101F700020934703382F32953695377020914803C8
:101F8000207C892F8770880F880F880F232B282BA0
:101F90002093480380917C0290917D02880F991FC5
:101FA000382F3295330F330F307C2F73232B209330
:101FB0004803392F3295330F330F307C282F269565
:101FC0002695232B20934903892F8695869581702A
:101FD00020914A032E7F282B20934A0380917E0272
:101FE00090917F02880F991F382F330F2170232B78
:101FF00020934A03382F331F3327331F20914B037D
:10200000207F892F8770880F232B282B20934B0349
:102010008091800290918102880F991F382F32950C
:10202000307F2F70232B20934B03382F32953F7036
:1020300020914C032078892F87708295807F232BF5
:10204000282B20934C038091820290918302880F69
:10205000991F2F7720934C03392F379533273795C6
:10206000282F2695232B20934D03892F8695837047
:1020700020914E032C7F282B20934E0380918402C5
:1020800090918502880F991F382F330F330F2370DB
:10209000232B20934E03382F329536953695337087
:1020A00020914F03207E892F8770880F880F232B64
:1020B000282B20934F038091860290918702880FEE
:1020C000991F382F3295330F307E2F71232B209399
:1020D0004F03292F2295220F207E8695869586957F
:1020E000822B80935003CC2011F088E001C080E067
:1020F000DD2011F094E001C090E0892B8093510322
:1021000082E593E06FE00E949C1CCBE3D3E06991F1
:1021100082E593E00E949C1C83E0C235D807B9F7A2
:1021200082E593E060E00E949C1CCDB7DEB7E8E05A
:102130000C94C4221F93182F82E593E0612F0E9414
:102140009C1C812F0E94EA001F910895A0E0B0E03E
:10215000ECEAF0E10C94A822082F0E94451F209180
:1021600036033091370340913803509139036B01A6
:102170007C01C21AD30AE40AF50AA70196012131AB
:10218000E7E23E07E0E04E07E0E05E0708F440C00B
:102190006093360370933703809338039093390329
:1021A000109255041092540488EA0E949A10002359
:1021B00011F081E801C081E00E949A1080E10E9444
:1021C0009A10C0E0D0E0FE01EE0FFF1FE859FD4F6E
:1021D000808191810E9430048C0173E0000F111FF7
:1021E0007A95E1F7812F0E949A10802F0E949A1011
:1021F0002196C031D10539F76091550482E593E00D
:102200000E949C1C82E593E0609154040E949C1CF7
:10221000CDB7DEB7E8E00C94C4221F920F920FB640
:102220000F9211242F933F934F938F939F93EF938C
:10223000FF934091C60080916804909169040196D3
:1022400020916E0430916F048223932320916A04BD
:1022500030916B048217930781F0209168043091CC
:102260006904E0917004F0917104E20FF31F408360
:10227000909369048093680409C080916C049091E4
:102280006D04019690936D0480936C04FF91EF911F
:102290009F918F914F913F912F910F900FBE0F9073
:1022A0001F9018951F920F920FB60F9211242F9323
:1022B0003F938F939F93EF93FF93209174043091FA
:1022C0007504809172049091730428173907E9F01E
:1022D0008091740490917504E0917A04F0917B04EC
:1022E000E80FF91F80818093C6008091740490915B
:1022F0007504019620917804309179048223932308
:10230000909375048093740410C0209172043091EE
:10231000730480917404909175042817390729F487
:102320008091C1008F7D8093C100FF91EF919F91BB
:102330008F913F912F910F900FBE0F901F90189586
:1023400025B190E0FC01EE0FFF1FE80FF91FEA53E3
:10235000FC4F8081282B25B988B19181892B88B9C0
:102360008BB19281892B8BB9089585B19091F60339
:10237000892385B988B19091F703892388B98BB1F6
:102380009091F80389238BB908951F920F920FB68D
:102390000F9211241F932F933F934F935F936F934B
:1023A0007F938F939F93AF93BF93CF93DF93EF93DD
:1023B000FF931091990380918C02C0918A02D09171
:1023C0008B02181708F05AC08091F9039091FA0314
:1023D0009093870080938600E12FF0E0EE0FFF1FBF
:1023E000E859FD4F808191810E943004880F991F28
:1023F0009093FA038093F9038091F9039091FA0383
:10240000C81BD90BD0938B02C0938A028091F9022A
:102410009091FA02880F991FC817D90720F490935A
:102420008B0280938A0280919B03882339F48091E8
:10243000F10280FF5BC0183008F458C08FEF9FEFA7
:10244000909389008093880080918400909185000A
:1024500080329105C8F30E94B51180919A038823B8
:1024600039F480919903882319F081500E94A011BA
:10247000809199038F5F809399033FC08091F90306
:102480009091FA039093870080938600D093FA038B
:10249000C093F90380919B03882319F08FEF9FEF7E
:1024A00006C08091F9039091FA0388559240909369
:1024B00089008093880080E49CE990938B0280934C
:1024C0008A02809184009091850080329105C8F342
:1024D0000E94B51180919A03882329F480918C027F
:1024E00081500E94A0111092990307C08091F903B6
:1024F0009091FA0388559240A3CFFF91EF91DF911D
:10250000CF91BF91AF919F918F917F916F915F918B
:102510004F913F912F911F910F900FBE0F901F90E1
:102520001895282F30E0220F331F220F331F2C3035
:10253000310538F083E0253F380728F024EF33E0F9
:1025400002C02CE030E0C9010895CF93DF93809161
:10255000F202803180F4F8948091F202C82FD0E02A
:10256000809194030E949112CC0FDD1FC859DD4F5A
:10257000998388837894DF91CF9108958091970310
:10258000909198039F770E9453048F3031F480918B
:10259000930386958695805404C09DE0899F802D85
:1025A0001124809394030E94A5128091E402813249
:1025B000D1F480919403982F91509E3F68F09091B0
:1025C000B0009F7D9093B00061E0882309F460E043
:1025D00083E00E94472008958093B4008091B0006A
:1025E00080628093B000089580919D0390919E0336
:1025F0002FEF8F3F9207D9F0EDE9F3E080E090E014
:102600002091F20230E08217930761F0F894208164
:102610003181DC01AA0FBB1FA859BD4F11963C9315
:102620002E937894019632968031910549F708955A
:10263000A1E0B0E0EEE1F3E10C94AA228EEF92E08B
:102640000E94F00280938C029091F202981719F484
:102650009F5F90938C02E6ECF3E01082118212826D
:10266000339623E0ED3EF207C1F74FEF3FEF04EE64
:1026700012E0AAE9B2E078012FEFF70181917F0122
:102680008031F0F490E06C91FC01EE0FFF1FE80F39
:10269000F91FEA53FC4F8081862B808311965C9151
:1026A00011978181852B818312969C91129782814B
:1026B000892B828360954623509535239095292355
:1026C0001396F1EFEF16F2E0FF06B9F64093F6032A
:1026D0003093F7032093F803EDE8EE2EE2E0FE2EB0
:1026E00090E0F80181918F01823240F08632D0F083
:1026F000863221F4F701808160E010C09B3021F424
:102700008091C1008F7E05C09C3029F48091C1006A
:10271000877F8093C100F701808161E099830E94E7
:10272000022099819F5F0894E11CF11C9D30C9F63D
:102730008091E902803231F489E061E00E94472013
:1027400082E801C082E08093800081E080939A0358
:1027500080939B038091E402813211F08732D9F497
:1027600083E061E00E94022083E060E00E94472055
:102770008091E402813231F481E08093B100809352
:10278000B00009C082E08093B00085E08093B10082
:102790008EE38093B3008AE1809381008FEF9FEFF7
:1027A000909389008093880080ED97E09093870054
:1027B0008093860080E49CE990938B0280938A0248
:1027C0009093FA038093F9031092990380916F001C
:1027D000816080936F008091F10283FF0EC0809131
:1027E0009D0390919E03FFEF8F3F9F0731F00E9462
:1027F000F41210929B0310929A032196E6E00C9437
:10280000C6221F93182F8091EC028B3221F48CE0AA
:10281000612F0E9447208091E402873259F41123EE
:1028200021F08091B000806103C08091B0008F7E64
:102830008093B0001F910895A9E2B0E0E2E2F4E1D4
:102840000C949E227B018C010E94371F6DA37EA3F6
:102850008FA398A781E00E94C30583E08093E202E2
:102860000E94C60682E593E069E171E00E940321BF
:1028700093E0392E83E0482E512C4C0E5D1EB2E0C1
:102880006B2E712C6C0E7D1E4E010894811C911CC8
:10289000ADE02A2EE6C082E593E067E271E00E9497
:1028A00003218FE70E94A0040E94B304898382362B
:1028B00019F5FEEFCF2EF2E0DF2E0E94B304F601F1
:1028C00081936F01F8E2CF16F3E0DF06B1F7809154
:1028D000FE02863309F0C1C082E593E060E371E057
:1028E0000E94032182E48983CE01019661E00E9467
:1028F00006092D9A81E0CFC0803719F0893611F58D
:1029000006C020E52A83EE24FF24870105C081E06C
:102910000E942B0239E43A83909153048091F10292
:10292000992311F0806801C08F778093F102F20142
:10293000A3EEB2E08BE10D9001928150E1F7C3016B
:102940006CE189C08437C1F444E54A833B8254E694
:102950005C832D822E82DE011796ECEDF1E08AE198
:1029600001900D928150E1F7C3016FE10E940609C9
:10297000EE24FF24870171C08537A9F4E3EECE2E43
:10298000E2E0DE2E0E94B304F60181936F01FEEFB8
:10299000CF16F2E0DF06B1F780E061E00E943F0170
:1029A00025E5298356C0863631F520919D03309167
:1029B0009E034FEF2F3F3407D1F056E45A837DE951
:1029C000A72E73E0B72E6201F501819191915F010D
:1029D0000E943004F6019083818322E030E0C20E31
:1029E000D31E3DEBA31633E0B30671F701C08A8313
:1029F000C30161E230C08736F9F46DE9C62E63E0A9
:102A0000D62E0E94B3048CA31BA20E94B3044BA138
:102A10005CA1480F511DCA010E940304F601819375
:102A200091936F01FDEBCF16F3E0DF0651F727E43A
:102A300029830E9419020DC0873479F44FEF5FEFAC
:102A400050939E0340939D0389A70E94190289A574
:102A50008983C40161E00E9406093092E2020E946B
:102A6000A306E114F1040105110579F00E94371F56
:102A70002DA13EA14FA158A5621B730B840B950B92
:102A80006E157F058007910728F48091E20284305B
:102A900041F701CF80E0A996E2E10C94BA22A1E0CF
:102AA000B0E0E5E5F5E10C94AC22182F062F61E0CB
:102AB0000E940220812F61E00E944720802F61E068
:102AC0000E9447208AE090E00E94901F802F0E9481
:102AD0007C20009769F0812F60E00E9447208AE007
:102AE00090E00E94901F802F0E947C20009711F0A0
:102AF00090E001C091E0812F60E099830E94022064
:102B0000812F60E00E944720802F60E00E944720D4
:102B10009981892F2196E4E00C94C822A0E0B0E0CE
:102B2000E4E9F5E10C94A92280E260E040E025E9C7
:102B300032E00E94BB0B1092BF0342E0D42E35E07E
:102B4000E32E24E0F22E8091BF03813039F480E03F
:102B50000E94C305D092BF034398F5CF0091BF03F5
:102B6000033061F42D9880917E030E94DB04009372
:102B7000E2020E94A306F092BF03E5CF8091BF035B
:102B8000843009F78091E2028430E9F68FE70E94F1
:102B9000A0040BEF13E0C0E0D0E006C00E94B30435
:102BA000F80181938F0121968EEF92E00E948A02B4
:102BB00090E0C817D90794F3E092BF032D9AC3CFD2
:102BC000ABE2B0E0E6EEF5E10C94AC228FEF898346
:102BD000DE011296EEEFF2E08AE201900D92815052
:102BE000E1F780E28E010F5F1F4FB8014BE221E059
:102BF0000E94700D882351F480E2B80141E021E089
:102C00000E94D40D882311F482E001C08FEF8093DD
:102C1000BF038091BF03823051F00E94371F609341
:102C2000C0037093C1038093C2039093C303AB9618
:102C3000E4E00C94C822A1E0B0E0E1E2F6E10C94FB
:102C4000AC2280E00E94CF008DE061E00E94022073
:102C500081E161E00E9402200E94A60080E060E025
:102C60000E94022081E061E00E94022082E593E060
:102C700040E052EC61E070E020E031E000E410E080
:102C80000E94A71D0E9480020E941E0282E593E01E
:102C90006BE371E00E94E32084E693E00E944F0A18
:102CA00082E593E062E571E00E94E32082E593E033
:102CB00063E070E04AE050E00E94C3210E94BB0044
:102CC0007894439A86E067E00E944F15882329F0A4
:102CD00043982D980E94DE06FBCF83E065E00E94BA
:102CE0004F15882329F40E94CF01882309F0F6C0EC
:102CF00082E593E06AE571E00E94E32060E070E025
:102D0000CB010E941C14882349F00E94DE0182E559
:102D100093E063E971E00E9403212D9A0E94181349
:102D200022C08091EE02833229F08091F1028B7FE4
:102D30008093F1028091F10281FF15C082FD13C0E2
:102D400064EF71E080E090E00E941C14882359F049
:102D50000E94DE0182E593E063E971E00E940321B5
:102D60000E9418132D9A8091ED02823239F58091DC
:102D7000EE02833219F581E00E949D0B8091F102F1
:102D800082FF09C082E593E06EEA71E00E940321B0
:102D90000E948E1513C064E170E080E090E00E9414
:102DA0006B1F80E2BE016F5F7F4F41E021E00E9418
:102DB000D40D882319F481E08093BF0382E593E06A
:102DC00069EB71E00E94E3208FE00E94CF0080E079
:102DD0000E94C30510927E0380E00E94DB0480E025
:102DE00001C0822F883108F081C0282F2F5FE82F83
:102DF000F0E0E250FD4F9785992399F777C00E9444
:102E0000E0158091F002883211F08A3249F482E5AF
:102E100093E040E052EC61E070E00E940A1C36C092
:102E2000893271F482E593E040EA56E861E070E0AF
:102E30000E940A1C8091C20080628093C20026C05A
:102E4000809126038871803169F04091FF02509192
:102E5000000360910103709102034A30510561053E
:102E6000710538F482E593E040E855E260E070E0F7
:102E700002C082E593E020E031E000E410E00E942F
:102E8000A71D04C082E593E00E944A1C82E593E0FE
:102E90000E941A1C0097B1F78091EF02843229F04A
:102EA0008091C1008F7E8093C1008091F0028532B5
:102EB00029F08091C100877F8093C1001092BD03EB
:102EC0000E94451F60937F0370938003809381036A
:102ED000909382032196E4E00C94C8220E94181378
:102EE0008091ED02823209F020CF1BCF80935004F5
:102EF00083E08093E2020E94C6068091BF0388238C
:102F000009F47FCF7CCFA1E0B0E0E9E8F7E10C94D1
:102F1000AE228091BF038230D9F480917E03805A23
:102F2000898380E2BE016F5F7F4F41E021E00E9414
:102F3000700D882369F08FEF8093BF030E94371FC5
:102F40006093C0037093C1038093C2039093C30343
:102F50002196E2E00C94CA22A1E0B0E0E2EBF7E1B6
:102F60000C94AE228091BF038230D1F480E2BE0186
:102F70006F5F7F4F41E021E00E94D40D882371F004
:102F80008FEF8093BF030E94371F6093C00370933D
:102F9000C1038093C2039093C30302C0898101C01F
:102FA0008FEF2196E2E00C94CA22A6E1B0E0EBEDAF
:102FB000F7E10C949E220E94A4008CE00E94C204BF
:102FC000882359F482E593E06EEC71E00E940321BE
:102FD00080E00E94C3050E94C6060E94451F5B0157
:102FE0006C010E94AC17182F7E010894E11CF11CA3
:102FF0000FEF8091E202843019F0153009F07EC1A4
:103000000E94451F3B014C018091E202843001F592
:103010008FE70E94A0048BEFE82E83E0F82E00E0FB
:1030200010E007C00E94B304D7018D937D010F5FAC
:103030001F4F8EEF92E00E948A0290E00817190756
:103040008CF30E94F504909396038093950329C016
:103050008EEF92E00E948A02482F4F5F80E2B70114
:1030600021E00E94D40D882369F00093BF030E94E1
:10307000371F6093C0037093C1038093C203909382
:10308000C303B7CF8EEF92E00E948A02482F6BEF06
:1030900073E09E012E5F3F4FCB01B90150E00E94CB
:1030A0000E2460927F03709280038092810390923D
:1030B00082031092BE038091970390919803880F2A
:1030C000991F8160909398038093970343982D9A5A
:1030D00080E00E9401144091FB03842F90E09C014A
:1030E0002E7330702115310599F5F89480912603DF
:1030F000877068E672E04CEF53E00E946C030E9418
:10310000A51278949091FB038091C50390FF1AC09B
:10311000882309F07BC0ADE9B3E080E090E0FC01DA
:10312000EE0FFF1FE859FD4F208131812D933D9314
:1031300001968031910599F70E94190281E08093F0
:10314000C50364C0882309F461C01092C5035EC042
:10315000887390708833910509F058C080911004ED
:10316000482747FF53C08058809310048091F00295
:10317000853209F04BC000E03EC00F5FE02FF0E069
:10318000E550FC4F108182E593E0612F0E949C1C6A
:1031900083E793E0612F0E94340B882361F18091D3
:1031A0006F0390917003A0917103B0917203A60117
:1031B0009501281B390B4A0B5B0BDA01C901813AD7
:1031C00036E8930731E0A30730E0B307A0F0409161
:1031D000940320917C0330917D0382E593E060E0CD
:1031E00050E00E949B0AA0926F03B0927003C092BD
:1031F0007103D0927203202F30E08091FB0390E0A6
:1032000087709070821793070CF0B7CF8091BD0341
:10321000882319F481E08093BD0310929C031092DF
:103220009A0310929B0380912603887109F45DC074
:10323000809110049091FB03982796FD23C0807C19
:1032400090E489278093100410E0212F30E08091D2
:10325000270390E00197281739070CF097C282E501
:1032600093E00E941A1C009709F490C21F5F612F1F
:1032700070E0605F7B4F82E593E041E050E00E94A8
:103280000222E3CF80E194E0609127030E94C80806
:103290000E942F098823E1F3E4EEEE2EE2E0FE2EF9
:1032A0000DE812E0D701ED917D01F0E0CF01807FC4
:1032B00090708031910591F4EF70F070EE0FFF1F68
:1032C000E859FD4F8081918161E08F3F910509F0C0
:1032D00008F460E0F80180810E9447200F5F1F4FD3
:1032E000F1EFEF16F2E0FF06E9F683E08093E202E9
:1032F0000E94A30681E08093C4032D980E94451F7D
:103300001B012C010E94371F7B018C018091BE03A1
:10331000823008F064C0A0907F03B0908003C0901A
:103320008103D09082038091830390918403A091C4
:103330008503B09186038A159B05AC05BD0509F48C
:103340004EC08EEF92E00E940003A20191012A1963
:103350003B094C095D096C5D7540804090406217E7
:10336000730784079507D8F5A0928303B09284036E
:10337000C0928503D09286030E94F104282F809387
:1033800092038091900390919103820F911D9093ED
:1033900091038093900360918F036F5F60938F031D
:1033A0006930E8F070E00E944D22709391036093C1
:1033B00090039091930383E0989FC0011124860F9E
:1033C000971F9695879596958795809393030E946E
:1033D000BE12109291031092900310928F0380916D
:1033E000BD03D0905004882309F44CC1A090BE03C3
:1033F000AD1408F0D2C160907F037090800380907C
:103400008103909082038EEF92E00E940003A2015C
:103410009101261937094809590968517C4F8F4F86
:103420009F4F621773078407950708F0B6C1809114
:10343000970390919803880F991F90939803809316
:10344000970381E08093C403AA20C9F4E092870324
:10345000F09288030093890310938A0310928B03E0
:1034600010928C0310928D0310928E0380917C0336
:1034700090917D03019690937D0380937C03A394A8
:10348000A092BE038EEF92E00E940003660D771DAE
:10349000881D991D60937F0370938003809381033F
:1034A00090938203439A81E00E9401140E94BE120D
:1034B0002EC08EEF92E00E94000320917F03309196
:1034C0008003409181035091820342013101621ACD
:1034D000730A840A950A2A2D30E040E050E00E94E9
:1034E0002E22661577058805990588F410929803B1
:1034F0001092970381E08093C4030E94BE12209231
:103500007F03309280034092810350928203809126
:10351000BE03882309F4DEC08091FB02882379F181
:1035200090919C03992359F50E94E3012091870310
:10353000309188034091890350918A0357016801B3
:10354000A21AB30AC40AD50A6A157B058C059D0523
:10355000B0F481E080939C030E94F4128091F70202
:103560000E9413026E0D7F1D801F911F616060938A
:103570008B0370938C0380938D0390938E038091C3
:10358000FD028823E1F090919A039923C1F40E94EF
:10359000E301209187033091880340918903509182
:1035A0008A0357016801A21AB30AC40AD50A6A1528
:1035B0007B058C059D0518F481E080939A0380912A
:1035C000FC028823E1F090919B039923C1F40E94AF
:1035D000E301209187033091880340918903509142
:1035E0008A0357016801A21AB30AC40AD50A6A15E8
:1035F0007B058C059D0518F481E080939B038091E9
:10360000F3029091F402A091F502B091F6020097B6
:10361000A105B10509F45EC080918B0390918C03E4
:10362000A0918D03B0918E030097A105B10509F417
:1036300051C0E81AF90A0A0B1B0B17FD4BC0609129
:10364000F80270E080E090E028EE33E040E050E0E7
:103650000E942E226E157F0580079107D8F50E94E3
:10366000900980E00E94C3050E94A3060E94371FB4
:10367000616060938B0370938C0380938D039093B0
:103680008E0328C08EEF92E00E94000320917F03FA
:103690003091800340918103509182038201710136
:1036A000E21AF30A040B150B2D2D30E040E050E038
:1036B0000E942E226E157F058007910758F42092F4
:1036C0007F0330928003409281035092820381E015
:1036D0008093C40380919B038823B1F48091F0020E
:1036E000883219F40E943A0E0FC0893239F4809161
:1036F0009C036091BE030E94990E06C08A3221F499
:1037000080919C030E94A6108091C4038823B9F085
:10371000E0917E03EF5FE0937E03E83131F0F0E06B
:10372000E250FD4F8785882311F410927E0380912B
:103730007E030E94DB040E9483171092C4038091D1
:10374000BF038F3F71F50E94371F2091C003309156
:10375000C1034091C2035091C303621B730B840BDE
:10376000950B693E23E0720720E0820720E0920774
:10377000C0F00E94371F6093C0037093C103809311
:10378000C2039093C3030E94E0150BC01F73809186
:103790001004182B1093100475CDAD1409F0B7CE9A
:1037A00088CE6696E2E10C94BA228F92AF92CF92C5
:1037B000EF92FF920F931F9382E593E060E045EC58
:1037C00050E024EC30E000EC10E0F1ECEF2EF12CB6
:1037D000CC24C394E8E9AE2E70E2872E0E94E61C4A
:1037E0001092730310927403109275031092760373
:1037F00010927703109279031092780310927A0353
:1038000010927B031F910F91FF90EF90CF90AF909C
:103810008F9008950F931F93DC01ED91FC91028826
:10382000F389E02D20E030E000E010E009951F91E1
:103830000F910895FC01838D882371F00788F08D26
:10384000E02D2081318182819381281B390B868173
:1038500097812823392302C02FEF3FEFC901089534
:10386000FC01838D882391F0018CF28DE02D208165
:10387000318182819381281B390B20953095868177
:103880009781282339232F5F3F4F02C02FEF3FEF4F
:10389000C9010895FC01838D882351F00788F08DBC
:1038A000E02D20813181828193812817390721F40D
:1038B0002FEF3FEFC901089582819381A085B185E3
:1038C000A80FB91F2C91828193810196468157815F
:1038D000842395239383828330E0ECCFFC01838D96
:1038E000882351F00788F08DE02D2081318182817D
:1038F00093812817390721F42FEF3FEFC90108956D
:10390000828193810084F185E02DE80FF91F2081E9
:1039100030E0F4CFFC01A789B08D12968D919C9177
:10392000139711969C938E93018CF28DE02D8081DC
:103930009181938382830895FC01838D8823A9F16B
:10394000A18DB28D8D919C911197019616962D9116
:103950003C91179782239323248D222339F01296CA
:103960002D913C91139782179307F9F012962D91A0
:103970003C91139782179307C9F32D913C911197AE
:1039800018960D90BC91A02DA20FB31F6C93A18D22
:10399000B28D11969C938E93A289B3898C9196894E
:1039A000892B8C9321E030E002C020E030E0C90197
:1039B000089521E030E002C0220F331F8A95E2F71C
:1039C00080917C04822B80937C0408956F927F9277
:1039D0008F92AF92CF92EF92FF920F931F93DF934C
:1039E000CF93CDB7DEB73C01862FFA01D3011396F2
:1039F0001C921E92129748EE53E060E070E014961D
:103A00004D935D936D937C9317974DEC52E0119617
:103A10005C934E931D96FC93EE931C971F963C93DC
:103A20002E931E9751961C930E9350975396FC928B
:103A3000EE9252975496CC9254975596AC925597D5
:103A400056968C925697482F50E09A01220F331FBA
:103A500073E0440F551F7A95E1F7240F351F28595D
:103A60003B4F58963C932E935797482F50E09A011E
:103A7000220F331F93E0440F551F9A95E1F7240F4F
:103A8000351F2E583B4F5A963C932E9359970E94C0
:103A9000D91CC30140E051EE60E070E00E940A1CB6
:103AA000CF91DF911F910F91FF90EF90CF90AF904A
:103AB0008F907F906F9008950F931F93CF93DF9314
:103AC000EC011B821A828A819B8199838883E1E0C1
:103AD00021E030E001C0EF5FA9010E2E02C0440FCB
:103AE000551F0A94E2F7862F972FF2E081309F0747
:103AF00010F080E092E04817590768F301E010E009
:103B000002C0000F111FEA95E2F7015010408885AE
:103B10009985009739F02E813F812017310789F070
:103B20000E9475231F830E83C80101960E94DB2229
:103B30009C019987888781E02115310519F480E07F
:103B400001C081E0DF91CF911F910F910895A0E016
:103B5000B0E0EDEAFDE10C94A622EC015A016B0104
:103B600079018B8D8823D1F02115310539F4EF8946
:103B7000F88DE680F7800894E11CF11C0115110511
:103B800031F4E98DFA8D068117810F5F1F4FE881AF
:103B9000F9810088F189E02DCE0109958F89988DF2
:103BA000E114F10419F4F0E8EF2EF12CB7010E94B2
:103BB0005C1D882361F0898D9A8D0115110511F422
:103BC00000E110E0B8010E945C1D8823F1F5E88156
:103BD000F9810088F189E02DCE01099553C0E8896B
:103BE000F98980E0A81681EEB80680E0C80680E07A
:103BF000D80609F443C081E090E00C8802C0880F29
:103C0000991F0A94E2F7808360E079E08DE390E009
:103C1000A60195010E94832221503040404050402F
:103C2000CA01B90122E030E040E050E00E94832266
:103C3000EC85FD853083EE85FF852083EA89FB894D
:103C400080819D89892B80831DC0E98DFA8D138227
:103C500012828281938191838083EF89F88D138210
:103C60001282828193819183808381E08B8F1A14E9
:103C70001B041C041D040CF4B2CFE0CF108220E121
:103C800030E0D6CFCDB7DEB7EAE00C94C222CF93B6
:103C9000DF93EC011B821A828A819B81998388833E
:103CA0001F821E8288859985009721F00E947523C6
:103CB00019861886DF91CF910895CF93DF93EC0199
:103CC000EA89FB8990818E892D89822B80958923B1
:103CD00080838F89988D0E94471E898D9A8D0E94BE
:103CE000471E1B8EDF91CF9108958230E8F4E82FB4
:103CF000F0E0EE0FFF1FE358FB4F718360838130CC
:103D000041F0809169008C7F842B80936900E89A50
:103D1000089580916900440F551F440F551F837FFC
:103D2000842B80936900E99A08951F920F920FB631
:103D30000F9211242F933F934F935F936F937F9331
:103D40008F939F93AF93BF93EF93FF9380917D04E5
:103D500090917E04009729F0E0917D04F0917E041B
:103D60000995FF91EF91BF91AF919F918F917F91B5
:103D70006F915F914F913F912F910F900FBE0F90D8
:103D80001F9018951F920F920FB60F9211242F9328
:103D90003F934F935F936F937F938F939F93AF93D3
:103DA000BF93EF93FF9380917F04909180040097DD
:103DB00029F0E0917F04F09180040995FF91EF9143
:103DC000BF91AF919F918F917F916F915F914F9133
:103DD0003F912F910F900FBE0F901F9018951F923B
:103DE0000F920FB60F9211242F933F938F939F93AF
:103DF000AF93BF938091850490918604A09187042E
:103E0000B0918804309189040196A11DB11D232F22
:103E10002D5F2D3720F02D570196A11DB11D209348
:103E200089048093850490938604A0938704B093BB
:103E300088048091810490918204A0918304B091C0
:103E400084040196A11DB11D809381049093820486
:103E5000A0938304B0938404BF91AF919F918F91FD
:103E60003F912F910F900FBE0F901F9018958FB715
:103E7000F8942091850430918604409187045091F4
:103E800088048FBFB901CA0108959FB7F8942091A3
:103E9000810430918204409183045091840486B55A
:103EA000A89B06C08F3F21F02F5F3F4F4F4F5F4FC2
:103EB0009FBF542F432F322F2227280F311D411D22
:103EC000511D82E0220F331F441F551F8A95D1F7E1
:103ED000B901CA010895EF92FF920F931F93CF93F8
:103EE000DF937B018C010E94451FEB010FC00E94F4
:103EF000451F6C1B7D0B83E0683E780738F0089403
:103F0000E108F10801091109C851DC4FE114F1047D
:103F10000105110561F7CDB7DEB7E6E00C94C622C6
:103F2000019739F0880F991F880F991F0297019701
:103F3000F1F70895789484B5826084BD84B581607A
:103F400084BD85B5826085BD85B5816085BDEEE6A1
:103F5000F0E0808181608083E1E8F0E01082808180
:103F600082608083808181608083E0E8F0E08081EE
:103F700081608083E1EBF0E0808184608083E0EB0E
:103F8000F0E0808181608083EAE7F0E080818460F6
:103F90008083808182608083808181608083808152
:103FA000806880831092C1000895833071F084305E
:103FB00028F48130A1F0823021F514C08630B1F0B0
:103FC0008730D1F08430E9F404C0809180008F778D
:103FD00003C0809180008F7D80938000089584B518
:103FE0008F7702C084B58F7D84BD08958091B00025
:103FF0008F778093B00008958091B0008F7D80937B
:10400000B0000895EF92FF92CF93DF9390E0FC0110
:10401000E455FF4F449188569F4FFC0184918823BB
:1040200089F190E0880F991FFC01E658FF4F259118
:104030003491D9018C579F4FFC0125913491E22E88
:10404000E7017E01F32EE701662349F49FB7F89458
:104050008C91409584238C93888184230BC062309B
:1040600059F49FB7F8948C91242F209582238C9338
:104070008881842B888305C09FB7F8948C91842B0A
:104080008C939FBFDF91CF91FF90EF900895A1E0B7
:10409000B0E0EDE4F0E20C94AC22282F30E0F9011E
:1040A000E054FF4F8491F901E455FF4F14912856D5
:1040B0003F4FF90104910023D9F0882321F069834F
:1040C0000E94D51F6981E02FF0E0EE0FFF1FEC5733
:1040D000FF4F85919491DC019FB7F894662321F4FA
:1040E0008C911095812302C08C91812B8C939FBF62
:1040F0002196E4E00C94C8220F931F93282F30E000
:10410000F901E054FF4F8491F901E455FF4F049108
:1041100028563F4FF9011491112391F0882311F093
:104120000E94D51FE12FF0E0EE0FFF1FE257FF4F77
:1041300085919491DC018C91802321E030E011F491
:1041400020E030E0C9011F910F910895A0E0B0E098
:10415000ECEAF0E20C94A8226C017B018A01C0E039
:10416000D0E00FC0D7016D917D01D601ED91FC919A
:104170000190F081E02DC6010995C80FD91F0150AB
:1041800010400115110571F7CE01CDB7DEB7E8E09B
:104190000C94C4226115710591F0DB010D90002093
:1041A000E9F7AD0141505040461B570BDC01ED9142
:1041B000FC910280F381E02D09959C0102C020E072
:1041C00030E0C90108950E94CA200895DC01ED91F4
:1041D000FC910190F081E02D099508950F931F93B4
:1041E000CF93DF93EC016DE00E94E6208C01CE01BD
:1041F0006AE00E94E620080F191FC801DF91CF91E5
:104200001F910F9108950F931F93CF93DF93EC01AC
:104210000E94E3208C01CE010E94EE20080F191F9E
:10422000C801DF91CF911F910F9108950F931F93B4
:10423000CF93DF93EC010E94E6208C01CE010E9417
:10424000EE20080F191FC801DF91CF911F910F9128
:104250000895A1E2B0E0EFE2F1E20C94A4226C0137
:10426000042FE52FCB01122F19A2223008F41AE0F7
:1042700021E2E22EF12CEC0EFD1E812E9924AA24BF
:10428000BB2403C0022FE32FCA01602F7E2FA5019C
:1042900094010E946122129F802D1124081B089412
:1042A000E108F1080A3010F4005D01C0095CF70173
:1042B0000083211531054105510521F7C601B701DC
:1042C0000E94CA20A196ECE00C94C0222115310571
:1042D00049F4DC01ED91FC910190F081E02D642F17
:1042E000099508950E94292108959A01AB0160E083
:1042F00070E00E94662108959A01462F50E060E028
:1043000070E00E9466210895A0E0B0E0EAE8F1E2E2
:104310000C94A822EC017A018B012115310541F49E
:10432000E881F9810190F081E02D642F09951AC090
:104330002A303105A9F477FF12C06DE20E94E62011
:104340006C0144275527BA014E195F09600B710BA8
:10435000CE012AE00E942921C80ED91E04C02AE0FD
:104360000E9429216C01C601CDB7DEB7E8E00C94AC
:10437000C4229A01FB01AF01662757FD6095762F95
:104380000E94842108950F931F93CF93DF93EC0134
:104390000E94B9218C01CE010E94EE20080F191F46
:1043A000C801DF91CF911F910F910895CF93DF93B3
:1043B000EC010E94371F688779878A879B87E8818D
:1043C000F9810680F781E02DCE0109959C0197FFC8
:1043D00015C00E94371F288539854A855B85621B79
:1043E000730B840B950B2C813D814E815F8162178D
:1043F00073078407950718F32FEF3FEFC901DF918B
:10440000CF910895A0E0B0E0E8E0F2E20C94A82299
:104410006C01EB017A0100E010E008C0C6010E94C7
:10442000D62197FD06C089930F5F1F4F0E151F05FC
:10443000A8F3C801CDB7DEB7E8E00C94C422CF934F
:10444000DF930E949A1F0E941B16C0E0D0E00E94DA
:10445000D5172097E1F30E940000F9CF629FD001A9
:10446000739FF001829FE00DF11D649FE00DF11D2F
:10447000929FF00D839FF00D749FF00D659FF00DDE
:104480009927729FB00DE11DF91F639FB00DE11DCB
:10449000F91FBD01CF0111240895AA1BBB1B51E1D7
:1044A00007C0AA1FBB1FA617B70710F0A61BB70BA4
:1044B000881F991F5A95A9F780959095BC01CD0149
:1044C0000895A1E21A2EAA1BBB1BFD010DC0AA1F55
:1044D000BB1FEE1FFF1FA217B307E407F50720F06D
:1044E000A21BB30BE40BF50B661F771F881F991FE8
:1044F0001A9469F760957095809590959B01AC0131
:10450000BD01CF01089597FB092E05260ED057FD5A
:1045100004D0D7DF0AD0001C38F450954095309570
:1045200021953F4F4F4F5F4F0895F6F79095809537
:10453000709561957F4F8F4F9F4F08952F923F92B7
:104540004F925F926F927F928F929F92AF92BF92A3
:10455000CF92DF92EF92FF920F931F93CF93DF934F
:10456000CDB7DEB7CA1BDB0B0FB6F894DEBF0FBEAC
:10457000CDBF09942A88398848885F846E847D84F9
:104580008C849B84AA84B984C884DF80EE80FD80FB
:104590000C811B81AA81B981CE0FD11D0FB6F89471
:1045A000DEBF0FBECDBFED010895EE0FFF1F0590DA
:1045B000F491E02D0994CF93DF938230910510F4AC
:1045C00082E090E0E0918C04F0918D0440E050E0B6
:1045D00020E030E026C06081718168177907E0F043
:1045E0006817790781F4828193812115310531F0B3
:1045F000D90113969C938E9312972BC090938D04A0
:1046000080938C0426C04115510519F06417750775
:1046100018F4AB01E901DF019F0172816381E72F8B
:10462000F62F3097C1F64115510501F1481B590B82
:104630004430510580F412968D919C9113972097E8
:1046400019F09B838A8304C090938D0480938C041B
:10465000FD01329646C0FD01E40FF51F8193919351
:104660004250504011965C934E933BC020918A0477
:1046700030918B042115310541F42091D8013091FE
:10468000D90130938B0420938A042091DA01309170
:10469000DB012115310541F42DB73EB74091D6011C
:1046A0005091D701241B350BE0918A04F0918B04C3
:1046B000E217F307A0F42E1B3F0B2817390778F0F9
:1046C000AC014E5F5F4F2417350748F04E0F5F1F58
:1046D00050938B0440938A048193919302C0E0E04D
:1046E000F0E0CF01DF91CF910895CF93DF93009752
:1046F00009F491C0FC0132971382128260918C04FC
:1047000070918D046115710581F420813181280F2C
:10471000391F80918A0490918B048217930799F531
:10472000F0938B04E0938A0476C0DB0180E090E094
:1047300002C0CD01D901AE17BF0748F412962D91E2
:104740003C91139721153105A1F7CD0121C0B38309
:10475000A283EF01499159919E01240F351FA217A1
:10476000B30779F42D913C911197240F351F2E5FDB
:104770003F4F3183208312962D913C9113973383C1
:104780002283009729F4F0938D04E0938C0443C0B6
:10479000DC011396FC93EE9312974D915D91A40F5B
:1047A000B51FEA17FB0769F420813181240F351FFB
:1047B0002E5F3F4FEC0139832883228133813B8375
:1047C0002A83E0E0F0E002C0FB01BC01DB011296AD
:1047D0008D919C9113970097B9F79B012E5F3F4FE6
:1047E0008D919C911197820F931F40918A04509153
:1047F0008B044817590779F4309729F410928D04E7
:1048000010928C0402C013821282225030403093E6
:104810008B0420938A04DF91CF910895FB01DC0182
:1048200002C001900D9241505040D8F70895F99977
:10483000FECF92BD81BDF89A992780B50895262FA5
:10484000F999FECF1FBA92BD81BD20BD0FB6F89475
:0E485000FA9AF99A0FBE01960895F894FFCFD8
:10485E007363616E6E6572206D6F646500545820CF
:10486E0074696D656F7574210057616974696E673F
:10487E002062696E640A00476F7420706B740A00C0
:10488E006461746120676F6F640A004F70656E4CCF
:10489E0052536E67205258207374617274696E673A
:1048AE002000206F6E2048572000454550524F4D36
:1048BE002064617461206E6F742076616C6964206F
:1048CE006F722062696E64206A756D7070657220F9
:1048DE007365742C20666F7263696E672062696EF1
:1048EE00640A0053617665642062696E64206461B7
:1048FE00746120746F20454550524F4D0A00492077
:10490E00616D20736C61766500456E746572696EBB
:10491E0067206E6F726D616C206D6F64650052580A
:10492E002068616E670020008E04000000210027C1
:10493E000520082B092209260A230A260B240C25FA
:10494E000C280C290C2AC01200001A400AA1204E75
:10495E00A5001B1E27522C23308025000005400A7F
:10496E00A1204EA50020244EA52C2330004B000084
:10497E0006400AD0009D49007B289D492C2330001B
:10498E00E1000005400A4501D7DC03B81E0EBF004A
:10499E00232E48E801008A400A6001555502AD1EDB
:1049AE0020000023C88025000005400AA1204EA546
:1049BE000020244EA52C233000020002000200022B
:1049CE0000020002000200020002000200020002C9
:1049DE0000020002000200028813409C0803050634
:1049EE000708090A0B0C1213000100000800002032
:1049FE0000004000008001000002000004000008DA
:104A0E000000100000001000002000000001000057
:104A1E000200070B0C10111500000000009C1CA6D4
:104A2E00201A1C4A1C6E1C8A1C301C0A1C5D1EA7F8
:024A3E001D0059
:00000001FF
