:100000000C946B000C948A1E0C94B71E0C949300F5
:100010000C9493000C9493000C9493000C94930014
:100020000C9493000C9493000C9493000C94930004
:100030000C9493000C94B9110C9493000C949300BD
:100040000C94E41E0C9493000C9401110C94461132
:100050000C9493000C9493000C9493000C949300D4
:100060000C94DB0B0C949300350B4E0B510B560B81
:100070005B0B600B650B710B7C0B00000000240018
:1000800027002A0000000000250028002B000000A7
:1000900000002300260029000404040404040404CE
:1000A0000202020202020303030303030102040823
:1000B00010204080010204081020010204081020D2
:1000C0000000000700020100000304060000000019
:1000D00000000000CA1B11241FBECFEFD8E0DEBF16
:1000E000CDBF12E0A0E0B1E0E8E4F8E402C0059082
:1000F0000D92A23DB107D9F714E0A2EDB2E001C024
:100100001D92AE37B107E1F710E0C6EDD0E004C0B4
:100110002297FE010E94CC22C43DD107C9F70E945C
:1001200014220C9422240C9400008091D20281307D
:1001300019F482E08093D2028091D202833019F4C4
:1001400084E08093D2020895A89508958CE060E041
:100150000E94F71F8BE061E00E94F71F8DE061E0D5
:100160000E94F71F82E060E00E94F71F84E061E0D8
:100170000E94F71F089580E065E970E042E050E0DA
:100180000E946A1E0895E3E0F0E089E08093570042
:10019000E491E67081E0E63009F080E008950F9385
:1001A0001F93182F0E94C300882389F00FB781E0A6
:1001B00080934304F8940E94A40088E18093600037
:1001C00010936000112311F00E94A4000FBF1F9133
:1001D0000F910895382F20E08091440490914504B8
:1001E0008227932760E041E250E19C01220F331FF8
:1001F00097FF04C0C9018427952701C0C9016F5F1B
:10020000683099F7909345048093440408950F93C0
:100210001F93082F17C05E9A64E670E080E090E0BC
:100220000E94601F5E9864E670E080E090E00E94AB
:10023000601F1F5F101778F36CE271E080E090E0C0
:100240000E94601F10E0F6CF0F931F93CF93DF93B0
:10025000EC01062F15E0115051F0CE010E940C2444
:10026000081741F0CE01602F0E941424F4CF82E0E1
:100270000E940701DF91CF911F910F910895A0E097
:10028000B0E0E5E4F1E00C949322682E762ECC24C5
:10029000DD24C0E0D0E0AA24BB2400E010E004C0CC
:1002A000CC24DD2477247394662031F0862D8130B0
:1002B00059F08230C1F410C0C0E0D0E0ABE1AA2E0A
:1002C000B12C03ED12E00FC0CDE1D0E0FAE2AF2E89
:1002D000B12C0EEE12E007C0C9E4D0E0E0E2AE2E91
:1002E000B12C0DE813E02E014C0C5D1C109245045E
:1002F00010924404E20117C07801E80CF91C772041
:1003000031F4CE010E940C24F701808305C0CE0198
:10031000F70160810E942401F801E80DF91D808138
:100320000E94EA002196CE018419882E99248A140D
:100330009B0410F3CE017E010894E11CF11C772090
:10034000A1F4CE010E940C24882EC7010E940C2427
:10035000382C222490E08229932920914404309162
:1003600045042817390759F49BCFE70160914504EC
:100370000E942401C701609144040E942401E0E02E
:10038000F1E0CE0EDF1EF1E0CF16F3E0DF0608F459
:100390008BCF872DCDB7DEB7E2E10C94AF2281E0A1
:1003A00060E00E943F01882339F081E09091EE02E5
:1003B000963319F080E0089580E0089581E061E0CF
:1003C0000E943F010895BC018436910518F480E035
:1003D00090E022C08E3B910548F46A55704080E061
:1003E00090E02AE030E040E050E014C0823D91050A
:1003F00048F4645B704080E090E024E630E040E048
:1004000050E008C06D5C704080E090E028E532E08C
:1004100040E050E00E94232224E630E040E050E03B
:100420000E942322089590E08C599F4F0E94E3017F
:10043000089582E061E00E943F01089582E060E05B
:100440000E943F01882331F48FEF9FEF90938E033A
:1004500080938D03089592E09093D3021092D4027A
:1004600021E02093D5029093D60223E02093D70277
:1004700024E02093D80225E02093D90224E220939F
:10048000DA0225E22093DB029093E1029FEF909342
:10049000E2029AE09093EB021092EC021092ED02CD
:1004A0001092E3021092E4021092E5021092E6022A
:1004B0002EE12093E7029093E80228EB3BE0309393
:1004C000EA022093E902882361F080E061E00E9463
:1004D0003F018FEF9FEF90938E0380938D030E94D7
:1004E0001902089580E060E00E943F01882319F41A
:1004F00081E00E942B020895DC019896EC91989778
:10050000F0E0E770F070EF54FD4F808108951F9385
:10051000CF93DF93EC0170E0CB018270907060FFAD
:100520001AC0009731F08091AF0388831092420483
:1005300044C0109142048EEE92E00E947C02181793
:10054000D0F5E12FF0E0E551FC4F808188831F5FFB
:100550001093420432C00097C1F088818093410417
:1005600010924204982F907E903651F48091AF0300
:10057000823008F188818F7180936E0383E019C007
:100580008E3FD9F41092AF0316C0809141048F3F83
:10059000A1F4809142048A3270F4E82FF0E0E25135
:1005A000FD4F988190838F5F809342048A3229F4B3
:1005B00081E08093AF0380E001C081E0DF91CF91C3
:1005C0001F910895FC0120A530E0C9018170907051
:1005D00001962770307035952795820F931F880FED
:1005E000880F0895A0E0B0E0E8EFF2E00C949B22C1
:1005F000EC010E947C024FA150E023E130E0429FD9
:10060000F001439FF00D529FF00D1124E650FE4F74
:10061000A080B180C280D38090E00F969C01B90188
:10062000882777FD8095982F20E43FE14DE750E043
:100630000E942322A60195010E94562279018A0177
:1006400080ED97E0A0E0B0E0E80EF91E0A1F1B1F46
:1006500088A58871D1F069A570E0615F7F4F882718
:1006600077FD8095982F20E43FE14DE750E00E9410
:100670002322A60195010E94562228513C4F4F4F3C
:100680005F4FE20EF31E041F151FC801B701695129
:100690007C4F8F4F9F4F28EE33E040E050E00E94A8
:1006A0005622B901CA0128EE33E040E050E00E9432
:1006B0002322CDB7DEB7EAE00C94B722FB01DA01C2
:1006C000482F469590E014962C91149730E02370B3
:1006D0003070322F22275C91250F311D318320830A
:1006E00014962C91149730E02C70307056E0220F45
:1006F000331F5A95E1F711965C911197250F311D23
:100700003383228314962C91149730E02073307039
:1007100074E0220F331F7A95E1F712965C911297DD
:10072000250F311D3583248314962C91149730E0C6
:10073000207C3070220F331F220F331F13965C91E1
:100740001397250F311D37832683159638969F5FA3
:10075000491708F0B8CF80FF47C04C9142954695A5
:100760004695437050E02DE431E0429FC001439F25
:10077000900D529F900D11240C96918380838C9143
:1007800090E054E0969587955A95E1F783709070C4
:10079000829FA001839F500D929F500D1124445FB2
:1007A0005F4F538342838C9190E096958795969501
:1007B000879583709070829FA001839F500D929FB8
:1007C000500D1124445F5F4F558344834C9150E09A
:1007D00043705070429FC001439F900D529F900DF7
:1007E00011240C969783868308959C0183E0203220
:1007F000380708F183E0283E380740F42F51334092
:10080000E4E036952795EA95E1F71AC087E0203DA8
:10081000380718F42C5D334013C088E028393807B6
:1008200068F4285C374074E0369527957A95E1F7AF
:100830002D503C4F05C020E030E002C02FEF33E0E8
:10084000C90108959C018C30910540F4A4E0220F69
:10085000331FAA95E1F7285D3C4F15C083E0243F84
:10086000380718F424523C4F0EC084E0203038077B
:1008700040F42657334FF4E0220F331FFA95E1F787
:1008800002C020E938E0C90108959C0136952795FA
:1008900025753575821B930B9C01237333739695D5
:1008A00087959695879583739373820F931F9C0109
:1008B000B4E036952795BA95E1F7280F391F2F70C8
:1008C0003F7041E051E0249FC001259F900D349F6F
:1008D000900D1124892F0895882321F02D98000070
:1008E0002B9A03C02D9800002B9800002D9A000031
:1008F00008952D9A000093B12D98000081E094FF97
:1009000080E008950F931F93082F5C9A2D985C98B0
:1009100018E0802F80780E946C04000F1150C9F7F6
:100920002D981F910F9108958F770E94820408954A
:100930000F931F93082F18E0802F80780E946C047B
:10094000000F1150C9F72D981F910F9108950F9323
:100950001F932D9818E080E0082F000F0E94790463
:10096000800F1150C9F71F910F9108950E949404B0
:100970000E94A7045C9A0895A1E0B0E0E2ECF4E0E4
:100980000C94A322806869830E9482046981862F67
:100990000E9498045C9A2196E2E00C94BF221F9377
:1009A0001091F7021827EEEEF2E0E80FF11D89E74B
:1009B00067850E94BC048DE3612F0E94BC0482E421
:1009C000612F0E94BC041F91089586E20E94B60424
:1009D00008951F938BE20E94B604182F8CE20E94A8
:1009E000B604282F30E076E0369527957A95E1F722
:1009F000812F90E0880F991F880F991F282B392B82
:100A0000C9011F910895CF93DF93EC018CE16C81B4
:100A10000E94BC048DE16D810E94BC048EE16E8158
:100A20000E94BC0480E26F810E94BC0481E2688560
:100A30000E94BC0482E269850E94BC0483E26A854C
:100A40000E94BC0484E26B850E94BC0485E26C8534
:100A50000E94BC048AE26D850E94BC048EE66E850D
:100A60000E94BC048FE66F850E94BC0480E7688901
:100A70000E94BC0481E769890E94BC0482E76A89FC
:100A80000E94BC04DF91CF910895A1E0B0E0EBE4B7
:100A9000F5E00C949D227B018C01603048E37407E3
:100AA0004CE984074CE1940748F520E836E948E929
:100AB00050E00E945622B8EECB2EBFEFDB2EC20EC6
:100AC000D31EB90180E090E020E839E647E65FEF09
:100AD0000E9423226E0D7F1D801F911FA2E0660FD2
:100AE000771F881F991FAA95D1F721E732E040E0D0
:100AF00050E00E945622E32E80E425C020E03DE233
:100B000041E351E00E945622F8EECF2EFFEFDF2E98
:100B1000C20ED31EB90180E090E020E033ED4EEC30
:100B20005EEF0E9423226E0D7F1D801F911F660FB6
:100B3000771F881F991F21E732E040E050E00E94B4
:100B40005622E32E80E66C2D6F71680F85E72983AE
:100B50000E94BC0486E76E2D0E94BC0487E72981B1
:100B6000622F0E94BC042196E8E00C94B9228F9277
:100B70009F92AF92BF92CF92DF92EF92FF920F932C
:100B80001F93982E83E00E94B6048093180384E09C
:100B90000E94B6048093190386E060E00E94BC04C2
:100BA00087E061E00E94BC0489E06FE70E94BC041A
:100BB0008AE065E00E94BC048BE062E10E94BC0414
:100BC0008CE065E10E94BC048DE06DEF0E94BC04E6
:100BD0008EE060E00E94BC04992019F089E592E063
:100BE0000FC08091150390E043E150E0849F900195
:100BF000859F300D949F300D1124C90186509E4F62
:100C00000E94030580E36CE80E94BC0482E36FE06D
:100C10000E94BC0483E362E40E94BC0484E36AE0B3
:100C20000E94BC0485E36AE20E94BC0486E36DE294
:100C30000E94BC0487E364ED0E94BC0488E360E08A
:100C40000E94BC0489E360E00E94BC04992049F43E
:100C5000A090F702B090F802C090F902D090FA028A
:100C600008C095E7A92E91ECB92E91ECC92E9EED06
:100C7000D92E8AE3882EED2CFF2400271127882DFA
:100C80006E2D0E94BC04882D8B5F6E2D0E94BC04CB
:100C9000DC2CCB2CBA2CAA248394882D8E3359F7C4
:100CA00083E46FEF0E94BC0484E46FEF0E94BC04F5
:100CB00085E46FEF0E94BC0486E46FEF0E94BC04E1
:100CC000992019F08DE666E003C08DE66091FB0285
:100CD0000E94BC0489E760E00E94BC048AE760913E
:100CE000FC020E94BC0483E760E00E94BC0484E72D
:100CF00060E00E94BC04992049F46091F302709175
:100D0000F4028091F5029091F60204C060EC72E961
:100D10008DEE99E10E9445051F910F91FF90EF9094
:100D2000DF90CF90BF90AF909F908F90089587E015
:100D300061E00E94BC048EE764E20E94BC0488E08B
:100D400063E00E94BC0488E060E00E94BC0487E08D
:100D500065E00E94BC0485E062E00E94BC0483E080
:100D60000E94B6048093180384E00E94B604809326
:100D70001903089583E00E94B6048093180384E069
:100D80000E94B6048093190387E061E00E94BC04CE
:100D90006AE070E080E090E00E94601F0E94970689
:100DA00000000895A2E2B0E0E8EDF6E00C94932292
:100DB0001E010894211C311C80E1D1011D928A95ED
:100DC000E9F782E493E060E071E00E94F8200E947D
:100DD000BA061E8A1F8A188E198E00E01D8A10E03E
:100DE00088249924540140E4442E41EE542E4DE9C8
:100DF000642E48E1742E30E5C32E33ECD32EE12C63
:100E0000F12C24EF31E040E050E02E8F3F8F48A3DB
:100E100059A380EC91EDA8E9BBE18A8F9B8FAC8F41
:100E2000BD8F20E431EE4DE958E1298B3A8B4B8B95
:100E30005C8BFAC082E493E00E943F1C843461F032
:100E4000853430F4833261F18C3209F0C0C039C08E
:100E5000833509F0BCC0E1C082E493E064E40E9401
:100E6000DB2082E493E040E451EE6DE978E12AE092
:100E700030E00E94792182E493E06CE20E94DB2062
:100E800082E493E040EC51ED68E97BE12AE030E058
:100E90000E94792182E493E06CE20E940B21C4C09D
:100EA00019821A821B821C821D821E821F82188652
:100EB00019861A861B861C861D861E861F86188A22
:100EC00039C01F5F143009F0AFC069817A818B810E
:100ED0009C8128EE33E040E050E00E942322698BA1
:100EE0007A8B8B8B9C8B6D817E818F8198850E9404
:100EF00023226A8F7B8F8C8F9D8F89859A85AB8506
:100F0000BC858E8F9F8FA8A3B9A36D857E858F85A5
:100F100098890E9423226B017C0190E2C9169EE40D
:100F2000D90690E0E90690E0F90630F48CE162E33E
:100F30000E94BC0410E078C0A0E3CA16A5E7DA0658
:100F4000A0E0EA06A0E0FA0618F48CE162E2F0CF35
:100F5000B0E4CB16BCE9DB06B0E0EB06B0E0FB0684
:100F600018F48CE166E2E4CFE0E5CE16E3ECDE06B1
:100F7000E0E0EE06E0E0FE0618F48CE162E1D8CF96
:100F8000F0E6CF16FAEEDF06F0E0EF06F0E0FF063F
:100F900018F48CE165E1CCCF20E7C21621E1D2063E
:100FA00021E0E20620E0F20618F48CE161E0C0CF17
:100FB00030EAC31636E8D30631E0E30630E0F30644
:100FC00018F48CE163E0B4CF8CE165E0B1CF8053DD
:100FD0008AA38A3048F5212E3324220C331C220C9C
:100FE000331C41E050E04C0F5D1F240E351ED10133
:100FF0006D917D918D919C912AE030E040E050E030
:101000000E942322BAA16B0F711D811D911DF10158
:10101000608371838283938307C049885A886B8871
:101020007C8888249924540182E493E00E940F1C58
:10103000009709F0FFCE81149104A104B10489F452
:10104000C301B2010E94450561E070E080E090E0DC
:101050000E94601F1E8A1F8A188E198E00E0FFEF03
:10106000FD8B2E8D3F8D48A159A182169306A406B3
:10107000B506D8F40E94E5042E893F89488D598D24
:10108000280F311D411D511D2E8B3F8B488F598FCD
:10109000081708F4082F3D89831708F48D8B0894EE
:1010A000811C911CA11CB11C56C0C301B20128EEC9
:1010B00033E040E050E00E94562282E493E0BA011F
:1010C000A9012AE030E00E945B2182E493E06CE217
:1010D0000E94DB2082E493E0602F4AE050E00E940F
:1010E000712182E493E06CE20E94DB206E897F89AB
:1010F000888D998DA50194010E94562282E493E087
:10110000BA01A9012AE030E00E945B2182E493E069
:101110006CE20E94DB2082E493E06D894AE050E0BB
:101120000E94712182E493E06CE20E940B214C0C3E
:101130005D1C6E1C7F1C8A8D9B8DAC8DBD8D8415B6
:101140009505A605B70520F449885A886B887C88E0
:1011500088249924540129893A894B895C89283E3D
:1011600083E0380780E0480780E0580709F05CCF4B
:10117000A296E2E10C94AF22A1E0B0E0E2ECF8E04C
:101180000C949F22182F062F8EE399830E94BC0493
:101190009981612F792F7B0106C0F70161917F0151
:1011A0008FE70E94BC048E2D811B8017B0F385E071
:1011B00064E00E94BC0483E00E94B604809318039C
:1011C00084E00E94B604809319030E943A1F609342
:1011D0001A0370931B0380931C0390931D0387E0F5
:1011E00069E00E94BC0481E08093D2022196E6E08F
:1011F0000C94BB220E94BC088091D2028130F1F491
:101200000E943A1F20911A0330911B0340911C0346
:1012100050911D03621B730B840B950B603A26E8FB
:10122000720721E0820720E0920730F307C082E4D2
:1012300093E06DE071E00E94F82008958091D20261
:101240008130A9F308958091D2028130C1F40E94C7
:101250003A1F20911A0330911B0340911C035091B7
:101260001D03621B730B840B950B613A26E8720712
:1012700021E0820720E0920720F082E0089581E0DB
:10128000089580E00895A0E0B0E0E9E4F9E00C946E
:101290009D228B019C01442737FD4095542F60E22D
:1012A00071EA87E090E00E947822E9011C161D0691
:1012B00014F0C1E0D0E0B801882777FD8095982F21
:1012C00020E231EA47E050E00E9423229E014427B9
:1012D00037FD4095542F0E947822790100E010E0FC
:1012E0000BC02B9A6E01CE010E94851F2B98CE0158
:1012F0000E94851F0F5F1F4F0E151F0594F3CDB77A
:10130000DEB7E8E00C94B9225D9A83E00E94B6044F
:101310008093180384E00E94B6048093190386E04A
:1013200060E00E94BC0487E061E00E94BC0489E0A8
:101330006FE70E94BC048AE065E00E94BC048BE079
:1013400062E10E94BC048CE065E10E94BC048DE077
:101350006DEF0E94BC048EE060E00E94BC0480E758
:101360006CE20E94BC0480E360E00E94BC0489E758
:1013700060E00E94BC048AE765E00E94BC0481E74B
:1013800062E10E94BC0482E762E00E94BC0483E741
:1013900060E00E94BC0484E760E00E94BC046091AD
:1013A000E3027091E4028091E5029091E6020E94CE
:1013B00045058DE667E00E94BC046AE070E080E0CD
:1013C00090E00E94601F87E069E00E94BC046AE030
:1013D00070E080E090E00E94601F88E891E061E0AA
:1013E00070E00E9443090E94A4008DE665E00E941F
:1013F000BC046AE070E080E090E00E94601F88EB2F
:1014000091E061E070E00E9443090E94A4008DE633
:1014100064E00E94BC046AE070E080E090E00E941A
:10142000601F8DE591E061E070E00E9443090E9439
:10143000A4008DE662E00E94BC046AE070E080E0F7
:1014400090E00E94601F8FEA90E061E070E00E94EF
:1014500043090E94A4008DE660E00E94BC046AE09B
:1014600070E080E090E00E94601F85E091E062E023
:1014700070E00E9443090E94A40087E061E00E949E
:10148000BC045D9808950F931F93CF93DF938C0155
:10149000C2E4D3E0CE01612F70E04AE050E00E9448
:1014A0006A21CE016EE20E94DB20B80154E07695FD
:1014B00067955A95E1F76F707070CE014AE050E081
:1014C0000E946A21CE016EE20E94DB20B8016F709B
:1014D0007070CE014AE050E00E946A21DF91CF9106
:1014E0001F910F91089582E493E00E940F1C20E069
:1014F00031E0281B390B73E0369527957A95E1F793
:1015000044E650E0249FC001259F900D349F900D2C
:10151000112465E0969587956A95E1F70895AF9255
:10152000BF92DF92EF92FF920F931F93DF93CF93BF
:1015300000D0CDB7DEB75C018EEF8093460489E022
:101540008093470480915704809348048F5F809371
:10155000570483E38093490484E480934A0486EA31
:1015600080934B040CE414E030934D0420934C041E
:10157000D80113961C921E9212974A8369830E9487
:10158000730AF80186834A814483698165831782DF
:1015900010868091470457E0D52ED80EE82EFF2400
:1015A000B7016A5F7F4FFB01EA5BFB4F85E18083F8
:1015B000F801359701E08FEF9FEF1DC0319138277B
:1015C000232F2295207F232730E0522F4427D90153
:1015D00013E0AA0FBB1F1A95E1F74A275B27892F53
:1015E000992784279527A4E035952795AA95E1F7B3
:1015F000822793270F5F0D1508F36A5B7B4FDB0192
:101600008C93F701EA5BFB4F9783D501ED91FC9139
:101610000484F585E02DC50109958131910560F0BF
:10162000D501ED91FC910280F381E02DC50166E4C6
:1016300074E041E150E009950F900F90CF91DF9158
:101640001F910F91FF90EF90DF90BF90AF900895A2
:10165000DC011896EC911897F0E0E930F10508F0FC
:101660005CC0EC5CFF4F0C94CA226E3F09F055C081
:101670001C9211961C92119712961C921297139617
:101680001C92139714961C92149716961C921E92F5
:10169000159717961C92179781E02AC06C9382E0E9
:1016A00027C011966C93119783E022C012966C9319
:1016B000129784E01DC013966C93139785E018C0B1
:1016C00014966C93149786E013C017968C91179715
:1016D0008F5F17968C9317979C91891700F187E07D
:1016E00007C015966C93159716961C92169788E06E
:1016F00018968C93189711C0362F20E015968D916F
:101700009C911697822B932B16969C938E931597EC
:1017100018961C92189781E0089580E0089580E063
:1017200008951F9311E0882309F410E082E1612FEE
:101730000E943C2083E1612F0E943C2010922303F1
:10174000109224038091B9008C6F8093B90080E2DD
:101750008093B80085E48093BC001F91089591E0C8
:10176000442309F490E0880F892B8093BA00660F18
:101770006093BD0030931F0320931E0308958823B8
:1017800011F085EC01C085E88093BC00089585EDDB
:101790008093BC008091BC0084FDFCCF089585EC53
:1017A0008093BC000895ECEBF0E0108285E4808328
:1017B0001092240308951F920F920FB60F921124D6
:1017C0002F933F934F935F936F937F938F939F9349
:1017D000AF93BF93EF93FF93DF93CF930F92CDB768
:1017E000DEB78091B90090E0887F907080369105D7
:1017F00009F4EEC081369105E4F58832910509F4CB
:101800007FC089329105C4F48031910509F473C019
:101810008131910544F4009709F413C18830910592
:1018200009F011C168C08831910509F469C080329E
:10183000910509F008C179C08034910509F492C07E
:10184000813491054CF48033910509F470C08833DC
:10185000910509F0F8C06DC08035910509F472C09A
:101860008835910509F484C08834910509F0EBC0EE
:10187000A6C08839910509F4DEC089399105ECF4D8
:101880008837910509F4A4C0893791054CF488364E
:10189000910509F49DC08037910509F0D4C098C026
:1018A0008838910509F4C7C08039910509F493C0BF
:1018B0008038910509F0C7C08EC0803B910509F4BE
:1018C000A7C0813B91054CF4803A910509F49BC077
:1018D000883A910509F0B7C09BC0803C910509F496
:1018E000ACC0883C910509F4A8C0883B910509F07B
:1018F000AAC080E08EC0809120038093BB009DC071
:1019000080912303982F915090932303882309F407
:101910003FC0E0912103F091220381918093BB00AD
:10192000F0932203E093210388C082E049C083E062
:1019300047C084E080932503809124038B7F8093AC
:10194000240363C08091BB00E0912103F091220346
:101950008193F0932203E09321038091230381502C
:101960008093230380912303823008F066C063C014
:101970008091BB00E0912103F09122038193F093C9
:101980002203E0932103809123038150809323035A
:10199000809124038B7F809324038091240380FF14
:1019A00050C0809124038E7F809324038091240370
:1019B00082608093240384EA8093BC0044C085E065
:1019C00080932503809124038B7F8093240339C067
:1019D0001092230332C0E0911E03F0911F03309751
:1019E00051F18091BB00898380912303982F9F5FE1
:1019F00090932303882311F462E001C060E0CE01DC
:101A0000019609951BC00E94C70B0E94CF0B1BC0FB
:101A100081E0E0911E03F0911F03309761F088236D
:101A200011F063E001C061E0CE0101960995998152
:101A30009093BB0003C080E001C081E00E94BF0B17
:101A400002C00E94C70B0F90CF91DF91FF91EF91E1
:101A5000BF91AF919F918F917F916F915F914F91C6
:101A60003F912F910F900FBE0F901F901895A0E0FF
:101A7000B0E0EDE3FDE00C949B22EC010E943A1FE4
:101A80007B018C015E01CC24DD2411C0209779F00C
:101A90000E943A1F6E197F09800B910BA616B7069C
:101AA000C806D90620F40E94D30B81E008C08091BB
:101AB000240382FDEBCF8091250310922503CDB73F
:101AC000DEB7EAE00C94B722AF92BF92DF92EF92BA
:101AD000FF920F931F93DF93CF930F92CDB7DEB793
:101AE000D82E5B01022F10E064E0E62EF12CE022FC
:101AF000F12222FD05C080918C0290918D0202C0DE
:101B000080E090E049830E94370D49818823A9F540
:101B10001092250340932303B0922203A092210345
:101B2000DD0CD09220032091240301FF02C095E038
:101B300001C094E0922B909324039091240391FF91
:101B40000BC0909124039D7F9093240390912003D8
:101B50009093BB0095EC01C095EE9093BC0000FF04
:101B60000CC0E114F10429F480918C0290918D0253
:101B700002C080E090E00E94370D0F90CF91DF917E
:101B80001F910F91FF90EF90DF90BF90AF9008955D
:101B9000AF92BF92DF92EF92FF920F931F93DF936A
:101BA000CF930F92CDB7DEB7D82E5B01022F10E096
:101BB00074E0E72EF12CE022F12222FD05C0809195
:101BC0008C0290918D0202C080E090E049830E94D7
:101BD000370D49818823B9F51092250340932303DB
:101BE000B0922203A09221039D2D990F91609093B2
:101BF00020032091240301FF02C095E001C094E07E
:101C0000922B909324039091240391FF0BC0909109
:101C100024039D7F90932403909120039093BB0015
:101C200095EC01C095EE9093BC0000FF0CC0E11450
:101C3000F10429F480918C0290918D0202C080E021
:101C400090E00E94370D0F90CF91DF911F910F917F
:101C5000FF90EF90DF90BF90AF900895EF92FF92CA
:101C60000F931F93CF93DF930E943A1F2091260377
:101C70003091270340912803509129037B018C0167
:101C8000E21AF30A040B150BA8019701213107E2B0
:101C9000300700E0400700E05007D0F120912A0310
:101CA000322F3F5F30932A0320FF02C017E001C0AC
:101CB00010E060932603709327038093280390938A
:101CC000290382E493E063E00E94911C82E493E0A4
:101CD00061E00E94911C012F095FC12FD0E0CC0F61
:101CE000DD1FC459DD4F88819981692F6370812F71
:101CF000880F880F682B82E493E00E94911C688112
:101D0000798182E493E00E94911C1F5F101729F7EC
:101D1000CDB7DEB7E6E00C94BB22A0E0B0E0E3E98B
:101D2000FEE00C949D22C82ED62E0E943A1F9B01E5
:101D3000AC018091260390912703A0912803B091D4
:101D4000290379018A01E81AF90A0A0B1B0B81E1C0
:101D5000E81687E2F80680E0080780E0180708F434
:101D6000D8C1209326033093270340932803509330
:101D7000290380916C0290916D02880F991F8093C6
:101D80002B03892F877020912C03287F282B2093E9
:101D90002C0380916E0290916F02880F991F382F4B
:101DA000330F330F330F2770232B20932C03382F3F
:101DB00032953695377020912D03207C892F8770BE
:101DC000880F880F880F232B282B20932D038091B9
:101DD000700290917102880F991F382F3295330F3E
:101DE000330F307C2F73232B20932D03392F329503
:101DF000330F330F307C282F26952695232B2093E5
:101E00002E03892F86958695817020912F032E7F32
:101E1000282B20932F038091720290917302880FD8
:101E2000991F382F330F2170232B20932F03382F26
:101E3000331F3327331F20913003207F892F877072
:101E4000880F232B282B20933003809174029091CC
:101E50007502880F991F382F3295307F2F70232BF2
:101E600020933003382F32953F7020913103207832
:101E7000892F87708295807F232B282B2093310315
:101E80008091760290917702880F991F2F77209387
:101E90003103392F379533273795282F2695232B54
:101EA00020933203892F86958370209133032C7FF2
:101EB000282B209333038091780290917902880F28
:101EC000991F382F330F330F2370232B20933303A5
:101ED000382F329536953695337020913403207E15
:101EE000892F8770880F880F232B282B209334038A
:101EF00080917A0290917B02880F991F382F32953A
:101F0000330F307E2F71232B20933403292F2295FA
:101F1000220F207E869586958695822B80933503A9
:101F200080917C0290917D02880F991F80933603E7
:101F3000892F877020913703287F282B2093370320
:101F400080917E0290917F02880F991F382F330F66
:101F5000330F330F2770232B20933703382F3295FD
:101F60003695377020913803207C892F8770880F31
:101F7000880F880F232B282B209338038091800211
:101F800090918102880F991F382F3295330F330FAC
:101F9000307C2F73232B20933803392F3295330F46
:101FA000330F307C282F26952695232B2093390339
:101FB000892F86958695817020913A032E7F282B54
:101FC00020933A038091820290918302880F991F97
:101FD000382F330F2170232B20933A03382F331FD0
:101FE0003327331F20913B03207F892F8770880F71
:101FF000232B282B20933B03809184029091850210
:10200000880F991F382F3295307F2F70232B209304
:102010003B03382F32953F7020913C032078892F65
:1020200087708295807F232B282B20933C038091FF
:10203000860290918702880F991F2F7720933C0387
:10204000392F379533273795282F2695232B209323
:102050003D03892F8695837020913E032C7F282B8A
:1020600020933E038091880290918902880F991FE6
:10207000382F330F330F2370232B20933E03382F39
:10208000329536953695337020913F03207E892F07
:102090008770880F880F232B282B20933F03809174
:1020A0008A0290918B02880F991F382F3295330F37
:1020B000307E2F71232B20933F03292F2295220F4F
:1020C000207E869586958695822B80934003CC2032
:1020D00011F088E001C080E0DD2011F094E001C043
:1020E00090E0892B8093410382E493E06FE00E94AB
:1020F000911CCBE2D3E0699182E493E00E94911CB1
:1021000083E0C234D807B9F782E493E060E00E942C
:10211000911CCDB7DEB7E8E00C94B9221F93182FBD
:1021200082E493E0612F0E94911C812F0E94EA00BB
:102130001F910895A0E0B0E0E0EAF0E10C949D2248
:10214000082F0E943A1F20912603309127034091C7
:102150002803509129036B017C01C21AD30AE40AB7
:10216000F50AA70196012131E7E23E07E0E04E07BC
:10217000E0E05E0708F440C06093260370932703F5
:1021800080932803909329031092450410924404ED
:1021900088EA0E948E10002311F081E801C081E0DE
:1021A0000E948E1080E10E948E10C0E0D0E0FE01FF
:1021B000EE0FFF1FE459FD4F808191810E942204A0
:1021C0008C0173E0000F111F7A95E1F7812F0E94B7
:1021D0008E10802F0E948E102196C031D10539F7C4
:1021E0006091450482E493E00E94911C82E493E0B4
:1021F000609144040E94911CCDB7DEB7E8E00C94D6
:10220000B9221F920F920FB60F9211242F933F9372
:102210004F938F939F93EF93FF934091C6008091CC
:10222000580490915904019620915E0430915F0406
:102230008223932320915A0430915B0482179307E1
:1022400081F02091580430915904E0916004F0919C
:102250006104E20FF31F4083909359048093580464
:1022600009C080915C0490915D04019690935D0497
:1022700080935C04FF91EF919F918F914F913F91DB
:102280002F910F900FBE0F901F9018951F920F92D5
:102290000FB60F9211242F933F938F939F93EF9339
:1022A000FF932091640430916504809162049091C1
:1022B000630428173907E9F080916404909165045C
:1022C000E0916A04F0916B04E80FF91F808180931C
:1022D000C600809164049091650401962091680481
:1022E000309169048223932390936504809364045E
:1022F00010C0209162043091630480916404909135
:1023000065042817390729F48091C1008F7D8093D7
:10231000C100FF91EF919F918F913F912F910F906D
:102320000FBE0F901F90189525B190E0FC01EE0FA5
:10233000FF1FE80FF91FEA54FC4F8081282B25B9B5
:1023400088B19181892B88B98BB19281892B8BB906
:10235000089585B19091E603892385B988B190915C
:10236000E703892388B98BB19091E80389238BB95E
:1023700008951F920F920FB60F9211241F932F935F
:102380003F934F935F936F937F938F939F93AF93FD
:10239000BF93CF93DF93EF93FF93109189038091C5
:1023A0009002C0918E02D0918F02181708F05AC087
:1023B0008091E9039091EA039093870080938600CF
:1023C000E12FF0E0EE0FFF1FE459FD4F8081918176
:1023D0000E942204880F991F9093EA038093E903D7
:1023E0008091E9039091EA03C81BD90BD0938F0227
:1023F000C0938E028091E9029091EA02880F991FA2
:10240000C817D90720F490938F0280938E02809191
:102410008B03882339F48091E10280FF5BC0183080
:1024200008F458C08FEF9FEF909389008093880045
:10243000809184009091850080329105C8F30E94BC
:10244000A91180918A03882339F480918903882314
:1024500019F081500E949411809189038F5F8093BD
:1024600089033FC08091E9039091EA03909387002C
:1024700080938600D093EA03C093E90380918B0395
:10248000882319F08FEF9FEF06C08091E9039091A8
:10249000EA0388559240909389008093880080E4F5
:1024A0009CE990938F0280938E028091840090919A
:1024B000850080329105C8F30E94A91180918A039A
:1024C000882329F48091900281500E9494111092E7
:1024D000890307C08091E9039091EA0388559240EF
:1024E000A3CFFF91EF91DF91CF91BF91AF919F91DA
:1024F0008F917F916F915F914F913F912F911F919C
:102500000F900FBE0F901F901895282F30E0220FCC
:10251000331F220F331F2C30310538F083E0253F65
:10252000380728F024EF33E002C02CE030E0C90186
:102530000895CF93DF938091E202803180F4F89484
:102540008091E202C82FD0E0809184030E9485121E
:10255000CC0FDD1FC459DD4F998388837894DF91B8
:10256000CF91089580918703909188039F770E946F
:1025700045048F3031F4809183038695869580548D
:1025800004C09DE0899F802D1124809384030E94C4
:1025900099128091D6028132D1F480918403982FD0
:1025A00091509E3F68F09091B0009F7D9093B00055
:1025B00061E0882309F460E083E00E943C200895F4
:1025C0008093B4008091B00080628093B000089541
:1025D00080918D0390918E032FEF8F3F9207D9F05A
:1025E000EDE8F3E080E090E02091E20230E0821735
:1025F000930761F0F89420813181DC01AA0FBB1FA1
:10260000A459BD4F11963C932E937894019632961F
:102610008031910549F70895A1E0B0E0E2E1F3E1EE
:102620000C949F228EEE92E00E94E2028093900230
:102630009091E202981719F49F5F90939002E6EB55
:10264000F3E0108211821282339623E0EE3CF2070F
:10265000C1F74FEF3FEF04ED12E0A9E9B2E07801D6
:102660002FEFF70181917F018031F0F490E06C91C0
:10267000FC01EE0FFF1FE80FF91FEA54FC4F8081A9
:10268000862B808311965C9111978181852B8183A4
:1026900012969C9112978281892B828360954623A2
:1026A00050953523909529231396FCEDEF16F2E013
:1026B000FF06B9F64093E6033093E7032093E8035F
:1026C000E1E9EE2EE2E0FE2E90E0F80181918F012B
:1026D000823240F08632D0F0863221F4F7018081D8
:1026E00060E010C0963021F48091C1008F7E05C05B
:1026F000973029F48091C100877F8093C100F70152
:10270000808161E099830E94F71F99819F5F0894FF
:10271000E11CF11C9830C9F68091D402803231F46A
:1027200089E061E00E943C2082E801C082E0809361
:10273000800081E080938A0380938B038091D6028E
:10274000813211F08732D9F483E061E00E94F71FF3
:1027500083E060E00E943C208091D602813231F417
:1027600081E08093B1008093B00009C082E0809343
:10277000B00085E08093B1008EE38093B3008AE1DE
:10278000809381008FEF9FEF909389008093880062
:1027900080ED97E0909387008093860080E49CE929
:1027A00090938F0280938E029093EA038093E903C3
:1027B0001092890380916F00816080936F008091F7
:1027C000E10283FF0EC080918D0390918E03FFEF95
:1027D0008F3F9F0731F00E94E81210928B031092F6
:1027E0008A032196E6E00C94BB221F93182F809158
:1027F000D9028B3221F48FE0612F0E943C2080911E
:10280000D602873259F4112321F08091B000806103
:1028100003C08091B0008F7E8093B0001F91089517
:10282000ABE2B0E0E6E1F4E10C9493227B018C0191
:102830000E942C1F6FA378A789A79AA781E00E9406
:10284000B70583E08093D2020E94BA0682E493E047
:1028500069E171E00E94F82093E0392E83E0482E70
:10286000512C4C0E5D1EB2E06B2E712C6C0E7D1E39
:10287000A0E52A2E4E010894811C911CE7C082E439
:1028800093E067E271E00E94F8208FE70E949404D1
:102890000E94A7048983823619F5FEEECF2EF2E05E
:1028A000DF2E0E94A704F60181936F01F8E1CF1695
:1028B000F3E0DF06B1F78091EE02863309F0C2C083
:1028C00082E493E060E371E00E94F82082E489836F
:1028D000CE01019661E00E94FA085D9A81E0D0C0C5
:1028E000803719F0893609F505C02A82EE24FF24C5
:1028F000870105C081E00E942B0229E42A83909180
:1029000043048091E102992311F0806801C08F7720
:102910008093E102F201A3EDB2E08BE10D90019210
:102920008150E1F7C3016CE18BC08437D1F434E509
:102930003A833B8244E64C8358E05D838FE08E838C
:10294000DE011796ECEDF1E08EE101900D928150E1
:10295000E1F7C30163E20E94FA08EE24FF24870135
:1029600071C08537A9F4E3EDCE2EE2E0DE2E0E94A1
:10297000A704F60181936F01FEEECF16F2E0DF06A9
:10298000B1F780E061E00E943F0125E5298356C050
:10299000863631F520918D0330918E034FEF2F3F16
:1029A0003407D1F056E45A837DE8A72E73E0B72EA2
:1029B0006201F501819191915F010E942204F6016B
:1029C0009083818322E030E0C20ED31E3DEAA3163D
:1029D00033E0B30671F701C08A83C30161E230C0FE
:1029E0008736F9F46DE8C62E63E0D62E0E94A70460
:1029F0008EA31DA20E94A7044DA15EA1480F511DE8
:102A0000CA010E94F503F601819391936F01FDEADB
:102A1000CF16F3E0DF0651F727E429830E9419025D
:102A20000DC0873479F44FEF5FEF50938E034093DE
:102A30008D038BA70E9419028BA58983C40161E0D5
:102A40000E94FA083092D2020E949706E114F10423
:102A50000105110579F00E942C1F2FA138A549A569
:102A60005AA5621B730B840B950B6E157F058007AF
:102A7000910728F48091D202843041F700CF80E0A2
:102A8000AB96E2E10C94AF22A1E0B0E0EAE4F5E11C
:102A90000C94A122182F062F61E00E94F71F812FAE
:102AA00061E00E943C20802F61E00E943C208AE08F
:102AB00090E00E94851F802F0E947120009769F08E
:102AC000812F60E00E943C208AE090E00E94851FF8
:102AD000802F0E947120009711F090E001C091E0DA
:102AE000812F60E099830E94F71F812F60E00E9490
:102AF0003C20802F60E00E943C209981892F219604
:102B0000E4E00C94BD22A0E0B0E0E9E8F5E10C942B
:102B10009E2280E260E040E027E832E00E94AF0BB6
:102B20001092AF0342E0D42E35E0E32E24E0F22EE3
:102B30008091AF03813039F480E00E94B705D092D4
:102B4000AF035E98F5CF0091AF03033061F45D9859
:102B500080916E030E94CF040093D2020E949706D8
:102B6000F092AF03E5CF8091AF03843009F78091F5
:102B7000D2028430E9F68FE70E9494040BEE13E052
:102B8000C0E0D0E006C00E94A704F80181938F0145
:102B900021968EEE92E00E947C0290E0C817D90741
:102BA00094F3E092AF035D9AC3CFABE2B0E0EBEDFC
:102BB000F5E10C94A1228FEF8983DE011296EEEEEF
:102BC000F2E08AE201900D928150E1F780E28E01FD
:102BD0000F5F1F4FB8014BE221E00E94640D882374
:102BE00051F480E2B80141E021E00E94C80D882341
:102BF00011F482E001C08FEF8093AF038091AF03A7
:102C0000823051F00E942C1F6093B0037093B10387
:102C10008093B2039093B303AB96E4E00C94BD228F
:102C2000A1E0B0E0E6E1F6E10C94A12280E00E9490
:102C3000CF0085E061E00E94F71F86E061E00E941E
:102C4000F71F0E94A60080E060E00E94F71F81E06D
:102C500061E00E94F71F82E493E040E052EC61E003
:102C600070E020E031E000E410E00E949C1D0E9432
:102C700072020E941E0282E493E06BE371E00E9404
:102C8000D82084E693E00E94430A82E493E062E560
:102C900071E00E94D82082E493E065E070E04AE0B1
:102CA00050E00E94B8210E94BB0078945E9A83E0B5
:102CB00063E10E944415882329F05E985D980E9484
:102CC000D206FBCF89E062E10E944415882329F4F3
:102CD0000E94CF01882309F0F6C082E493E06AE500
:102CE00071E00E94D82060E070E0CB010E941014D7
:102CF000882349F00E94DE0182E493E063E971E0F9
:102D00000E94F8205D9A0E940C1322C08091D70285
:102D1000833229F08091E1028B7F8093E1028091E0
:102D2000E10281FF15C082FD13C064EF71E080E015
:102D300090E00E941014882359F00E94DE0182E482
:102D400093E063E971E00E94F8200E940C135D9A01
:102D50008091D502823239F58091D702833219F5FC
:102D600081E00E94910B8091E10282FF09C082E420
:102D700093E06EEA71E00E94F8200E94831513C070
:102D800064E170E080E090E00E94601F80E2BE019C
:102D90006F5F7F4F41E021E00E94C80D882319F446
:102DA00081E08093AF0382E493E069EB71E00E94DD
:102DB000D8208FE00E94CF0080E00E94B7051092DB
:102DC0006E0380E00E94CF0480E001C0822F883132
:102DD00008F081C0282F2F5FE82FF0E0E251FD4F6F
:102DE0009785992399F777C00E94D5158091DB02CA
:102DF000883211F08A3249F482E493E040E052ECE8
:102E000061E070E00E94FF1B36C0893271F482E4F9
:102E100093E040EA56E861E070E00E94FF1B809179
:102E2000C20080628093C20026C080911603887120
:102E3000803169F04091EF025091F0026091F1020F
:102E40007091F2024A3051056105710538F482E44F
:102E500093E040E855E260E070E002C082E493E075
:102E600020E031E000E410E00E949C1D04C082E4F8
:102E700093E00E943F1C82E493E00E940F1C0097A5
:102E8000B1F78091DA02843229F08091C1008F7EFF
:102E90008093C1008091DB02853229F08091C100CE
:102EA000877F8093C1001092AD030E943A1F609308
:102EB0006F03709370038093710390937203219654
:102EC000E4E00C94BD220E940C138091D502823262
:102ED00009F020CF1BCF8093400483E08093D2027F
:102EE0000E94BA068091AF03882309F47FCF7CCF7C
:102EF000A1E0B0E0EEE7F7E10C94A3228091AF03EC
:102F00008230D9F480916E03805A898380E2BE01B9
:102F10006F5F7F4F41E021E00E94640D882369F0DC
:102F20008FEF8093AF030E942C1F6093B0037093C8
:102F3000B1038093B2039093B3032196E2E00C9423
:102F4000BF22A1E0B0E0E7EAF7E10C94A322809170
:102F5000AF038230D1F480E2BE016F5F7F4F41E06A
:102F600021E00E94C80D882371F08FEF8093AF039A
:102F70000E942C1F6093B0037093B1038093B2033F
:102F80009093B30302C0898101C08FEF2196E2E0E4
:102F90000C94BF22A6E1B0E0E0EDF7E10C9493229F
:102FA0000E94A4008CE00E94B604882359F482E4B5
:102FB00093E06EEC71E00E94F82080E00E94B7057B
:102FC0000E94BA060E943A1F5B016C010E94A11781
:102FD000182F7E010894E11CF11C0FEF8091D202A2
:102FE000843019F0153009F07EC10E943A1F3B0170
:102FF0004C018091D202843001F58FE70E94940445
:103000008BEEE82E83E0F82E00E010E007C00E946F
:10301000A704D7018D937D010F5F1F4F8EEE92E0C5
:103020000E947C0290E0081719078CF30E94E904C3
:10303000909386038093850329C08EEE92E00E94D0
:103040007C02482F4F5F80E2B70121E00E94C80D4B
:10305000882369F00093AF030E942C1F6093B00394
:103060007093B1038093B2039093B303B7CF8EEE06
:1030700092E00E947C02482F6BEE73E09E012E5F6F
:103080003F4FCB01B90150E00E94032460926F03CF
:103090007092700380927103909272031092AE034B
:1030A0008091870390918803880F991F8160909386
:1030B0008803809387035E985D9A80E00E94F513F1
:1030C0004091EB03842F90E09C012E73307021150A
:1030D000310599F5F8948091160387706CE672E0DB
:1030E0004CEE53E00E945E030E94991278949091F6
:1030F000EB038091B50390FF1AC0882309F07BC0D1
:10310000ADE8B3E080E090E0FC01EE0FFF1FE45972
:10311000FD4F208131812D933D93019680319105A2
:1031200099F70E94190281E08093B50364C0882357
:1031300009F461C01092B5035EC088739070883343
:10314000910509F058C080910004482747FF53C0FB
:103150008058809300048091DB02853209F04BC0D7
:1031600000E03EC00F5FE02FF0E0E551FC4F108122
:1031700082E493E0612F0E94911C83E693E0612F2B
:103180000E94280B882361F180915F039091600376
:10319000A0916103B0916203A6019501281B390B30
:1031A0004A0B5B0BDA01C901813A36E8930731E03B
:1031B000A30730E0B307A0F04091840320916C0393
:1031C00030916D0382E493E060E050E00E948F0A4A
:1031D000A0925F03B0926003C0926103D092620339
:1031E000202F30E08091EB0390E087709070821781
:1031F00093070CF0B7CF8091AD03882319F481E0D9
:103200008093AD0310928C0310928A0310928B036B
:1032100080911603887109F45DC08091000490913B
:10322000EB03982796FD23C0807C90E48927809348
:10323000000410E0212F30E08091170390E0019707
:10324000281739070CF097C282E493E00E940F1C04
:10325000009709F490C21F5F612F70E060507C4FAF
:1032600082E493E041E050E00E94F721E3CF80E068
:1032700094E0609117030E94BC080E9423098823F0
:10328000E1F3E4EDEE2EE2E0FE2E01E912E0D701DB
:10329000ED917D01F0E0CF01807F9070803191054C
:1032A00091F4EF70F070EE0FFF1FE459FD4F808135
:1032B000918161E08F3F910509F008F460E0F80129
:1032C00080810E943C200F5F1F4FFCEDEF16F2E063
:1032D000FF06E9F683E08093D2020E94970681E020
:1032E0008093B4035D980E943A1F1B012C010E9439
:1032F0002C1F7B018C018091AE03823008F064C0EA
:10330000A0906F03B0907003C0907103D0907203CF
:103310008091730390917403A0917503B09176032B
:103320008A159B05AC05BD0509F44EC08EEE92E0F2
:103330000E94F202A20191012A193B094C095D0980
:103340006C5D754080409040621773078407950755
:10335000D8F5A0927303B0927403C0927503D09213
:1033600076030E94E504282F8093820380918003D6
:1033700090918103820F911D90938103809380032C
:1033800060917F036F5F60937F036930E8F070E0C6
:103390000E94422270938103609380039091830383
:1033A00083E0989FC0011124860F971F96958795FB
:1033B00096958795809383030E94B21210928103A1
:1033C0001092800310927F038091AD03D09040044F
:1033D000882309F44CC1A090AE03AD1408F0D2C10B
:1033E00060906F03709070038090710390907203EF
:1033F0008EEE92E00E94F202A20191012619370995
:103400004809590968517C4F8F4F9F4F62177307C6
:103410008407950708F0B6C18091870390918803CF
:10342000880F991F909388038093870381E080938E
:10343000B403AA20C9F4E0927703F09278030093D2
:10344000790310937A0310927B0310927C031092FD
:103450007D0310927E0380916C0390916D03019621
:1034600090936D0380936C03A394A092AE038EEEB1
:1034700092E00E94F202660D771D881D991D6093EF
:103480006F037093700380937103909372035E9A3D
:1034900081E00E94F5130E94B2122EC08EEE92E0DF
:1034A0000E94F20220916F033091700340917103EA
:1034B0005091720342013101621A730A840A950A1B
:1034C0002A2D30E040E050E00E9423226615770567
:1034D0008805990588F4109288031092870381E08B
:1034E0008093B4030E94B21220926F033092700353
:1034F00040927103509272038091AE03882309F4C5
:10350000DEC08091EB02882379F190918C0399239E
:1035100059F50E94E301209177033091780340919F
:10352000790350917A0357016801A21AB30AC40AB9
:10353000D50A6A157B058C059D05B0F481E0809362
:103540008C030E94E8128091E7020E9413026E0D24
:103550007F1D801F911F616060937B0370937C03CC
:1035600080937D0390937E038091ED028823E1F0A8
:1035700090918A039923C1F40E94E301209177037B
:10358000309178034091790350917A035701680193
:10359000A21AB30AC40AD50A6A157B058C059D05D3
:1035A00018F481E080938A038091EC028823E1F093
:1035B00090918B039923C1F40E94E301209177033A
:1035C000309178034091790350917A035701680153
:1035D000A21AB30AC40AD50A6A157B058C059D0593
:1035E00018F481E080938B038091E3029091E402D0
:1035F000A091E502B091E6020097A105B10509F49A
:103600005EC080917B0390917C03A0917D03B0917B
:103610007E030097A105B10509F451C0E81AF90A23
:103620000A0B1B0B17FD4BC06091E80270E080E0B5
:1036300090E028EE33E040E050E00E9423226E1537
:103640007F0580079107D8F50E94840980E00E94D9
:10365000B7050E9497060E942C1F616060937B0350
:1036600070937C0380937D0390937E0328C08EEE3D
:1036700092E00E94F20220916F033091700340911A
:1036800071035091720382017101E21AF30A040B73
:10369000150B2D2D30E040E050E00E9423226E15E6
:1036A0007F058007910758F420926F0330927003D2
:1036B000409271035092720381E08093B403809131
:1036C0008B038823B1F48091DB02883219F40E94C5
:1036D0002E0E0FC0893239F480918C036091AE03B5
:1036E0000E948D0E06C08A3221F480918C030E94C4
:1036F0009A108091B4038823B9F0E0916E03EF5FD4
:10370000E0936E03E83131F0F0E0E251FD4F878540
:10371000882311F410926E0380916E030E94CF04EF
:103720000E9478171092B4038091AF038F3F71F518
:103730000E942C1F2091B0033091B1034091B2033D
:103740005091B303621B730B840B950B693E23E00E
:10375000720720E0820720E09207C0F00E942C1F31
:103760006093B0037093B1038093B2039093B3035B
:103770000E94D5150BC01F7380910004182B109365
:10378000000475CDAD1409F0B7CE88CE6696E2E19F
:103790000C94AF228F92AF92CF92EF92FF920F9341
:1037A0001F9382E493E060E045EC50E024EC30E0CD
:1037B00000EC10E0F1ECEF2EF12CCC24C394E8E9FE
:1037C000AE2E70E2872E0E94DB1C109263031092D3
:1037D00064031092650310926603109267031092BF
:1037E00069031092680310926A0310926B031F9191
:1037F0000F91FF90EF90CF90AF908F9008950F931F
:103800001F93DC01ED91FC910288F389E02D20E00B
:1038100030E000E010E009951F910F910895FC0140
:10382000838D882371F00788F08DE02D2081318110
:1038300082819381281B390B868197812823392324
:1038400002C02FEF3FEFC9010895FC01838D88234B
:1038500091F0018CF28DE02D208131818281938164
:10386000281B390B20953095868197812823392391
:103870002F5F3F4F02C02FEF3FEFC9010895FC01BA
:10388000838D882351F00788F08DE02D20813181D0
:10389000828193812817390721F42FEF3FEFC90167
:1038A000089582819381A085B185A80FB91F2C91BD
:1038B0008281938101964681578184239523938346
:1038C000828330E0ECCFFC01838D882351F00788A0
:1038D000F08DE02D20813181828193812817390775
:1038E00021F42FEF3FEFC901089582819381008475
:1038F000F185E02DE80FF91F208130E0F4CFFC01C5
:10390000A789B08D12968D919C91139711969C93D7
:103910008E93018CF28DE02D80819181938382833F
:103920000895FC01838D8823A9F1A18DB28D8D911D
:103930009C911197019616962D913C911797822391
:103940009323248D222339F012962D913C911397C5
:1039500082179307F9F012962D913C9113978217D5
:103960009307C9F32D913C91119718960D90BC9136
:10397000A02DA20FB31F6C93A18DB28D11969C93B5
:103980008E93A289B3898C919689892B8C9321E09F
:1039900030E002C020E030E0C901089521E030E0CD
:1039A00002C0220F331F8A95E2F780916C04822BAC
:1039B00080936C0408956F927F928F92AF92CF9212
:1039C000EF92FF920F931F93DF93CF93CDB7DEB7A4
:1039D0003C01862FFA01D30113961C921E92129776
:1039E00048EE53E060E070E014964D935D936D9364
:1039F0007C9317974DEB52E011965C934E931D9676
:103A0000FC93EE931C971F963C932E931E97519612
:103A10001C930E9350975396FC92EE9252975496A5
:103A2000CC9254975596AC92559756968C92569741
:103A3000482F50E09A01220F331F73E0440F551FA7
:103A40007A95E1F7240F351F285A3B4F58963C933F
:103A50002E935797482F50E09A01220F331F93E07F
:103A6000440F551F9A95E1F7240F351F2E593B4FF0
:103A70005A963C932E9359970E94CE1CC30140E066
:103A800051EE60E070E00E94FF1BCF91DF911F912B
:103A90000F91FF90EF90CF90AF908F907F906F90AD
:103AA00008950F931F93CF93DF93EC011B821A822B
:103AB0008A819B8199838883E1E021E030E001C025
:103AC000EF5FA9010E2E02C0440F551F0A94E2F7C2
:103AD000862F972FF2E081309F0710F080E092E070
:103AE0004817590768F301E010E002C0000F111FEA
:103AF000EA95E2F70150104088859985009739F0E2
:103B00002E813F812017310789F00E946A231F838D
:103B10000E83C80101960E94D0229C019987888754
:103B200081E02115310519F480E001C081E0DF91C9
:103B3000CF911F910F910895A0E0B0E0E2EAFDE17E
:103B40000C949B22EC015A016B0179018B8D882327
:103B5000D1F02115310539F4EF89F88DE680F78031
:103B60000894E11CF11C0115110531F4E98DFA8D61
:103B7000068117810F5F1F4FE881F9810088F18965
:103B8000E02DCE0109958F89988DE114F10419F487
:103B9000F0E8EF2EF12CB7010E94511D882361F04F
:103BA000898D9A8D0115110511F400E110E0B8011D
:103BB0000E94511D8823F1F5E881F9810088F1897F
:103BC000E02DCE01099553C0E889F98980E0A81657
:103BD00081EEB80680E0C80680E0D80609F443C04C
:103BE00081E090E00C8802C0880F991F0A94E2F7E8
:103BF000808360E079E08DE390E0A60195010E946A
:103C000078222150304040405040CA01B90122E0A2
:103C100030E040E050E00E947822EC85FD85308362
:103C2000EE85FF852083EA89FB8980819D89892B28
:103C300080831DC0E98DFA8D138212828281938167
:103C400091838083EF89F88D138212828281938120
:103C50009183808381E08B8F1A141B041C041D0444
:103C60000CF4B2CFE0CF108220E130E0D6CFCDB758
:103C7000DEB7EAE00C94B722CF93DF93EC011B820E
:103C80001A828A819B81998388831F821E828885FC
:103C90009985009721F00E946A2319861886DF9182
:103CA000CF910895CF93DF93EC01EA89FB8990814E
:103CB0008E892D89822B8095892380838F89988D89
:103CC0000E943C1E898D9A8D0E943C1E1B8EDF91A6
:103CD000CF9108958230E8F4E82FF0E0EE0FFF1F57
:103CE000E359FB4F71836083813041F0809169001B
:103CF0008C7F842B80936900E89A089580916900F5
:103D0000440F551F440F551F837F842B80936900F8
:103D1000E99A08951F920F920FB60F9211242F93D4
:103D20003F934F935F936F937F938F939F93AF9343
:103D3000BF93EF93FF9380916D0490916E04009771
:103D400029F0E0916D04F0916E040995FF91EF91D7
:103D5000BF91AF919F918F917F916F915F914F91A3
:103D60003F912F910F900FBE0F901F9018951F92AB
:103D70000F920FB60F9211242F933F934F935F939F
:103D80006F937F938F939F93AF93BF93EF93FF9323
:103D900080916F0490917004009729F0E0916F0476
:103DA000F09170040995FF91EF91BF91AF919F91B0
:103DB0008F917F916F915F914F913F912F910F90D4
:103DC0000FBE0F901F9018951F920F920FB60F9273
:103DD00011242F933F938F939F93AF93BF93809121
:103DE000750490917604A0917704B0917804309195
:103DF00079040196A11DB11D232F2D5F2D3720F0D1
:103E00002D570196A11DB11D20937904809375044F
:103E100090937604A0937704B09378048091710412
:103E200090917204A0917304B09174040196A11D45
:103E3000B11D8093710490937204A0937304B093A6
:103E40007404BF91AF919F918F913F912F910F90EB
:103E50000FBE0F901F9018958FB7F894209175049E
:103E60003091760440917704509178048FBFB90166
:103E7000CA0108959FB7F89420917104309172049B
:103E8000409173045091740486B5A89B06C08F3F7F
:103E900021F02F5F3F4F4F4F5F4F9FBF542F432F56
:103EA000322F2227280F311D411D511D82E0220F84
:103EB000331F441F551F8A95D1F7B901CA010895D0
:103EC000EF92FF920F931F93CF93DF937B018C01AF
:103ED0000E943A1FEB010FC00E943A1F6C1B7D0B22
:103EE00083E0683E780738F00894E108F10801099A
:103EF0001109C851DC4FE114F1040105110561F706
:103F0000CDB7DEB7E6E00C94BB22019739F0880FFD
:103F1000991F880F991F02970197F1F708957894D8
:103F200084B5826084BD84B5816084BD85B58260BE
:103F300085BD85B5816085BDEEE6F0E0808181605C
:103F40008083E1E8F0E0108280818260808380815C
:103F500081608083E0E8F0E0808181608083E1EB34
:103F6000F0E0808184608083E0EBF0E0808181601C
:103F70008083EAE7F0E080818460808380818260D2
:103F800080838081816080838081806880831092BB
:103F9000C1000895833071F0843028F48130A1F09D
:103FA000823021F514C08630B1F08730D1F08430F2
:103FB000E9F404C0809180008F7703C08091800075
:103FC0008F7D80938000089584B58F7702C084B57B
:103FD0008F7D84BD08958091B0008F778093B0006D
:103FE00008958091B0008F7D8093B0000895EF9286
:103FF000FF92CF93DF9390E0FC01E455FF4F449193
:1040000088569F4FFC018491882389F190E0880FA6
:10401000991FFC01E658FF4F25913491D9018C5727
:104020009F4FFC0125913491E22EE7017E01F32E92
:10403000E701662349F49FB7F8948C914095842357
:104040008C93888184230BC0623059F49FB7F89415
:104050008C91242F209582238C938881842B8883B4
:1040600005C09FB7F8948C91842B8C939FBFDF91F0
:10407000CF91FF90EF900895A1E0B0E0E2E4F0E28C
:104080000C94A122282F30E0F901E054FF4F8491D5
:10409000F901E455FF4F149128563F4FF90104915F
:1040A0000023D9F0882321F069830E94CA1F698107
:1040B000E02FF0E0EE0FFF1FEC57FF4F859194913A
:1040C000DC019FB7F894662321F48C91109581232D
:1040D00002C08C91812B8C939FBF2196E4E00C94BD
:1040E000BD220F931F93282F30E0F901E054FF4FBA
:1040F0008491F901E455FF4F049128563F4FF9018F
:104100001491112391F0882311F00E94CA1FE12F0E
:10411000F0E0EE0FFF1FE257FF4F85919491DC0115
:104120008C91802321E030E011F420E030E0C901DF
:104130001F910F910895A0E0B0E0E1EAF0E20C9445
:104140009D226C017B018A01C0E0D0E00FC0D70145
:104150006D917D01D601ED91FC910190F081E02DF2
:10416000C6010995C80FD91F01501040011511054E
:1041700071F7CE01CDB7DEB7E8E00C94B922611536
:10418000710591F0DB010D900020E9F7AD01415080
:104190005040461B570BDC01ED91FC910280F381EE
:1041A000E02D09959C0102C020E030E0C90108958E
:1041B0000E94BF200895DC01ED91FC910190F081F7
:1041C000E02D099508950F931F93CF93DF93EC0192
:1041D0006DE00E94DB208C01CE016AE00E94DB20B2
:1041E000080F191FC801DF91CF911F910F910895FA
:1041F0000F931F93CF93DF93EC010E94D8208C0183
:10420000CE010E94E320080F191FC801DF91CF9152
:104210001F910F9108950F931F93CF93DF93EC019C
:104220000E94DB208C01CE010E94E320080F191FA1
:10423000C801DF91CF911F910F910895A1E2B0E0E5
:10424000E4E2F1E20C9499226C01042FE52FCB01FA
:10425000122F19A2223008F41AE021E2E22EF12CEA
:10426000EC0EFD1E812E9924AA24BB2403C0022F2C
:10427000E32FCA01602F7E2FA50194010E945622D0
:10428000129F802D1124081B0894E108F1080A30C0
:1042900010F4005D01C0095CF701008321153105B0
:1042A0004105510521F7C601B7010E94BF20A19623
:1042B000ECE00C94B5222115310549F4DC01ED91B7
:1042C000FC910190F081E02D642F099508950E94E2
:1042D0001E2108959A01AB0160E070E00E945B210D
:1042E00008959A01462F50E060E070E00E945B2143
:1042F0000895A0E0B0E0EFE7F1E20C949D22EC011C
:104300007A018B012115310541F4E881F981019091
:10431000F081E02D642F09951AC02A303105A9F4E7
:1043200077FF12C06DE20E94DB206C014427552705
:10433000BA014E195F09600B710BCE012AE00E9491
:104340001E21C80ED91E04C02AE00E941E216C0145
:10435000C601CDB7DEB7E8E00C94B9229A01FB01A3
:10436000AF01662757FD6095762F0E947921089549
:104370000F931F93CF93DF93EC010E94AE218C012A
:10438000CE010E94E320080F191FC801DF91CF91D1
:104390001F910F910895CF93DF93EC010E942C1F82
:1043A000688779878A879B87E881F9810680F7810A
:1043B000E02DCE0109959C0197FF15C00E942C1F8E
:1043C000288539854A855B85621B730B840B950BA9
:1043D0002C813D814E815F816217730784079507A9
:1043E00018F32FEF3FEFC901DF91CF910895A0E0BF
:1043F000B0E0EDEFF1E20C949D226C01EB017A014B
:1044000000E010E008C0C6010E94CB2197FD06C065
:1044100089930F5F1F4F0E151F05A8F3C801CDB775
:10442000DEB7E8E00C94B922CF93DF930E948F1F90
:104430000E941016C0E0D0E00E94CA172097E1F356
:104440000E940000F9CF629FD001739FF001829F0C
:10445000E00DF11D649FE00DF11D929FF00D839F13
:10446000F00D749FF00D659FF00D9927729FB00DB0
:10447000E11DF91F639FB00DE11DF91FBD01CF01C3
:1044800011240895AA1BBB1B51E107C0AA1FBB1F23
:10449000A617B70710F0A61BB70B881F991F5A95D0
:1044A000A9F780959095BC01CD010895A1E21A2E3F
:1044B000AA1BBB1BFD010DC0AA1FBB1FEE1FFF1FC8
:1044C000A217B307E407F50720F0A21BB30BE40B18
:1044D000F50B661F771F881F991F1A9469F760955F
:1044E0007095809590959B01AC01BD01CF01089519
:1044F00097FB092E05260ED057FD04D0D7DF0AD032
:10450000001C38F450954095309521953F4F4F4F02
:104510005F4F0895F6F790958095709561957F4F60
:104520008F4F9F4F08952F923F924F925F926F92BD
:104530007F928F929F92AF92BF92CF92DF92EF9233
:10454000FF920F931F93CF93DF93CDB7DEB7CA1BB4
:10455000DB0B0FB6F894DEBF0FBECDBF09942A88DF
:10456000398848885F846E847D848C849B84AA8487
:10457000B984C884DF80EE80FD800C811B81AA8114
:10458000B981CE0FD11D0FB6F894DEBF0FBECDBFDF
:10459000ED010895EE0FFF1F0590F491E02D0994B1
:1045A000CF93DF938230910510F482E090E0E091A8
:1045B0007C04F0917D0440E050E020E030E026C033
:1045C0006081718168177907E0F06817790781F4D5
:1045D000828193812115310531F0D90113969C9385
:1045E0008E9312972BC090937D0480937C0426C0F9
:1045F0004115510519F06417750718F4AB01E9016D
:10460000DF019F0172816381E72FF62F3097C1F69A
:104610004115510501F1481B590B4430510580F4F7
:1046200012968D919C911397209719F09B838A8302
:1046300004C090937D0480937C04FD01329646C0B3
:10464000FD01E40FF51F8193919342505040119664
:104650005C934E933BC020917A0430917B042115EA
:10466000310541F42091D8013091D90130937B0478
:1046700020937A042091DA013091DB012115310574
:1046800041F42DB73EB74091D6015091D701241B7C
:10469000350BE0917A04F0917B04E217F307A0F464
:1046A0002E1B3F0B2817390778F0AC014E5F5F4F88
:1046B0002417350748F04E0F5F1F50937B0440933B
:1046C0007A048193919302C0E0E0F0E0CF01DF91A2
:1046D000CF910895CF93DF93009709F491C0FC0127
:1046E00032971382128260917C0470917D0461156F
:1046F000710581F420813181280F391F80917A045E
:1047000090917B048217930799F5F0937B04E093D3
:104710007A0476C0DB0180E090E002C0CD01D901CF
:10472000AE17BF0748F412962D913C9113972115AF
:104730003105A1F7CD0121C0B383A283EF014991D7
:1047400059919E01240F351FA217B30779F42D91BB
:104750003C911197240F351F2E5F3F4F31832083EB
:1047600012962D913C91139733832283009729F45D
:10477000F0937D04E0937C0443C0DC011396FC932A
:10478000EE9312974D915D91A40FB51FEA17FB07A9
:1047900069F420813181240F351F2E5F3F4FEC01DA
:1047A00039832883228133813B832A83E0E0F0E050
:1047B00002C0FB01BC01DB0112968D919C91139705
:1047C0000097B9F79B012E5F3F4F8D919C911197F8
:1047D000820F931F40917A0450917B044817590728
:1047E00079F4309729F410927D0410927C0402C071
:1047F000138212822250304030937B0420937A043B
:10480000DF91CF910895FB01DC0102C001900D9270
:1048100041505040D8F70895F999FECF92BD81BD1F
:10482000F89A992780B50895262FF999FECF1FBAD7
:1048300092BD81BD20BD0FB6F894FA9AF99A0FBEC9
:0848400001960895F894FFCFE2
:104848007363616E6E6572206D6F646500545820E5
:1048580074696D656F7574210057616974696E6755
:104868002062696E640A00476F7420706B740A00D6
:104878006461746120676F6F640A004F70656E4CE5
:1048880052536E67205258207374617274696E6750
:104898002000206F6E2048572000454550524F4D4C
:1048A8002064617461206E6F742076616C69642085
:1048B8006F722062696E64206A756D70706572200F
:1048C8007365742C20666F7263696E672062696E07
:1048D800640A0053617665642062696E64206461CD
:1048E800746120746F20454550524F4D0A0049208D
:1048F800616D20736C61766500456E746572696ED2
:1049080067206E6F726D616C206D6F646500525820
:104918002068616E670020007E04000000200122EC
:104928000126022102270323032604260526052B38
:104938000624072507280729072AC01200001A405D
:104948000AA1204EA5001B1E27522C2330802500CB
:104958000005400AA1204EA50020244EA52C233096
:10496800004B000006400AD0009D49007B289D4965
:104978002C233000E1000005400A4501D7DC03B8CC
:104988001E0EBF00232E48E801008A400A60015528
:104998005502AD1E20000023C88025000005400AEE
:1049A800A1204EA50020244EA52C23300002000291
:1049B80000020002000200020002000200020002DF
:1049C8000002000200020002000200028813409C5C
:1049D80008091203130E0F00010200000010000066
:1049E8000008002000000100000200000001000093
:1049F8000200070B0C1011150000000000911C9B11
:104A0800200F1C3F1C631C7F1C251CFF1B521E9C77
:024A18001D007F
:00000001FF
