:100000000C9444060C94132C0C94402C0C946C0609
:100010000C946C060C946C060C946C060C946C0698
:100020000C946C060C946C060C9421210C946C06B8
:100030000C946C060C946C060C946C060C946C0678
:100040000C946D2C0C946C060C94CA100C940F112B
:100050000C946C060C946C060C946C060C946C0658
:100060000C946C060C946C066E1087108A108F101E
:10007000941099109E10AA10B5108C140115CD146F
:10008000D214D714DC14E114E614EB140115F614A1
:100090000115FB14BE17C517C517BE17C517C51721
:1000A000C517C517C517C517C517C517C517C51770
:1000B000C517C517C5173617C517C517C517C517EF
:1000C000C5179916C517C517C517C517C517C5177D
:1000D000C517C517C517C517C517C517C517C51740
:1000E000C5174217421742174217421742174217C5
:1000F00042174217C517C517C517C517C517C51726
:100100009E164117411741174117C5174F1757172B
:100110005F1767176F1777177F17871791179B1749
:10012000A517AF17E516A516C517C517C517C51727
:100130003617C517C517C517C517C517C517C5176E
:10014000C5174017401740174017C5174F175717C7
:100150005F1767176F1777177F17871791179B1709
:10016000A517AF17E516A516C517C517C517C517E7
:100170003617F417F417F417F417F417F417F417E5
:10018000F417F417F417F417F417F41715191519D1
:1001900015191519151915193D18471851185B1817
:1001A000BD18C718D618E9187A1E921E9E1EA71EE3
:1001B000B61EDC1EE41E1B1FF61E1B1F0D1F456E08
:1001C000746572206D656E752E2E2E00546F6767F4
:1001D0006C6564206D6963726F50504D00546F6799
:1001E000676C656420696E76657274656420505032
:1001F0004D2100546F67676C6564205458206D75FD
:1002000074696E672100546F67676C65642074655C
:100210006C656D65747279210050726F746F636FD5
:100220006C206572726F7220776974682052580072
:1002300054696D656F7574207768656E20636F6EA5
:100240006E656374696E6720746F20525800507237
:1002500065737320616E79206B657920746F2063FC
:10026000616E63656C00436F6E6E656374696E6783
:1002700020746F2052582C20706F77657220757033
:100280002074686520525820287769746820626954
:100290006E6420706C7567206966206E6F742075BF
:1002A00073696E6720616C776179732062696E642F
:1002B0002900546F67676C65642027696D6D6564FC
:1002C00069617465206F75747075742700546F6769
:1002D000676C65642027736C617665206D6F64655B
:1002E0002700546F67676C65642027616C776179BC
:1002F000732062696E642700546F67676C656420C1
:1003000050504D206368616E6E656C206C696D693C
:100310007400536574205253534920696E6A6563B3
:1003200074696F6E206368616E6E656C2028303D65
:100330003D64697361626C65290053657420505097
:100340004D206D696E696D756D2073796E63005314
:10035000657420626561636F6E20696E7465727684
:10036000616C0053657420626561636F6E20646523
:100370006C61790053657420626561636F6E2066FD
:1003800072657175656E637920696E20487A3A20CE
:10039000303D64697361626C652C2050783D504D2E
:1003A00052206368616E6E656C20782C2046783D23
:1003B000465253206368616E6E656C207800536509
:1003C000742050574D2073746F702064656C617990
:1003D0002028302064697361626C65642C20312DA3
:1003E000323535203D3D20302E3173202D203530E3
:1003F0006D696E29005365742050504D2073746FE1
:10040000702064656C6179202830206469736162B2
:100410006C65642C20312D323535203D3D20302E49
:100420003173202D2035306D696E2900536574209D
:100430006661696C736166652064656C617920280A
:10044000302064697361626C65642C20312D323513
:1004500035203D3D20302E3173202D2035306D6903
:100460006E29002A2A2A2A2A2A2A2A2A2A2A2A2AD3
:100470002A2A2A2A2A2A2A2A2A2A2A2A2A2A2A2ADC
:100480000052582041636B6564202D2072657665AB
:100490007274207375636365737366756C21002ACB
:1004A0002A2A2A2A2A2A2A2A2A2A2A2A2A2A2A2AAC
:1004B0002A2A2A2A2A2A2A2A2A2A2A2A002A2A2AC6
:1004C0002A2A2A2A2A2A2A2A2A2A2A2A2A2A2A2A8C
:1004D0002A2A2A2A2A2A2A2A2A2A0052582041630A
:1004E0006B6564202D20757064617465207375637D
:1004F0006365737366756C21002A2A2A2A2A2A2AC0
:100500002A2A2A2A2A2A2A2A2A2A2A2A2A2A2A2A4B
:100510002A2A2A2A2A2A0056616C69642063686F95
:1005200069636573206172653A205B315D2D5B31D3
:10053000365D20286368616E6E656C20312D313622
:100540002900536574206F757470757420666F721E
:1005500020706F727420005B585D2061626F72744E
:10056000206368616E67657320616E6420657869D9
:100570007420525820636F6E666967005B535D207C
:10058000736176652073657474696E677320746F28
:10059000205258005B525D2072657665727420525D
:1005A000582073657474696E677320746F20646576
:1005B0006661756C747300557365206E756D626548
:1005C0007273205B312D445D20746F206564697403
:1005D00020706F727473205B452D515D20666F72C1
:1005E0002073657474696E677300202D20726563D3
:1005F000656976657220636F6E666967757261748E
:100600006F722C20727820737720000A0A6F706551
:100610006E4C52536E6720005365742074656C6590
:100620006D65747279207061636B65742073697A8B
:10063000653A20005365742073657269616C2062AD
:10064000617564726174653A200056616C6964205A
:1006500063686F696365733A2031202D20342B3431
:10066000202F2032202D2038202F2033202D2038FD
:100670002B34202F2034202D203132202F203520E4
:100680002D2031322B34202F2036202D20313600E2
:10069000536574204368616E6E656C20636F6E668F
:1006A00069673A2000536574204461746172617413
:1006B000652028302D32293A200053657420486F78
:1006C00070206368616E6E656C7320286D617820A0
:1006D00032342C20736570617261746564206279B4
:1006E00020636F6D6D6173292076616C696420767B
:1006F000616C75657320312D3235353A20005365B4
:1007000074206368616E6E656C2073706163696EDE
:100710006720287831306B487A293A200053657475
:1007200020524620706F7765722028302D37293A85
:100730002000536574205246206D6167696320284C
:100740006865782920652E672E203078444541441D
:10075000463030443A20005365742062617365204E
:100760006672657175656E63792028696E20487AB6
:10077000293A20005B5A5D20656E746572207265AF
:1007800063656976657220636F6E6669677572610D
:1007900074696F6E207574696C79005B465D2064C6
:1007A0006973706C61792061637475616C20667225
:1007B000657175656E636965732075736564005B4B
:1007C000525D2063616C63756C6174652072616E4B
:1007D000646F6D206B657920616E6420686F702096
:1007E0006C697374005B495D207265696E69746938
:1007F000616C697A652073657474696E67732074BF
:100800006F20736B657463682064656661756C74D2
:1008100073005B585D207265766572742063686151
:100820006E67657320616E642065786974206D65FC
:100830006E75005B535D207361766520736574741B
:10084000696E677320746F20454550524F4D20618B
:100850006E642065786974206D656E7500557365EA
:10086000206E756D62657273205B302D395D20746A
:100870006F206564697420706172616D6574657262
:100880007300202D2053797374656D20636F6E663D
:10089000696775726174696F6E000A0A6F70656EC0
:1008A0004C52536E6720005129204F757470757437
:1008B000206265666F7265206C696E6B20283D460C
:1008C0005329203A2000502920536C617665206D11
:1008D0006F646520286578706572696D656E7461F6
:1008E0006C293A20004F292054696D6564204249E3
:1008F0004E44206174207374617274757020203AC4
:1009000020004E292050504D206F75747075742052
:100910006C696D6974656420202020203A200044B1
:10092000495341424C4544004D292050504D2052DE
:1009300053534920746F206368616E6E656C20208C
:1009400020203A20004C292050504D206D696E69BE
:100950006D756D2073796E63202875732920203A98
:10096000200044495341424C4544004B29204661F4
:10097000696C7361666520626561636F6E20696E84
:1009800074762E2028312D32353573293A20004ACD
:1009900029204661696C7361666520626561636FD9
:1009A0006E2064656C61792028302D323535203D0C
:1009B0003E20313073202D203135306D696E293A5B
:1009C00020004929204661696C7361666520626573
:1009D00061636F6E206672712E203A2000482920D4
:1009E00050574D2073746F702064656C61792020BE
:1009F00020202020203A200047292050504D2073ED
:100A0000746F702064656C61792020202020202084
:100A10003A20004629204661696C7361666520644E
:100A2000656C6179202020202020203A200050573A
:100A30004D206368616E6E656C200066756E637430
:100A4000696F6E3A20002920706F72742000506F19
:100A5000776572546F776572004454462055484656
:100A60002033322D6269742031306368004F706525
:100A70006E4C52536E675258206D696E6920342F48
:100A800036636800466C7974726F6E2F4F72616EB8
:100A900067655258205548462038636800525820F0
:100AA000747970653A200044697361626C65640012
:100AB000487A00203D3D200043616C63756C617491
:100AC0006564207061636B657420696E746572760D
:100AD000616C3A200044292054656C656D65747220
:100AE00079207061636B65742073697A653A2000C0
:100AF0004229204D6963726F202868616C66292045
:100B000050504D202020203A00412920496E766522
:100B1000727465642050504D20696E202020202082
:100B20003A003029204D7574652062757A7A6572B5
:100B300020286D6F73746C79293A00392920536528
:100B40007269616C2062617564726174653A0073E8
:100B50006D617274506F7274004672536B790054F9
:100B600072616E73706172656E7420284D61766C6F
:100B7000696E6B290044697361626C656400382991
:100B80002054656C656D657472793A2020202020B0
:100B90002020003729204368616E6E656C20636FEA
:100BA0006E6669673A2020003629204461746172BC
:100BB0006174652028302D32293A20202000352903
:100BC00020486F70206368616E6E656C733A2020F8
:100BD000202020003429204368616E6E656C2073EC
:100BE000706163696E673A202000332920524620E5
:100BF000706F7765722028302D37293A2020200029
:100C00003229205246206D616769633A20202020F6
:100C10002020202020003129204261736520667247
:100C2000657175656E63793A202020000000000030
:100C3000240027002A0000000000250028002B00C7
:100C4000000000002300260029000404040404041A
:100C5000040402020202020203030303030301026B
:100C6000040810204080010204081020010204083A
:100C7000102000000007000201000003040600002D
:100C8000000000000000532911241FBECFEFD8E060
:100C9000DEBFCDBF13E0A0E0B1E0E6EBF7E602C0B7
:100CA00005900D92A43AB107D9F716E0A4EAB3E093
:100CB00001C01D92A135B107E1F71CE0C8E8DCE0F6
:100CC00004C02297FE010E94B830C638D107C9F788
:100CD0000E9401300C94D9330C9400008091A6033B
:100CE000813019F482E08093A6038091A6038330BB
:100CF00019F484E08093A6030895A895089582E0EE
:100D00008093B00085E08093B10083E061E00E94B1
:100D1000762D83E060E00E94BB2D0895009721F1BD
:100D20009C0140E050E068E478EE81E090E00E94B1
:100D300064302F3F31054105510509F030F421158C
:100D400031054105510531F009C02FEF30E040E099
:100D500050E004C021E030E040E050E02093B300D8
:100D60008091B000806103C08091B0008F7E80933D
:100D7000B00008958CE060E00E94762D8BE061E089
:100D80000E94762D8DE061E00E94762D82E060E089
:100D90000E94762D84E061E00E94762D089580E027
:100DA0006EE676E042E050E00E94F32B0895E3E027
:100DB000F0E089E080935700E491E67081E0E6304E
:100DC00009F080E008950F931F93182F0E94D70613
:100DD000882389F00FB781E080931606F8940E946B
:100DE0007D0688E18093600010936000112311F06C
:100DF0000E947D060FBF1F910F910895382F20E0AC
:100E00008091A8059091A9058227932760E041E28F
:100E100050E19C01220F331F97FF04C0C9018427B2
:100E2000952701C0C9016F5F683099F79093A905B4
:100E30008093A80508950F931F93082F17C05E9AFB
:100E400064E670E080E090E00E94E92C5E9864E641
:100E500070E080E090E00E94E92C1F5F101778F3AB
:100E60006CE271E080E090E00E94E92C10E0F6CFA7
:100E70000F931F93CF93DF93EC01062F15E01150D2
:100E800051F0CE010E94C033081741F0CE01602F0F
:100E90000E94C833F4CF82E00E941B07DF91CF91FC
:100EA0001F910F910895A0E0B0E0E9E5F7E00C9400
:100EB0007F30682E762ECC24DD24C0E0D0E0AA243A
:100EC000BB2400E010E004C0CC24DD24772473941C
:100ED000662061F48091A70397E3899FE0011124C4
:100EE000A9E0AA2EB12C08EA13E01AC0E62DE130E1
:100EF00069F48091A703F7E38F9FE00111242B96FB
:100F0000FAE2AF2EB12C0CEC13E00AC0862D823031
:100F100039F4CCEDD0E0E1E0AE2EB12C07EA13E0DD
:100F20002E014C0C5D1C1092A9051092A805E2013F
:100F300017C07801E80CF91C772031F4CE010E942B
:100F4000C033F701808305C0CE01F70160810E94A4
:100F50003807F801E80DF91D80810E94FE062196F0
:100F6000CE018419882E99248A149B0410F3CE0193
:100F70007E010894E11CF11C7720A1F4CE010E94AF
:100F8000C033882EC7010E94C033382C222490E041
:100F9000822993292091A8053091A905281739079E
:100FA00059F492CFE7016091A9050E943807C70163
:100FB0006091A8050E943807E0E0F1E0CE0EDF1E48
:100FC000F1E0CF16F3E0DF0608F482CF872DCDB72E
:100FD000DEB7E2E10C949B3086E38093CC0380E0A3
:100FE00091EEA0E0B0E08093CD039093CE03A09368
:100FF000CF03B093D0038DE18093F50387E0809316
:10100000D90380EC92E9ADEEB9E18093D1039093DE
:10101000D203A093D303B093D40385E08093DA0383
:101020008DEE9EEFADEABEED8093D5039093D6038F
:10103000A093D703B093D803EBEDF3E080E090E00A
:10104000863028F4DC01AA57BC4F2C9101C020E067
:10105000219301968831910599F782E08093F303FB
:101060008AE08093F403089582E061E00E945307D0
:10107000089582E060E00E9453078091A7038430C6
:1010800020F01092A7030E9434080895A1E0B0E078
:10109000ECE4F8E00C948F3089830E943908909139
:1010A000A7038981981731F0843020F48093A70337
:1010B0000E9434082196E2E00C94AB3080EC91ED74
:1010C000A8E9BBE18093A9039093AA03A093AB0383
:1010D000B093AC031092AD031092AE031092AF0325
:1010E0001092B003089580E061E00E94530781E010
:1010F00061E00E945307089580E060E00E9453077A
:10110000882331F081E060E00E945307882331F4A6
:101110000E945E080E94EC070E9473080895A0E0F8
:10112000B0E0E5E9F8E00C9485300E94C32C61152D
:10113000710581059105C9F30E944F321092D503C4
:101140001092D6031092D7031092D80314E02FEF19
:10115000822E912CA12CB12CC090D503D090D60317
:10116000E090D703F090D803FE2CED2CDC2CCC249F
:101170000E944A32A50194010E9464306C0D7D1DCD
:101180008E1D9F1D6093D5037093D6038093D70364
:101190009093D803115001F7CBEDD3E000E082E348
:1011A000C82ED12CE12CF12CB0E18B2EB7E29B2E76
:1011B0004BC00F5F19F40E94EC074AC00E944A32EC
:1011C000A70196010E9464306F5FEBEDF3E080E0D1
:1011D00004C09191961769F38F5F8117D0F38091C6
:1011E000DA0390E0889DA001899D500D989D500DD7
:1011F0001124262F30E0429FC001439F900D529F43
:10120000900D1124AA2797FDA095BA2F2091D10304
:101210003091D2034091D3035091D403820F931F96
:10122000A41FB51F2091A9033091AA034091AB03DD
:101230005091AC03281739074A075B0708F4B9CF68
:1012400069931F5F183121F08881882309F0B1CF9D
:10125000CDB7DEB7ECE00C94A130BC01843691052B
:1012600018F480E090E022C08E3B910548F46A5566
:10127000704080E090E02AE030E040E050E014C0B0
:10128000823D910548F4645B704080E090E024E684
:1012900030E040E050E008C06D5C704080E090E0DD
:1012A00028E532E040E050E00E94103024E630E0D3
:1012B00040E050E00E941030089590E08C599F4F1C
:1012C0000E942D090895DC019896EC919897F0E022
:1012D000E770F070E258FC4F80810895A0E0B0E024
:1012E000E4E7F9E00C948730EC010E9463094FA118
:1012F00050E023E130E0429FF001439FF00D529F08
:10130000F00D1124E554FD4FA080B180C280D38040
:1013100090E00F969C01B901882777FD8095982F62
:1013200020E43FE14DE750E00E941030A601950116
:101330000E94423079018A0180ED97E0A0E0B0E0A0
:10134000E80EF91E0A1F1B1F88A58871D1F069A538
:1013500070E0615F7F4F882777FD8095982F20E4AC
:101360003FE14DE750E00E941030A60195010E9438
:10137000423028513C4F4F4F5F4FE20EF31E041F87
:10138000151FC801B70169517C4F8F4F9F4F28EE41
:1013900033E040E050E00E944230B901CA0128EE3B
:1013A00033E040E050E00E941030CDB7DEB7EAE015
:1013B0000C94A3308F3F910559F050F022E080301B
:1013C000920740F023E08030920730F482E00895E5
:1013D00080E0089581E0089583E00895A0E0B0E002
:1013E000E4EFF9E00C948A30EB018A01B82FB6954E
:1013F000A0E028813981F80120832A813B81218363
:101400002C813D8122832E813F81238368817981D4
:101410004A815B812C813D81EE81FF819F2F9295D6
:10142000990F990F907C672F6370962B452F43700F
:10143000440F440F942B232F23702295207F922B4F
:10144000F80194830B5F1F4F2896AF5FBA1788F699
:1014500080FF25C0888199810E94DA09D82E2A81CF
:101460003B81C9010E94DA09E82E2C813D81C90126
:101470000E94DA09F82E2E813F81C9010E94DA0903
:10148000D294DD0CDD0C60ECD622E29450EFE52224
:10149000ED28E82AFF0CFF0CFE28F801F082CDB7FA
:1014A000DEB7E7E00C94A6309C0183E020323807D9
:1014B00008F183E0283E380740F42F51334074E0B0
:1014C000369527957A95E1F71AC087E0203D3807D1
:1014D00018F42C5D334013C088E02839380768F4CD
:1014E000285C374064E0369527956A95E1F72D50E2
:1014F0003C4F05C020E030E002C02FEF33E0C901CF
:1015000008959C018C30910540F4F4E0220F331FC4
:10151000FA95E1F7285D3C4F15C083E0243F38077A
:1015200018F424523C4F0EC084E02030380740F4B9
:101530002657334FE4E0220F331FEA95E1F702C04C
:1015400020E938E0C90108959C0136952795257555
:101550003575821B930B9C01237333739695879586
:101560009695879583739373820F931F9C01A4E0D4
:1015700036952795AA95E1F7280F391F2F703F70F0
:1015800041E051E0249FC001259F900D349F900DB4
:101590001124892F0895882321F02D9800002B9A7B
:1015A00003C02D9800002B9800002D9A000008958C
:1015B0002D9A000093B12D98000081E094FF80E007
:1015C00008950F931F93082F5C9A2D985C9818E04C
:1015D000802F80780E94CB0A000F1150C9F72D98F8
:1015E0001F910F9108958F770E94E10A08950F933C
:1015F0001F93082F18E0802F80780E94CB0A000FDD
:101600001150C9F72D981F910F9108950F931F93B3
:101610002D9818E080E0082F000F0E94D80A800F54
:101620001150C9F71F910F9108950E94F30A0E946B
:10163000060B5C9A0895A1E0B0E0E1E2FBE00C94B7
:101640008F30806869830E94E10A6981862F0E9439
:10165000F70A5C9A2196E2E00C94AB301F9310914C
:10166000D5031827ECECF3E0E80FF11D89E7678557
:101670000E941B0B8DE3612F0E941B0B82E4612FE4
:101680000E941B0B1F91089586E20E94150B08957E
:10169000CF93DF93EC018CE16C810E941B0B8DE1F9
:1016A0006D810E941B0B8EE16E810E941B0B80E2FC
:1016B0006F810E941B0B81E268850E941B0B82E2F6
:1016C00069850E941B0B83E26A850E941B0B84E2E2
:1016D0006B850E941B0B85E26C850E941B0B8AE2C6
:1016E0006D850E941B0B8EE66E850E941B0B8FE69C
:1016F0006F850E941B0B80E768890E941B0B81E7A6
:1017000069890E941B0B82E76A890E941B0BDF918B
:10171000CF910895A1E0B0E0E0E9FBE00C948930BE
:101720007B018C01603048E374074CE984074CE18D
:10173000940748F520E836E948E950E00E94423035
:10174000B8EECB2EBFEFDB2EC20ED31EB90180E068
:1017500090E020E839E647E65FEF0E9410306E0D1A
:101760007F1D801F911FA2E0660F771F881F991FA2
:10177000AA95D1F721E732E040E050E00E944230E4
:10178000E32E80E425C020E03DE241E351E00E94E9
:101790004230F8EECF2EFFEFDF2EC20ED31EB9017E
:1017A00080E090E020E033ED4EEC5EEF0E941030E0
:1017B0006E0D7F1D801F911F660F771F881F991F59
:1017C00021E732E040E050E00E944230E32E80E624
:1017D0006C2D6F71680F85E729830E941B0B86E7CC
:1017E0006E2D0E941B0B87E72981622F0E941B0B25
:1017F0002196E8E00C94A5308F929F92AF92BF9211
:10180000CF92DF92EF92FF920F931F93982E89E071
:1018100061E00E94BB2D62E370E080E090E00E94F6
:10182000E92C89E060E00E94BB2D62E370E080E07B
:1018300090E00E94E92C83E00E94150B8093F60350
:1018400084E00E94150B8093F70386E060E00E941D
:101850001B0B87E061E00E941B0B89E06FE70E9491
:101860001B0B8AE065E00E941B0B8BE065E10E9488
:101870001B0B8CE062E10E941B0B8DE06DEF0E9460
:101880001B0B8EE060E00E941B0B992019F08AE18F
:1018900093E00FC04091F30350E083E190E0489F54
:1018A0009001499F300D589F300D1124C901855476
:1018B0009D4F0E94480B80E36CE80E941B0B82E363
:1018C0006FE00E941B0B83E362E40E941B0B84E326
:1018D0006AE00E941B0B85E36AE20E941B0B86E311
:1018E0006DE20E941B0B87E364ED0E941B0B88E3F3
:1018F00060E00E941B0B89E360E00E941B0B9920B3
:1019000049F4A090D503B090D603C090D703D090EF
:10191000D80308C095E7A92E91ECB92E91ECC92EF9
:101920009EEDD92E8AE3882EED2CFF240027112767
:10193000882D6E2D0E941B0B882D8B5F6E2D0E94B3
:101940001B0BDC2CCB2CBA2CAA248394882D8E3331
:1019500059F783E46FEF0E941B0B84E46FEF0E9442
:101960001B0B85E46FEF0E941B0B86E46FEF0E9458
:101970001B0B992019F08DE666E003C08DE660919F
:10198000D9030E941B0B89E760E00E941B0B8AE7CA
:101990006091DA030E941B0B83E760E00E941B0B3F
:1019A00084E760E00E941B0B992049F46091D10309
:1019B0007091D2038091D3039091D40304C060EC62
:1019C00072E98DEE99E10E948A0B1F910F91FF90B1
:1019D000EF90DF90CF90BF90AF909F908F90089541
:1019E00087E061E00E941B0B8EE764E20E941B0B04
:1019F00088E063E00E941B0B88E060E00E941B0B04
:101A000087E065E00E941B0B85E062E00E941B0BF3
:101A100083E00E94150B8093F60384E00E94150B6F
:101A20008093F703089583E00E94150B8093F603DB
:101A300084E00E94150B8093F70387E061E00E9429
:101A40001B0B6AE070E080E090E00E94E92C0E94AD
:101A5000F00C00000895A2E2B0E0E1E3FDE00C9498
:101A60007F301E010894211C311C80E1D1011D92A0
:101A70008A95E9F78CEF93E060E071E00E94AC2E6C
:101A80000E94130D1E8A1F8A188E198E00E01D8A6F
:101A900010E088249924540140E4442E41EE542E51
:101AA0004DE9642E48E1742E30E5C32E33ECD32E7D
:101AB000E12CF12C24EF31E040E050E02E8F3F8FFD
:101AC00048A359A380EC91EDA8E9BBE18A8F9B8FD5
:101AD000AC8FBD8F20E431EE4DE958E1298B3A8B74
:101AE0004B8B5C8BFAC08CEF93E00E94C829843446
:101AF00061F0853430F4833261F18C3209F0C0C07A
:101B000039C0833509F0BCC0E1C08CEF93E064E4D8
:101B10000E947C2E8CEF93E040E451EE6DE978E179
:101B20002AE030E00E94662F8CEF93E06CE20E9486
:101B30007C2E8CEF93E040EC51ED68E97BE12AE0EC
:101B400030E00E94662F8CEF93E06CE20E94BF2E83
:101B5000C4C019821A821B821C821D821E821F82AF
:101B6000188619861A861B861C861D861E861F8669
:101B7000188A39C01F5F143009F0AFC069817A81BB
:101B80008B819C8128EE33E040E050E00E941030D1
:101B9000698B7A8B8B8B9C8B6D817E818F819885F5
:101BA0000E9410306A8F7B8F8C8F9D8F89859A85DC
:101BB000AB85BC858E8F9F8FA8A3B9A36D857E85CD
:101BC0008F8598890E9410306B017C0190E2C916C4
:101BD0009EE4D90690E0E90690E0F90630F48CE145
:101BE00062E30E941B0B10E078C0A0E3CA16A5E7D1
:101BF000DA06A0E0EA06A0E0FA0618F48CE162E258
:101C0000F0CFB0E4CB16BCE9DB06B0E0EB06B0E009
:101C1000FB0618F48CE166E2E4CFE0E5CE16E3ECD7
:101C2000DE06E0E0EE06E0E0FE0618F48CE162E19C
:101C3000D8CFF0E6CF16FAEEDF06F0E0EF06F0E0E0
:101C4000FF0618F48CE165E1CCCF20E7C21621E154
:101C5000D20621E0E20620E0F20618F48CE161E011
:101C6000C0CF30EAC31636E8D30631E0E30630E0F1
:101C7000F30618F48CE163E0B4CF8CE165E0B1CFFA
:101C800080538AA38A3048F5212E3324220C331C3A
:101C9000220C331C41E050E04C0F5D1F240E351E1A
:101CA000D1016D917D918D919C912AE030E040E0D1
:101CB00050E00E941030BAA16B0F711D811D911D63
:101CC000F101608371838283938307C049885A88B6
:101CD0006B887C888824992454018CEF93E00E94BF
:101CE0009829009709F0FFCE81149104A104B10452
:101CF00089F4C301B2010E948A0B61E070E080E0C8
:101D000090E00E94E92C1E8A1F8A188E198E00E02E
:101D1000FFEFFD8B2E8D3F8D48A159A182169306B2
:101D2000A406B506D8F40E94440B2E893F89488D3D
:101D3000598D280F311D411D511D2E8B3F8B488F12
:101D4000598F081708F4082F3D89831708F48D8BE5
:101D50000894811C911CA11CB11C56C0C301B20186
:101D600028EE33E040E050E00E9442308CEF93E0F8
:101D7000BA01A9012AE030E00E940F2F8CEF93E016
:101D80006CE20E947C2E8CEF93E0602F4AE050E0E2
:101D90000E944B2F8CEF93E06CE20E947C2E6E89A8
:101DA0007F89888D998DA50194010E9442308CEF26
:101DB00093E0BA01A9012AE030E00E940F2F8CEFD6
:101DC00093E06CE20E947C2E8CEF93E06D894AE0F8
:101DD00050E00E944B2F8CEF93E06CE20E94BF2EEC
:101DE0004C0C5D1C6E1C7F1C8A8D9B8DAC8DBD8D3B
:101DF00084159505A605B70520F449885A886B888F
:101E00007C8888249924540129893A894B895C89E2
:101E1000283E83E0380780E0480780E0580709F053
:101E20005CCFA296E2E10C949B30A1E0B0E0EBE144
:101E3000FFE00C948B30182F062F8EE399830E94BD
:101E40001B0B9981612F792F7B0106C0F7016191EE
:101E50007F018FE70E941B0B8E2D811B8017B0F333
:101E600085E064E00E941B0B83E00E94150B8093C9
:101E7000F60384E00E94150B8093F7030E94C32CA5
:101E80006093F8037093F9038093FA039093FB0334
:101E900087E069E00E941B0B81E08093A6032196F6
:101EA000E6E00C94A7300E94150F8091A6038130C4
:101EB000F1F40E94C32C2091F8033091F903409172
:101EC000FA035091FB03621B730B840B950B603A72
:101ED00026E8720721E0820720E0920730F307C06E
:101EE0008CEF93E06DE071E00E94AC2E089580913C
:101EF000A6038130A9F308950F931F93CF93DF9327
:101F00008C01CCEFD3E0CE01612F70E04AE050E0CD
:101F10000E94312FCE016EE20E947C2EB80154E067
:101F2000769567955A95E1F76F707070CE014AE02B
:101F300050E00E94312FCE016EE20E947C2EB8014B
:101F40006F707070CE014AE050E00E94312FDF9137
:101F5000CF911F910F9108958CEF93E00E949829E3
:101F600020E830E0281B390B73E0369527957A95E9
:101F7000E1F744E650E0249FC001259F900D349F77
:101F8000900D112464E0969587956A95E1F7089580
:101F9000AF92BF92DF92EF92FF920F931F93DF9366
:101FA000CF9300D0CDB7DEB75C018EEF80931706DC
:101FB00089E08093180680912806809319068F5F28
:101FC0008093280683E380931A0684E480931B069B
:101FD00086EA80931C060DE116E030931E062093DE
:101FE0001D06D80113961C921E9212974A8369838C
:101FF0000E94AC0FF80186834A814483698165831E
:10200000178210868091180657E0D52ED80EE82E3C
:10201000FF24B7016A5F7F4FFB01E95EF94F85E15D
:102020008083F801359701E08FEF9FEF1DC031915C
:102030003827232F2295207F232730E0522F442753
:10204000D90113E0AA0FBB1F1A95E1F74A275B27B6
:10205000892F992784279527A4E035952795AA9558
:10206000E1F7822793270F5F0D1508F3695E794F1B
:10207000DB018C93F701E95EF94F9783D501ED9170
:10208000FC910484F585E02DC50109958131910508
:1020900060F0D501ED91FC910280F381E02DC50146
:1020A00067E176E041E150E009950F900F90CF9104
:1020B000DF911F910F91FF90EF90DF90BF90AF9055
:1020C0000895DC011896EC911897F0E0E930F105DD
:1020D00008F05CC0EC5CFF4F0C94B6306E3F09F02A
:1020E00055C01C9211961C92119712961C92129731
:1020F00013961C92139714961C92149716961C9282
:102100001E92159717961C92179781E02AC06C9320
:1021100082E027C011966C93119783E022C012963B
:102120006C93129784E01DC013966C93139785E00F
:1021300018C014966C93149786E013C017968C9170
:1021400017978F5F17968C9317979C91891700F1BB
:1021500087E007C015966C93159716961C921697F4
:1021600088E018968C93189711C0362F20E01596AA
:102170008D919C911697822B932B16969C938E9300
:10218000159718961C92189781E0089580E008959D
:1021900080E008951F920F920FB60F9211242F9393
:1021A0003F934F938F939F93EF93FF934091C6007C
:1021B0008091290690912A06019620912F06309150
:1021C00030068223932320912B0630912C06821710
:1021D000930781F02091290630912A06E09131067B
:1021E000F0913206E20FF31F408390932A0680930A
:1021F000290609C080912D0690912E060196909394
:102200002E0680932D06FF91EF919F918F914F9114
:102210003F912F910F900FBE0F901F9018951F9216
:102220000F920FB60F9211242F933F938F939F938A
:10223000EF93FF9320913506309136068091330657
:102240009091340628173907E9F08091350690916E
:102250003606E0913B06F0913C06E80FF91F8081BD
:102260008093C600809135069091360601962091A4
:10227000390630913A068223932390933606809351
:10228000350610C020913306309134068091350612
:10229000909136062817390729F48091C1008F7D67
:1022A0008093C100FF91EF919F918F913F912F916A
:1022B0000F900FBE0F901F9018951F93182F8CEF43
:1022C00093E0612F0E941A2A80911A04812780933B
:1022D0001A041F910895A1E0B0E0E1E7F1E10C9448
:1022E0008F3099830E945D119981892F0E945D1121
:1022F0002196E2E00C94AB30FF920F931F93CF93A3
:10230000DF93F82E8B0110921A04CCEFD3E0CE01AC
:1023100065EB0E941A2ACE0162E60E941A2A8F2DCE
:102320000E945D11C8010E946B11CDB7DEB7E5E0D8
:102330000C94A8308CEF93E060911A040E941A2A42
:102340000895882319F069E171E002C06DE171E040
:102350008CEF93E00E94AC2E0895FF920F931F9391
:10236000CF93DF938CEF93E066E17CE00E94572EE1
:102370004091D1035091D2036091D3037091D40363
:102380008CEF93E02AE030E00E941E2F8CEF93E068
:1023900060E07CE00E94572E4091D5035091D60317
:1023A0006091D7037091D8038CEF93E020E130E087
:1023B0000E941E2F8CEF93E06AEE7BE00E94572E66
:1023C0008CEF93E06091D9034AE050E00E94532FD4
:1023D0008CEF93E064ED7BE00E94572E8CEF93E04E
:1023E0006091DA034AE050E00E94532F8CEF93E0B3
:1023F0006EEB7BE00E94572ECBEDD3E0FF2414C0A0
:102400008CEF93E060E271E00E94792E21968CEFD0
:1024100093E0F80160814AE050E00E944B2FF39472
:10242000FF2DF83109F497C08E018881882309F4C3
:1024300092C0FF2059F3E4CF8CEF93E065E77BE097
:102440000EC08CEF93E06FE57BE009C08CEF93E06A
:1024500069E57BE004C08CEF93E06FE47BE00E94D1
:10246000992E8CEF93E06BE37BE00E94572E409116
:10247000CD035091CE036091CF037091D0038CEFC8
:1024800093E02AE030E00E941E2F8CEF93E062E29E
:102490007BE00E94572E8091AD0380710E94A111B4
:1024A0008CEF93E069E07BE00E94572E8091AD03B2
:1024B00080740E94A1118CEF93E060EF7AE00E949B
:1024C000572E8091AD0380720E94A1118CEF93E092
:1024D00065ED7AE00E94572E8CEF93E06091F50352
:1024E0004AE050E00E94532F8CEF93E068EB7AE0D3
:1024F0000E94572E8CEC93E00E946E09AB01BC0148
:102500008CEF93E02AE030E00E940F2F8CEF93E0F5
:1025100063EB7AE00E94572E8CEC93E00E946E09E8
:102520009B01AC0160E472E48FE090E00E944230D5
:102530008CEF93E0BA01A9012AE030E00E940F2F4E
:102540008CEF93E060EB7AE00E94992ECDB7DEB776
:10255000E5E00C94A8308CEF93E00E94842E8CEF81
:1025600093E068EA7BE00E94572E8CEF93E0609145
:10257000F3034AE050E00E94532F8CEF93E063E9AD
:102580007BE00E94572EE091F403F0E0E770F070DA
:10259000EE0FFF1FE259FC4F608171818CEF93E0D9
:1025A0000E94AC2E8CEF93E06EE77BE00E94572EEA
:1025B0008091F40390E0887190708830910509F45F
:1025C00040CF8930910524F4009709F435CF49CFE5
:1025D0008031910509F43ACF8831910509F041CF56
:1025E0003ACFEF92FF920F931F93882339F48CEF29
:1025F00093E067EA7AE00E94992E2DC090E00E9455
:102600002D0924E630E040E050E00E944230CA014B
:10261000B9012AE030E040E050E00E9442307B0106
:102620008C018CEF93E0BA01A9012AE030E00E940E
:102630000F2F8CEF93E06EE20E947C2E8CEF93E0E4
:10264000B801A7012AE030E00E940F2F8CEF93E041
:1026500063E70E94BF2E1F910F91FF90EF900895A6
:10266000FF920F931F93CF93DF938CEF93E06DE96D
:102670007AE00E94572E8091B103813041F48CEFB3
:1026800093E064E87AE00E94992EFF246EC08230C5
:1026900029F48CEF93E06DE67AE0F5CF843029F4ED
:1026A0008CEF93E069E57AE0EECF853071F78CEF3F
:1026B00093E06EE47AE0E7CFCF2DD0E0C930D105CA
:1026C0001CF06F2D685C02C06F2D6F5C8CEF93E087
:1026D0000E947C2E8CEF93E066E47AE00E94572EF5
:1026E000BE016F5F7F4F8CEF93E04AE050E00E94A5
:1026F0009B2F8CEF93E06BE37AE00E94572E8E01C4
:102700000F541C4FD8011196EC911197E032F8F458
:102710008CEF93E06EE27AE00E94572EF8018181FF
:10272000803130F08CEF93E06AE271E00E94792E04
:10273000CF54DC4F698170E06F7070706F5F7F4FB6
:102740008CEF93E04AE050E00E94A52F0DC0F0E02E
:10275000EF70F070EE0FFF1FE25BFC4F6081718144
:102760008CEF93E00E94AC2EF3948091A404F816B1
:1027700008F4A2CF8CEF93E063E17AE00E94572E39
:102780008091C9030E94F1128CEF93E068EF79E029
:102790000E94572E8091CA030E94F1128CEF93E0A1
:1027A0006DED79E00E94572E8091CB030E94F112CB
:1027B0008CEF93E062EC79E00E94572E4091C103C8
:1027C0005091C2036091C3037091C4034115510538
:1027D0006105710539F18CEF93E02AE030E00E9449
:1027E0001E2F8CEF93E06FE879E00E94572E8091C6
:1027F000C5030E945D09AB01BC018CEF93E02AE0A8
:1028000030E00E941E2F8CEF93E06BE679E00E948F
:10281000572E8CEF93E06091C6034AE050E00E948F
:10282000532F06C08CEF93E062E679E00E94992E68
:102830008CEF93E065E479E00E94572E6091C70326
:102840007091C8038CEF93E04AE050E00E94382F6B
:102850008CEF93E068E279E00E94572E6091C0030C
:10286000603150F470E06F5F7F4F8CEF93E04AE08F
:1028700050E00E94A52F06C08CEF93E06FE179E055
:102880000E94992E8CEF93E062E079E00E94572E2F
:102890008091BF0380FF03C062E271E002C066E284
:1028A00071E08CEF93E00E94AC2E8CEF93E065EE2C
:1028B00078E00E94572E8091BF0382700E94A11180
:1028C0008CEF93E066EC78E00E94572E8091BF0376
:1028D00084700E94A1118CEF93E067EA78E00E9477
:1028E000572E8091BF0388700E94A111CDB7DEB72B
:1028F000E5E00C94A83080911B04992787FD909502
:10290000A92FB92F01968D30910508F07AC0835C0C
:102910009F4FFC010C94B6308CEF93E06AE978E0AD
:102920000E94992E84E693E00E947C0F8CEF93E046
:1029300062E878E00E94992E8CEF93E06DE578E0F4
:102940000E94992E8CEF93E063E378E00E94992E29
:102950008CEF93E062E178E00E94992E8CEF93E097
:1029600065EE77E00E94992E8CEF93E06FEB77E0B5
:102970000E94992E8CEF93E06BE977E00E94992EEC
:102980008CEF93E064E777E00E94992E8CEF93E060
:102990000E94842E0E94AD1134C08CEF93E067E555
:1029A00077E02DC08CEF93E062E377E028C08CEFF6
:1029B00093E06DE177E023C08CEF93E06EEF76E07B
:1029C0001EC08CEF93E06AEB76E019C08CEF93E0C9
:1029D00065EA76E014C08CEF93E060E976E00E944F
:1029E000992E8CEF93E06AE476E009C08CEF93E0D7
:1029F00064E376E004C08CEF93E068E176E00E9447
:102A0000992E6AE070E080E090E00E94E92C04C01A
:102A10008CEF93E00E94C8298CEF93E00E949829E4
:102A20000097B1F708950F931F93CF93DF932091F1
:102A30001B042F3FA9F58CEF93E06BE076E00E943A
:102A4000572E84E693E00E947C0F8CEF93E06AEEB1
:102A500075E00E94572E8091A5049091A6040E94D3
:102A60007C0F8CEF93E067EB75E00E94992E8CEF62
:102A700093E064E975E00E94992E8CEF93E06CE797
:102A800075E00E94992E8CEF93E067E575E00E9457
:102A9000992E8CEF93E00E94842E0E94301369C01F
:102AA00012160CF066C0332727FD30958091A404E0
:102AB00090E0821793070CF45CC08CEF93E062E423
:102AC00075E00E94572E60911B04772767FD709573
:102AD0008CEF93E04AE050E00E94A52F8CEF93E04A
:102AE00067E175E00E94572E10E008E23AC0C12F5E
:102AF000D0E0CC0FDD1FCD57DB4F288130E0809137
:102B00001B04992787FD909501972817390741F5F0
:102B10008CEF93E06CE271E00E94792E8CEF93E0F1
:102B2000602F4AE050E00E944B2F8CEF93E060E36F
:102B300071E00E94792EE981F0E0EF70F070EE0F05
:102B4000FF1FE25BFC4F608171818CEF93E00E947C
:102B5000792E8CEF93E064E371E00E94792E0F5F91
:102B60001F5F8091A304181710F28CEF93E00E946E
:102B7000842EDF91CF911F910F910895EF92FF92D4
:102B80001F93CF93DF93CBEDD3E010E07E018881DC
:102B90008823F1F18CEF93E066E371E00E94792ED7
:102BA0008CEF93E0612F4AE050E00E944B2F8CEFB6
:102BB00093E063E471E00E94792E2196F701608131
:102BC00070E080E090E02091DA0330E040E050E0F7
:102BD0000E94103020E137E240E050E00E941030C7
:102BE000AB01BC018091D1039091D203A091D3039A
:102BF000B091D403480F591F6A1F7B1F8CEF93E0DD
:102C00002AE030E00E941E2F1F5F183109F0BECF6E
:102C1000DF91CF911F91FF90EF9008951092810462
:102C200085E6ECE1F4E0DF011D928A95E9F708956D
:102C30001F93182F8F3711F08830E1F5E091810450
:102C4000EE2309F455C0E150E0938104F0E0E45E26
:102C5000FB4F10828CEF93E06DE00E941A2A10E087
:102C60000AC0E12FF0E0E45EFB4F8CEF93E060815F
:102C70000E941A2A1F5F80918104181790F38CEF2D
:102C800093E060E20E941A2A8CEF93E06DE00E94CC
:102C90001A2A10E00AC0E12FF0E0E45EFB4F8CEF4F
:102CA00093E060810E941A2A1F5F809181041817A7
:102CB00090F31CC08B3119F40E940E161FC08D308A
:102CC000E9F08A30D9F080918104843688F48CEF61
:102CD00093E0612F0E941A2A80918104E82FF0E08E
:102CE000E45EFB4F10838F5F8093810480E007C018
:102CF0008CEF93E067E00E947C2EF8CF81E01F917B
:102D00000895ACE1B0E0E7E8F6E10C9489309091E9
:102D10001B049F3F09F040C1282F30E02A5030406B
:102D20002F36310508F031C1265B3F4FF9010C9475
:102D3000B6308CEF93E067E471E0AEC08CEF93E0C7
:102D400067E471E00E94AC2E19C18CEF93E063E55B
:102D500071E00E94AC2E85E78983DE011296E1EBDB
:102D6000F3E08BE101900D928150E1F7CE010196E5
:102D70006CE10E94530F0E94F00C83E08093A60345
:102D800068EC70E080E090E00E94E92C8091A6035E
:102D9000843009F0FAC08FE70E94F30A0E94060B04
:102DA0008983853509F0F1C08CEF93E069EF74E019
:102DB0000E94992E8CEF93E06BED74E00E94992EA7
:102DC0008CEF93E06DEB74E0A9C08CEF93E06BE6C1
:102DD00071E00E94AC2E89E68983CE01019661E004
:102DE0000E94530F0E94F00C83E08093A60368ECCE
:102DF00070E080E090E00E94E92C8091A60384308E
:102E000009F0C3C08FE70E94F30A0E94060B898372
:102E10008E010E5F1F4F4DE1E42EF12CEC0EFD1ED6
:102E20000E94060BF80181938F01EE15FF05C1F793
:102E3000A1EBB3E0FE0132968BE101900D9281503F
:102E4000E1F78981893409F0A0C08CEF93E06FE944
:102E500074E00E94992E8CEF93E061E874E00E9488
:102E6000992E8CEF93E063E674E058C08CEF93E00A
:102E700065E871E00E94AC2E8EEF80931B0485C044
:102E80008052875080539091A404981708F074C022
:102E90008CEF93E064E971E00E94AC2E76C084E18F
:102EA00080931B048CEF93E06CE274E037C085E103
:102EB00080931B048CEF93E065EF73E02FC086E1F5
:102EC00080931B048CEF93E06EEB73E027C087E1E7
:102ED00080931B048CEF93E064E773E01FC088E1EC
:102EE00080931B048CEF93E063E673E017C089E1E5
:102EF00080931B048CEF93E06FE473E00FC08AE1D2
:102F000080931B048CEF93E06AE373E007C08BE1CE
:102F100080931B048CEF93E062E173E00E94992E92
:102F200034C08CEF93E068EF72E00E94992E80919C
:102F3000BF0391E01DC08CEF93E062EE72E00E944F
:102F4000992E8091BF0392E013C08CEF93E06DEC5B
:102F500072E00E94992E8091BF0394E009C08CEF2B
:102F600093E062EB72E00E94992E8091BF0398E09B
:102F700089278093BF038FEF80931B040E94131552
:102F800004C08CEF93E00E94C8298CEF93E00E946C
:102F900098290097B1F761C10E941816882309F497
:102FA0005CC180918104882321F48FEF80931B04FE
:102FB0004CC18CE194E060E070E040E050E00E94A1
:102FC000583200911B04202F332727FD3095432FC3
:102FD000532F215030402B31310508F026C12754A2
:102FE0003F4FF9010C94B630112707FD1095209141
:102FF000A40430E0201731070CF417C19B01AC0189
:1030000021503040404050402032310541055105AB
:1030100080F0A3E8B4E0E091A304CE2EDD24CC0C34
:10302000DD1CCA0EDB1EFF2428E2E22E01501040F8
:1030300020C0F801EF54FC4F61506083DEC02C913A
:1030400030E020173107A1F42E2D30E040E050E0B1
:10305000261737074807590751F498012F543C4F5A
:1030600011964C911197F9014183FF24F394E39455
:103070001296AC15BD0519F7BEC06F3F71058105ED
:10308000910511F008F0D1C06093C903B6C06F3F3D
:1030900071058105910511F008F0C7C06093CA035E
:1030A000ACC06F3F71058105910511F008F0BDC0FE
:1030B0006093CB03A2C020911C0420622037F9F456
:1030C0008DE194E060E070E040E050E00E94583212
:1030D0009B01AC0121503040404050402830310528
:1030E0004105510508F0B4C024ED30E340E050E064
:1030F0000E9410306A5E7C4A8A46954E26C026366B
:10310000F9F48DE194E060E070E040E050E00E946E
:1031100058329B01AC012150304040405040273094
:1031200031054105510508F093C028EA31E640E039
:1031300050E00E941030645E7C438E46944E05C081
:10314000611571058105910579F09B01AC01205451
:10315000314E4D4958412138F0EF3F07FAEF4F0704
:10316000F2E05F0708F061C06093C1037093C2038F
:103170008093C3039093C40340C06F3F71058105E2
:10318000910511F008F051C06093C50336C09B0152
:10319000AC0121503040404050402F3F31054105A7
:1031A000510508F042C06093C60327C09B01AC01E3
:1031B000245C3940404050402D34EDE13E07E0E0D2
:1031C0004E07E0E05E0728F47093C8036093C703DE
:1031D00014C0611571058105910521F48FEF80936D
:1031E000C0030BC06131710581059105F0F4615098
:1031F0006093C00302C0FF20C1F080918204882345
:10320000D1F48091D5039091D603A091D703B091CA
:10321000D8030196A11DB11D8093D5039093D603C9
:10322000A093D703B093D80306C08CEF93E066EA6F
:1032300071E00E94AC2E0E940E168FEF80931B044B
:103240008CEF93E06AE00E94BF2E0E94131505C028
:1032500061E070E080E090E078CF6C96E8E00C945C
:10326000A530ACE1B0E0E7E3F9E10C9487300E94CF
:10327000C32C6B017C0181E00E94FC0B74E7A72E3C
:103280008E010F5F1F4F63E0B62EA982C80161E077
:103290000E94530FB092A6030E94F00C6AEF70E0F8
:1032A00080E090E00E94E92C8091A603833009F031
:1032B0007EC08CEF93E00E949829009709F077C0B8
:1032C0000E94C32C6C197D098E099F09603823EC7C
:1032D000720729EC820721E09207B8F268C08FE7F5
:1032E0000E94F30A0E94060B8983843509F058C0B6
:1032F0000E94060B182F00E01093A6040093A5046B
:103300000E94060B080F111D1093A6040093A5043C
:103310000E94060B8093A4040E94060B8093A304D2
:103320008131F0F5CC2407C00E94060BF801ED575F
:10333000FB4F8083C3940C2D10E08091A30490E098
:10334000880F991F0817190778F380E78983CE0142
:10335000019661E00E94530F83E08093A6030E94D0
:10336000F00C62E370E080E090E00E94E92C809134
:10337000A6038330B9F08FE70E94F30A0E94060B80
:103380008983803569F401EB13E00E94060BF80194
:1033900081938F01F3E00C3C1F07B9F781E003C074
:1033A00083E001C082E06C96EAE00C94A330809147
:1033B000A603833009F093CFF5CFAEE3B0E0E3EEA0
:1033C000F9E10C948B307B018A018B3009F41FC129
:1033D0008C3040F5853009F484C0863080F482302A
:1033E00009F459C0833020F4813009F044C242C04E
:1033F000833009F461C0843009F03DC265C0883073
:1034000009F4A0C0893038F4863009F489C08730C7
:1034100009F031C28FC0893009F49CC08A3009F0AC
:103420002AC2CBC0893609F47AC18A3680F486363E
:1034300009F42AC1873620F4853609F01CC210C170
:10344000873609F435C1883609F015C239C18C3682
:1034500009F4BCC18D3638F48A3609F46BC18B3659
:1034600009F009C2A7C18D3609F4E5C1873C09F00E
:1034700002C2F4C181E06AE270E00E947C110CECAF
:1034800013E0F80181918F010E945D11F3E0063F86
:103490001F07B9F7F8C182E06BE170E00E947C1170
:1034A00001EB13E0F80181918F010E945D11F3E0BF
:1034B0000C3C1F07B9F7E7C183E061E070E00E94B0
:1034C0007C110E943119DDC184E061E070E00E944E
:1034D0007C1181E00E945D110E949A110E942B0DC7
:1034E000D4C16091A30470E0660F771F85E00E944D
:1034F0007C1113E8E12E14E0F12E00E010E007C08B
:10350000F70181917F010E945D110F5F1F4F809134
:10351000A30490E0880F991F0817190788F3B3C117
:1035200086E062E070E00E947C1184E693E00E94F5
:103530006B11A9C187E061E070E00E947C1180916D
:10354000A4049FC188E061E070E00E947C1180913A
:10355000A70397C186E68983CE01019661E00E94A8
:10356000530F0E94F00C83E08093A60368EC70E098
:1035700080E090E00E94E92C8091A6038430D9F489
:103580008FE70E94F30A0E94060B8983863469F450
:1035900089E060E270E00E947C1100E20E94060B6C
:1035A0000E945D110150D1F76EC189E061E070E0C9
:1035B0000E947C11BDC089E05FC18AE069E070E0D3
:1035C0000E947C111092A803209116068091AD03F1
:1035D0009091AE03A091AF03B091B003222311F0FC
:1035E000806801C08F778093AD039093AE03A09362
:1035F000AF03B093B00308EA13E0F80181918F01A3
:103600000E945D11F3E0013B1F07B9F73CC18BE05D
:1036100061E270E00E947C118091E7048F3F39F0F5
:103620008091E704982F9F5F9093E70402C08091F8
:10363000E7040E945D1100E010E0F894F801EE0F3D
:10364000FF1FE35DFC4F808191810E94810A0E94EF
:103650006B1178940F5F1F4F0031110571F713C183
:1036600085E661E070E00E947C118AE2E816F104D0
:1036700009F006C1D801ECECF3E08D91819383E071
:10368000E63FF807D1F754C086E661E070E00E949B
:103690007C11EBE1EE16F10409F0F2C0D801E1EB88
:1036A000F3E08D91819383E0EC3CF807D1F740C0C3
:1036B00087E661E070E00E947C110E94730838C0C8
:1036C00088E661E070E00E947C1185E78E8FDE0164
:1036D0005F96E1EBF3E08BE101900D928150E1F711
:1036E000CE014E966CE10E94530F0E94F00C83E0D5
:1036F0008093A60360E273E080E090E00E94E92CF2
:103700008091A603843009F0BBC08FE70E94F30AC2
:103710000E94060B8E8F853509F0B2C009C089E67C
:1037200061E070E00E947C110E94EC070E945E083C
:1037300081E0A7C08AE661E070E00E947C1189E622
:103740008A83CE01029661E00E94530F0E94F00C22
:1037500083E08093A60360E273E080E090E00E9443
:10376000E92C8091A603843009F08AC08FE70E947B
:10377000F30A0E94060B8A838E010D5F1F4FEEE154
:10378000EE2EF12CEC0EFD1E0E94060BF80181932B
:103790008F01EE15FF05C1F7A1EBB3E0FE013396F3
:1037A0008BE101900D928150E1F78A81893409F013
:1037B00067C0BECF8BE661E070E00E947C11F8012B
:1037C00080810E9446080E947C08B2CF8CE661E0AE
:1037D00070E00E947C11F0E2EF16F10471F487E6CC
:1037E0008E8FDE015F96F80180E201900D9281508C
:1037F000E1F7CE014E9661E205C087E48E8FCE01DF
:103800004E9661E00E94530F0E94F00C83E080937B
:10381000A6036CE474E080E090E00E94E92C8091C3
:10382000A603843069F58FE70E94F30A0E94060B15
:10383000873431F57DCF8DE661E070E00E947C1128
:1038400089E0E816F104E1F4D801E8EAF3E08D91AB
:10385000819383E0E13BF807D1F76ACF87EC61E021
:1038600070E00E947C1181E00E945D110E949A111B
:10387000109219040AC08AEC61E070E00E947C1189
:1038800080E00E945D110E949A11EE96E6E00C9491
:10389000A730A0E0B0E0EFE4FCE10C94853054E008
:1038A000C52E46E0D42E35E0E32E0AEA15E024E6E4
:1038B000F22E92E0B92E83E0A82EA2C08CEF93E006
:1038C0000E94C8298093150690911406933021F127
:1038D000943028F4913099F09230B8F409C09530C2
:1038E00009F44AC0953020F1963009F089C061C0D2
:1038F000853B09F085C081E08093140681C0823643
:1039000009F07CC0B09214067BC0809313068093AC
:103910001206A092140674C080931006109211062D
:1039200090911206982790931206C092140668C0D0
:103930004E01982EE0E0EF01209110063091110623
:103940002C2B3D2B309311062093100690911206DC
:10395000982790931206E09214062536310508F454
:103960004FC08CEC61E070E00E947C1181E00E940D
:103970005D110E949A1142C020910E0630910F06EF
:10398000F901E655FA4F808390911206982790939B
:103990001206C901019690930F0680930E0620919E
:1039A0001006309111068217930750F1D092140639
:1039B00027C090911206981759F460910E067091E5
:1039C0000F06809113064AEA55E00E94DD190DC0EA
:1039D0008BEC62E070E00E947C11809113060E94E3
:1039E0005D1180911A040E945D11F8018F2C1192D3
:1039F0008A94E9F710920F0610920E0610921406A0
:103A00008CEF93E00E949829009709F057CFCDB72B
:103A1000DEB7ECE00C94A1308CEF93E066E672E048
:103A20000E94992E8CEF93E06EE472E00E94992E32
:103A30008CEF93E00E949829009731F08CEF93E08F
:103A40000E94C8290E9481160E943119823019F003
:103A5000833069F405C08CEF93E060E372E004C04A
:103A60008CEF93E069E172E00E94992E08958FEF48
:103A700080931B04109282040E9413150CC08CEFDB
:103A800093E00E949829009731F08CEF93E00E9418
:103A9000C8290E94811680911B048E3F81F70895EA
:103AA0001F9310911B041F3F09F0FDC0893409F4D6
:103AB0006DC08A3440F5883309F47FC0893368F4D7
:103AC000803309F48CC0813308F075C08B3109F460
:103AD00053C0813209F0E1C043C0813409F4A0C071
:103AE000823438F4893309F478C0803409F0D5C0C1
:103AF00037C0843409F4C6C0863409F459C082340E
:103B000009F0CBC0A0C0843609F4BCC08536A8F447
:103B1000883591F1893538F4823509F442C083350E
:103B200009F0BBC022C0813609F47AC0823609F49C
:103B30008AC08A3509F0B1C0ABC0823791F18337B2
:103B400030F48636A9F1893609F0A7C01FC088373E
:103B500099F08A3709F49CC0833709F09EC005C0EC
:103B60008CEF93E067E471E019C00E9473088CEF5A
:103B700093E064EC71E006C00E947C088CEF93E057
:103B80006EED71E00E94AC2E8EEF85C00E94EC07B6
:103B90000E945E088CEF93E06DEF71E00E94AC2E06
:103BA0007CC00E948F088CEF93E066E172E0F6CF54
:103BB0000E94BE1572C080536EC08CEF93E066E029
:103BC00072E00E94992E9091F403892F885F88718A
:103BD000977E892B8093F40320C089E05CC08CEF32
:103BE00093E063EF71E00E94992E8091AD03909174
:103BF000AE03A091AF03B091B00320E130E040E00C
:103C000050E082279327A427B5278093AD03909394
:103C1000AE03A093AF03B093B00310931B043DC059
:103C20008CEF93E06DED71E00E94992E8091AD03D1
:103C30009091AE03A091AF03B091B00320E430E0C7
:103C400040E050E012C08CEF93E06CEC71E00E9419
:103C5000992E8091AD039091AE03A091AF03B091E6
:103C6000B00320E230E040E050E082279327A42711
:103C7000B5278093AD039093AE03A093AF03B093A9
:103C8000B00308C08BE080931B040E947B1405C026
:103C90000E940C1D8FEF80931B0480911B048E3FAC
:103CA00009F0EDC0F4C00E941816882309F4EFC093
:103CB00080918104882321F48FEF80931B04DFC05F
:103CC0008CE194E060E070E040E050E00E94583207
:103CD00020911B04332727FD3095432F532F21506C
:103CE00030402B30310508F0A6C02C523F4FF9016F
:103CF0000C94B6309B01AC012154314E4D495841D2
:103D00002F37F0EF3F07FAEF4F07F2E05F0708F0B9
:103D100092C06093D1037093D2038093D3039093A6
:103D2000D403B0C06093D5037093D6038093D703B8
:103D30009093D80381E080938204A4C06830710519
:103D40008105910508F077C06093D9039BC09B0162
:103D5000AC0121503040404050402A3031054105EF
:103D6000510508F068C06093DA038CC08CE194E0E0
:103D700060E271E00E948C3310E00CC0E12FF0E0B3
:103D8000E453FC4F87871F5F80E090E060E271E0C2
:103D90000E948C33009769F00E946633009749F0C7
:103DA000183160F3F1CFE12FF0E0E453FC4F1786B8
:103DB0001F5F1831C0F366C065307105810591053C
:103DC000D0F56093F3035EC09B01AC0121503040FD
:103DD00040405040263031054105510560F52091A5
:103DE000F403287F262B2093F4034CC09B01AC01E5
:103DF00021503040404050402030E2EC3E07E1E0AE
:103E00004E07E0E05E07B8F46093CD037093CE03F5
:103E10008093CF039093D00335C09B01AC01215018
:103E20003040404050402F3331054105510518F4D2
:103E30006093F50327C08CEF93E066EA71E00E947F
:103E4000AC2E13C08091D5039091D603A091D703D7
:103E5000B091D8030196A11DB11D8093D503909315
:103E6000D603A093D703B093D8030E940E168FEF0A
:103E700080931B048CEF93E06AE00E94BF2E0E94A7
:103E80007B1405C0809182048823E1F2EECF1F915C
:103E900008958FEF80931B04109282040E947B147C
:103EA0000CC08CEF93E00E949829009731F08CEFC2
:103EB00093E00E94C8290E94501D80911B048E3FF0
:103EC00081F76AE070E080E090E00E94E92C04C095
:103ED0008CEF93E00E94C8298CEF93E00E94982910
:103EE0000097B1F7089581E08093190408C08CEF22
:103EF00093E00E949829009711F00E94491C80913C
:103F000019048823A1F708951F93182F0E94C32C2A
:103F10006093B9047093BA048093BB049093BC047B
:103F20001093A704112329F040E051EE60E070E007
:103F300004C040E855E260E070E08CEF93E00E943E
:103F400088291F910895EF92FF920F931F93CF93AB
:103F5000DF93F82E092F8CEF93E06EE70E941A2A68
:103F6000EF2CE7017E01F02EE701FF24F0E2EF2EB7
:103F70008E0188818D57823040F48CEF93E06DE79D
:103F80000E941A2A88818E25888321968CEF93E0DF
:103F9000F80160810E941A2AF394FF2DF93041F74D
:103FA0008CEF93E06EE70E941A2ACDB7DEB7E6E009
:103FB0000C94A730A9E0B0E0E0EEFFE10C948F3064
:103FC0009091BD04992371F49EEF99838A836B834A
:103FD00050E0559547954C832D83198618861F828E
:103FE0001E823DC04091B804842F90E09C01B4E053
:103FF00035952795BA95E1F78F7090702817390796
:10400000E9F08DEF89831B82FE01349650E0242F66
:1040100030E0C901A4E095958795AA95E1F72F7046
:10402000307082179307C1F088559B4FDC018C914B
:104030008193405F5F5F563079F0E9CF8091BD0496
:1040400090E0019666E070E00E942F308093BD04FE
:104050002996E2E00C94AB304093B8045A83CE0129
:1040600001960E94A31FEACFA0E0B0E0EAE3F0E2ED
:104070000C9488306C018CEF93E06EE70E941A2A52
:104080008601EE24FF24C0E0D0E030E2B32E0BC066
:1040900028E0E216F10429F4FE01E0958E2FF601E6
:1040A00080870F5F1F4FF8016081862F8D57823008
:1040B00040F48CEF93E06DE70E941A2AF8016081CA
:1040C0006B258CEF93E00E941A2AE114F10459F059
:1040D000F80180819E01280F311DC901C92FDD27FC
:1040E000C80FD91FD0700894E11CF11C39E0E31609
:1040F000F10471F6CDB7DEB7E9E00C94A4308CEF93
:1041000093E06EE70E941A2A0895A9E0B0E0EBE878
:10411000F0E20C948E30182F362F8091BD0490E081
:10412000019664E270E00E942F308093BD0458E94C
:10413000598350E15A83813071F0813028F0823008
:1041400099F08330E1F416C085E08B8381EF8C8396
:104150002F5F2D8317C08B8381EF8C8384E6489F6C
:10416000A00111245D830EC084E08B8381EF8C83DA
:104170001D8308C08B8381EF8C833D8303C00E9425
:104180007F2004C0CE0101960E9434202996E3E0EE
:104190000C94AA30A1E0B0E0E0EDF0E20C9487309E
:1041A000C82ED62EB42EA02E29830E94C32C7B01AC
:1041B0008C013091A7048091B9049091BA04A09128
:1041C000BB04B091BC0429813323D1F0B801A7010D
:1041D000481B590B6A0B7B0BDB01CA01813E5EE277
:1041E000950750E0A50750E0B50738F1422FB21609
:1041F00008F44B2D8C2D6D2D2A2D0E94852015C085
:10420000B801A701481B590B6A0B7B0BDB01CA01E4
:10421000813355E7950750E0A50750E0B50768F0F2
:104220008C2D6D2D4B2D0E94DA1FE092B904F09277
:10423000BA040093BB041093BC042196EAE00C94EA
:10424000A3301F920F920FB60F9211241F932F933A
:104250003F934F935F936F937F938F939F93AF930E
:10426000BF93CF93DF93EF93FF93C0918600D091DC
:1042700087008091090590910A052091E804222386
:1042800009F047C09E01281B390BC9012091AD03DD
:1042900025FD02C09695879539E0853C930710F17E
:1042A00080914D038630D8F080914D038F3FB9F057
:1042B00040E00FC0842F90E0880F991FFC01E75168
:1042C000FB4F20813181835D9C4FFC013183208332
:1042D0004F5F80914D03481768F31092E7041092E6
:1042E0004D0317C0F2E08D3B9F0758F120914D031D
:1042F000203138F510914D030E94540AE12FF0E06F
:10430000EE0FFF1FE751FB4F918380831F5F1093D8
:104310004D03D0930A05C0930905FF91EF91DF91FA
:10432000CF91BF91AF919F918F917F916F915F914D
:104330004F913F912F911F910F900FBE0F901F90A3
:1043400018958FEF80934D03E4CF83E08093800036
:104350008AE9809381008091AD0386FD05C080913C
:1043600081008064809381008FEF9FEF909389009C
:104370008093880080916F00806280936F00089521
:10438000ABE2B0E0E6ECF1E20C9484300E94B52C94
:104390007B018C0181E00E94FC0B04C08CEF93E058
:1043A0000E94C8298CEF93E00E9498290097B1F7EA
:1043B0005E98BB24B394F2E67F2EE2E08E2E912C21
:1043C0008C0E9D1E6E010894C11CD11C73E0A72E9B
:1043D0000E94B52C6E197F09800B910B21E030E013
:1043E000693C71058105910510F420E030E08B2DCA
:1043F00090E082239323009799F10E94B52C7B01D2
:104400008C015D9A80ED97E00E948E067982D4013E
:10441000ECECF3E08AE201900D928150E1F7C601E5
:104420006BE20E94530F5D9880E090E00E948E0640
:10443000A092A6030E94F00C62E370E080E090E09E
:104440000E94E92C8091A603843051F4A092A60327
:104450008FE70E94F30A0E94060B823409F4BB2402
:104460008EE00E94F02D009751F5BB24B39427C035
:104470005E9A5D9A8CEF93E00E94C8298D30910579
:1044800071F08E30910524F48A309105B1F407C0A3
:104490008332910569F08234910579F40CC08CEF78
:1044A00093E06EEB71E00E94992E0E94491F05C0B7
:1044B0000E942B0D02C00E94731F5E985D988CEFC6
:1044C00093E00E949829009709F482CFD1CF7F9280
:1044D0008F929F92AF92BF92CF92DF92EF92FF9214
:1044E0000F931F938EE00E94F02D009709F080C07B
:1044F00068EC70E080E090E00E94E92C80E090E0C1
:104500000E948E060E94B52C5B016C01A0ECEA2E85
:10451000A2E1FA2E012D112DE60EF71E081F191F1C
:1045200006C08EE00E94F02D009709F05FC00E9447
:10453000B52C6E157F058007910798F38EE00E94D9
:10454000F02D009709F052C080ED97E00E948E0692
:104550000E94B52C7B018C0188249924939488E4D3
:1045600096E2A0E0B0E0A80EB91ECA1EDB1E7724BA
:10457000739424C0AE14BF04C006D10638F480ED95
:1045800097E00E948E068824839418C00E94B52C60
:104590006E197F09800B910B693C710581059105AE
:1045A00068F00E94B52C7B018C01972419F080EDF6
:1045B00097E002C080E090E00E948E068EE00E94AC
:1045C000F02D0097B9F280E090E00E948E068820DE
:1045D00049F08091A7038F5F83700E9446080E9474
:1045E0007C0806C00E948F080E9473080E94C021A8
:1045F0001F910F91FF90EF90DF90CF90BF90AF9001
:104600009F908F907F900895EF92FF920F931F934A
:1046100080E00E94E3060E94BA0689E061E00E9401
:10462000762D89E060E00E94BB2D86E061E00E946B
:10463000762D85E061E00E94762D8EE060E00E949C
:10464000762D88E060E00E94762D88E061E00E948F
:10465000BB2D81E161E00E94762D81E160E00E9446
:10466000BB2D0E947F068CEF93E040E052EC61E0AE
:1046700070E020E830E000E410E00E94252B0E946A
:1046800039080E947C080E94A5218FEF8093E704DF
:104690000E94CF0678940E94B52C7B018C018091FA
:1046A000E7048F3F09F099C00E94B52C6E197F096D
:1046B000800B910B603D27E0720720E0820720E02D
:1046C000920768F38AC08CEF93E00E94C829823475
:1046D0009105B1F48CEF93E00E94C8298E349105C6
:1046E00079F48CEF93E00E94C8298434910541F459
:1046F0008CEF93E00E94C8298132910509F49DC096
:104700004091CD035091CE036091CF037091D003BF
:10471000DB01CA010197A109B10984309105A10506
:10472000B10568F44093E804433029F440EA56E8C0
:1047300061E070E004C040E052EC61E070E08CEFBA
:1047400093E020E830E000E410E00E94252B0E9476
:1047500067225E9880E090E00E948E060E94A5216C
:1047600080E00E94FC0B8091CD040E942E0B0E94E1
:10477000F00C1092A00510E015C062E370E080E03C
:1047800090E00E94E92C80ED97E00E948E0662E3A3
:1047900070E080E090E00E94E92C80E090E00E94D0
:1047A0008E061F5F8091A703811738F78091F4036D
:1047B00090E084FF0AC09C012871307081E02831AC
:1047C000310509F080E00E94841F8FE00E94E3061B
:1047D0001F910F91FF90EF90089580ED97E00E9458
:1047E0008E068EE061E00E94BB2D5E9A8CEF93E016
:1047F00063E372E00E94792E84E693E00E947C0FCE
:104800008CEF93E06AE472E00E94792E8CEF93E0E3
:1048100064E070E04AE050E00E94A52F62E370E09F
:1048200080E090E00E94E92C8CEF93E00E949829B0
:10483000843091050CF464CF46CF80E090E00E9474
:104840008E060E94C0215CCF6F3020F08695869541
:10485000805408958DE0689F802D11240895A0E074
:10486000B0E0E5E3F4E20C948730082F0E94C32CFB
:104870002091A2053091A3054091A4055091A50572
:104880005B016C01A21AB30AC40AD50AA6019501FC
:104890002938E3E13E07E0E04E07E0E05E0710F074
:1048A0001092A1056093A2057093A3058093A405BF
:1048B0009093A5052091E804822F81508230D8F58D
:1048C0008091A105882309F4C6C1813011F482E0EA
:1048D00034C2803108F0ACC1E82FF0E0E751FB4F63
:1048E00000838F5F8093A105803109F028C2EBEE31
:1048F000F4E0213029F4A181A695A695808108C015
:1049000080819181A92FA695A695A69596958795C4
:10491000A03148F4B0E090E0AA0FBB1FA35DBC4FEC
:1049200011969C938E931092E704329684E0E93FAF
:10493000F807F9F604C2233009F07DC18091A10582
:10494000882321F40F3009F0FAC185C1883130F491
:10495000E82FF0E0E851FB4F0083EEC1883109F009
:1049600067C1002309F064C18091E9042091EA0441
:10497000922F97709595879590932E0380932D0392
:10498000322F3695369536952091EB04422F42957D
:10499000440F407E842F832B322F369536953695E3
:1049A000932F9770959587959093300380932F035D
:1049B00022952695269523703091EC04432F440FC1
:1049C000440F842F822B432F429546954695437082
:1049D0003091ED04232F2170220F220F922F942B60
:1049E0009595879590933203809331033695209166
:1049F000EE04422F479544274795842F832B322F6F
:104A00003695932F9770959587959093340380935F
:104A10003303322F32953F702091EF04422F42959D
:104A2000407F842F832B322F32953F70932F9770C6
:104A3000959587959093360380933503221F2227FF
:104A4000221F3091F004432F440F842F822B432FD9
:104A5000441F4427441F3091F104232F2370220F59
:104A6000922F942B959587959093380380933703D5
:104A7000369536952091F204422F4295440F440F0B
:104A8000407C842F832B322F36953695932F977049
:104A90009595879590933A038093390322952695AF
:104AA00027703091F304432F440F440F440F842F99
:104AB000822B932F929596959770959587959093C5
:104AC0003C0380933B038091F4042091F504922FE2
:104AD00097709595879590933E0380933D03322F71
:104AE0003695369536952091F604422F4295440F1F
:104AF000407E842F832B322F369536953695932F13
:104B00009770959587959093400380933F032295E6
:104B10002695269523703091F704432F440F440FB8
:104B2000842F822B432F42954695469543703091B2
:104B3000F804232F2170220F220F922F942B95958A
:104B40008795909342038093410336952091F90411
:104B5000422F479544274795842F832B322F369534
:104B6000932F977095958795909344038093430373
:104B7000322F32953F702091FA04422F4295407FA8
:104B8000842F832B322F32953F70932F97709595FA
:104B900087959093460380934503221F2227221F67
:104BA0003091FB04432F440F842F822B432F441F4B
:104BB0004427441F3091FC04232F2370220F922F8F
:104BC000942B95958795909348038093470336954A
:104BD00036952091FD04422F4295440F440F407CAE
:104BE000842F832B322F36953695932F977095957A
:104BF000879590934A0380934903229526952770C1
:104C00003091FE04432F440F440F440F842F822B16
:104C1000932F9295969597709595879590934C03C1
:104C200080934B038091FF0483FD02C01092E70440
:104C30001092A10584C0243009F081C06091A105C3
:104C4000662359F4083AB1F41092A9051092A80508
:104C500088EA0E94FE0681E070C0613019F400937A
:104C6000A60504C0623031F40093A705802F0E948E
:104C7000FE065EC07091A705872F90E0880F991FF0
:104C8000262F30E0AC014E5F5F4F421753073CF0D8
:104C9000633260F72A513B4FF9010083E7CF039657
:104CA0004091A8055091A9052817390749F4902F7C
:104CB00080E0842795279093A9058093A80538C0A4
:104CC00010E04017510791F58091A605813071F5EC
:104CD000713118F080E18093A705D090A70549EEC7
:104CE000E42E44E0F42E00E010E01CC080E0EC0173
:104CF000F701818190E08C2B9D2B33E09695879571
:104D00003A95E1F70E94540AF801EE0FFF1FE35DA8
:104D1000FC4F918380830F5F1F4FB2E0AB2EB12C0D
:104D2000EA0CFB1C0D1510F31092E7041092A1057C
:104D30008091A105882319F08F5F8093A105CDB7DD
:104D4000DEB7EAE00C94A330A2E0B0E0EAEAF6E2D3
:104D50000C9487308CE00E94150B882369F48CEF4B
:104D600093E062E572E00E94AC2E5E9A80E00E94C1
:104D7000FC0B0E94F00C5E988091E804882339F4C3
:104D80000CC08CEF93E00E94C8290E942F248CEF66
:104D900093E00E9498290097A1F78091A6038430A0
:104DA00009F0A2C00E94C32C7B018C016093D70440
:104DB0007093D8048093D9049093DA046115710537
:104DC0008105910561F481E090E0A0E0B0E080937E
:104DD000D7049093D804A093D904B093DA048091B7
:104DE000E3049091E40481609093E4048093E304ED
:104DF00083E08093A6038FE70E94F30AE0E2AE2EE1
:104E0000E5E0BE2ECC24DD2408C00E94060BF5018F
:104E100081935F010894C11CD11C8091F50390E03F
:104E2000C816D90694F320910B0590912005892F7F
:104E3000822786FF4CC080E4822780930B057FE3A6
:104E4000C72EC92209F443C0DD24D394ED2DF0E030
:104E5000E05EFA4FA0808CEF93E06A2D0E941A2A40
:104E600082EC94E06A2D0E946110882361F18091A8
:104E7000BE049091BF04A091C004B091C104A801E8
:104E80009701281B390B4A0B5B0BDA01C901813AE8
:104E900036E8930731E0A30730E0B307A0F0409174
:104EA000DC042091CB043091CC048CEF93E060E0E3
:104EB00050E00E94C80FE092BE04F092BF0400933D
:104EC000C0041093C104D394CD1408F0BFCF8091D7
:104ED000A005813019F482E08093A0058091A0059F
:104EE000833011F41092A0050E94C32C7B018C0129
:104EF0008091DF049091E004A091E104B091E2047C
:104F00000097A105B105E1F057016801A81AB90A97
:104F1000CA0ADB0AD601C501883B2BE0920720E0D4
:104F2000A20720E0B20760F00E94440B8093DC04EB
:104F30001092DF041092E0041092E1041092E20457
:104F40008CEC93E00E946E092091D3043091D4043C
:104F50004091D5045091D60457016801A21AB30AB2
:104F6000C40AD50AA616B706C806D90608F4D7C0DB
:104F7000E092D304F092D4040093D5041093D604A5
:104F80000E947D068091E7048F5F8093E704A090E4
:104F9000D704B090D804C090D904D090DA04A114FA
:104FA000B104C104D10459F18CEC93E00E946E0964
:104FB000EA18FB080C091D096E157F05800791078B
:104FC000D0F48091AD0384FD04C080ED97E00E9491
:104FD0008E068091CB049091CC0401969093CC04E2
:104FE0008093CB041092D7041092D8041092D90465
:104FF0001092DA0404C080E090E00E948E06809156
:105000000B05807C80930B058CEF93E00E94982920
:10501000009709F427C18091A005823009F022C1D0
:1050200080910B05805880930B058CEC93E00E94D7
:105030006309893018F4082F015001C008E010E01E
:105040007E010894E11CF11C101708F01BC18CEFC5
:1050500093E00E949829009709F414C11F5F8CEF18
:1050600093E0B70141E050E00E94E42F212F30E0AF
:105070008981F901E55FFA4F8083205A3A4FF9019F
:105080008083E2CF31913D93E817F907D9F7822F5A
:10509000895C90910B05892B80930B05FCC0909146
:1050A000CE04923039F480910B05816080930B051A
:1050B0005E9A0DC05E98882319F481E08093A00564
:1050C0008091A005833019F484E08093A005F894C2
:1050D0008091F40387706DE273E04CE055E00E942C
:1050E000EE0978945D9A8091CD040E942E0B8CEC91
:1050F00093E00E946309682F8BE095E00E94150FF2
:10510000E091CD04EF5FE093CD04E83131F0F0E0C1
:10511000E453FC4F8785882311F41092CD048091CD
:10512000F403887171F18091A603823051F580916A
:10513000E3049091E404880F991F9093E404809312
:10514000E30483E08093A6030E94F00C0E94C32C2A
:105150006093DF047093E0048093E1049093E20491
:10516000611571058105910561F481E090E0A0E091
:10517000B0E08093DF049093E004A093E104B09347
:10518000E2048091F40384FF1FC08091E3049091B6
:10519000E4048E7F0E94A40A182F8091DB046091A2
:1051A000E5040E942424482F8091DC04612F4A8367
:1051B0000E942424282F8091DD046091DE044A811E
:1051C0000091A7030E94CA205D988091CE0481308F
:1051D000D1F0813020F0823009F061C037C08EE01C
:1051E0000E94F02D009709F05AC081E08093CE0410
:1051F0000E94B52C6093CF047093D0048093D104A7
:105200009093D2044CC08EE00E94F02D009739F5A7
:105210000E94B52C2091CF043091D0044091D1044C
:105220005091D204621B730B840B950B693EF3E023
:105230007F07F0E08F07F0E09F0788F182E080931E
:10524000CE0480ED97E00E948E0629C08EE00E9479
:10525000F02D009721F180E090E00E948E061092E0
:10526000CE041DC08091A005843009F018CF209194
:105270006005E1E6F5E0ACE0B5E0822F90E08E0F4E
:105280009F1F02CF812F895C90910B05892B809302
:105290000B051093600583E08093A00523CF229631
:1052A000EAE00C94A3308F92AF92CF92EF92FF92EC
:1052B0000F931F938CEF93E060E045EC50E024ECFB
:1052C00030E000EC10E0B1ECEB2EF12CCC24C394D8
:1052D000A8E9AA2EF0E28F2E0E94642A1092C2043E
:1052E0001092C3041092C4041092C5041092C60414
:1052F0001092C8041092C7041092C9041092CA04F4
:105300001F910F91FF90EF90CF90AF908F900895E5
:105310000F931F93DC01ED91FC910288F389E02D3E
:1053200020E030E000E010E009951F910F91089512
:10533000FC01838D882371F00788F08DE02D20819A
:10534000318182819381281B390B868197812823A3
:10535000392302C02FEF3FEFC9010895FC01838D6F
:10536000882391F0018CF28DE02D208131818281A2
:105370009381281B390B20953095868197812823AE
:1053800039232F5F3F4F02C02FEF3FEFC901089530
:10539000FC01838D882351F00788F08DE02D20815A
:1053A0003181828193812817390721F42FEF3FEF54
:1053B000C901089582819381A085B185A80FB91F85
:1053C0002C91828193810196468157818423952374
:1053D0009383828330E0ECCFFC01838D882351F0EE
:1053E0000788F08DE02D20813181828193812817FB
:1053F000390721F42FEF3FEFC9010895828193818E
:105400000084F185E02DE80FF91F208130E0F4CF12
:10541000FC01A789B08D12968D919C9113971196DE
:105420009C938E93018CF28DE02D808191819383EA
:1054300082830895FC01838D8823A9F1A18DB28D0B
:105440008D919C911197019616962D913C911797ED
:1054500082239323248D222339F012962D913C919F
:10546000139782179307F9F012962D913C91139799
:1054700082179307C9F32D913C91119718960D90BF
:10548000BC91A02DA20FB31F6C93A18DB28D11966C
:105490009C938E93A289B3898C919689892B8C9346
:1054A00021E030E002C020E030E0C901089521E0B1
:1054B00030E002C0220F331F8A95E2F780913D064B
:1054C000822B80933D0608956F927F928F92AF92C8
:1054D000CF92EF92FF920F931F93DF93CF93CDB7AD
:1054E000DEB73C01862FFA01D30113961C921E925F
:1054F000129748EE53E060E070E014964D935D9390
:105500006D937C93179740E953E011965C934E930B
:105510001D96FC93EE931C971F963C932E931E971B
:1055200051961C930E9350975396FC92EE9252977D
:105530005496CC9254975596AC92559756968C9219
:105540005697482F50E09A01220F331F73E0440F03
:10555000551F7A95E1F7240F351F275D394F58966F
:105560003C932E935797482F50E09A01220F331FF8
:1055700093E0440F551F9A95E1F7240F351F2D5CDA
:10558000394F5A963C932E9359970E94572AC3013C
:1055900040E051EE60E070E00E948829CF91DF91F9
:1055A0001F910F91FF90EF90CF90AF908F907F90D1
:1055B0006F9008950F931F93CF93DF93EC011B829D
:1055C0001A828A819B8199838883E1E021E030E01F
:1055D00001C0EF5FA9010E2E02C0440F551F0A94AF
:1055E000E2F7862F972FF2E081309F0710F080E0DE
:1055F00092E04817590768F301E010E002C0000F7D
:10560000111FEA95E2F701501040888599850097AF
:1056100039F02E813F812017310789F00E946A31CD
:105620001F830E83C80101960E94D0309C01998788
:10563000888781E02115310519F480E001C081E0FF
:10564000DF91CF911F910F910895A0E0B0E0EBE2C0
:10565000FBE20C948730EC015A016B0179018B8DD0
:105660008823D1F02115310539F4EF89F88DE680D2
:10567000F7800894E11CF11C0115110531F4E98D46
:10568000FA8D068117810F5F1F4FE881F98100882D
:10569000F189E02DCE0109958F89988DE114F104EF
:1056A00019F4F0E8EF2EF12CB7010E94DA2A8823D2
:1056B00061F0898D9A8D0115110511F400E110E05A
:1056C000B8010E94DA2A8823F1F5E881F98100887F
:1056D000F189E02DCE01099553C0E889F98980E070
:1056E000A81681EEB80680E0C80680E0D80609F466
:1056F00043C081E090E00C8802C0880F991F0A9493
:10570000E2F7808360E079E08DE390E0A601950107
:105710000E9464302150304040405040CA01B901DD
:1057200022E030E040E050E00E946430EC85FD85EE
:105730003083EE85FF852083EA89FB8980819D89FE
:10574000892B80831DC0E98DFA8D1382128282819C
:10575000938191838083EF89F88D138212828281F5
:1057600093819183808381E08B8F1A141B041C0426
:105770001D040CF4B2CFE0CF108220E130E0D6CF90
:10578000CDB7DEB7EAE00C94A330CF93DF93EC0102
:105790001B821A828A819B81998388831F821E8241
:1057A00088859985009721F00E946A3119861886AC
:1057B000DF91CF910895CF93DF93EC01EA89FB89C4
:1057C00090818E892D89822B8095892380838F8972
:1057D000988D0E94C52B898D9A8D0E94C52B1B8E9A
:1057E000DF91CF9108958230E8F4E82FF0E0EE0FDA
:1057F000FF1FE25CF94F71836083813041F080913B
:1058000069008C7F842B80936900E89A08958091C9
:105810006900440F551F440F551F837F842B8093CD
:105820006900E99A08951F920F920FB60F92112402
:105830002F933F934F935F936F937F938F939F9398
:10584000AF93BF93EF93FF9380913E0690913F06F5
:10585000009729F0E0913E06F0913F060995FF91EF
:10586000EF91BF91AF919F918F917F916F915F91D8
:105870004F913F912F910F900FBE0F901F90189551
:105880001F920F920FB60F9211242F933F934F93B5
:105890005F936F937F938F939F93AF93BF93EF9398
:1058A000FF938091400690914106009729F0E09186
:1058B0004006F09141060995FF91EF91BF91AF919C
:1058C0009F918F917F916F915F914F913F912F9118
:1058D0000F900FBE0F901F9018951F920F920FB64A
:1058E0000F9211242F933F938F939F93AF93BF9366
:1058F0008091460690914706A0914806B0914906CE
:1059000030914A060196A11DB11D232F2D5F2D3721
:1059100020F02D570196A11DB11D20934A068093BA
:10592000460690934706A0934806B0934906809197
:10593000420690914306A0914406B0914506019617
:10594000A11DB11D8093420690934306A093440687
:10595000B0934506BF91AF919F918F913F912F9149
:105960000F900FBE0F901F9018958FB7F89420914D
:1059700046063091470640914806509149068FBF30
:10598000B901CA0108959FB7F89420914206309159
:105990004306409144065091450686B5A89B06C033
:1059A0008F3F21F02F5F3F4F4F4F5F4F9FBF542FCF
:1059B000432F322F2227280F311D411D511D82E018
:1059C000220F331F441F551F8A95D1F7B901CA0111
:1059D0000895EF92FF920F931F93CF93DF937B0174
:1059E0008C010E94C32CEB010FC00E94C32C6C1BC6
:1059F0007D0B83E0683E780738F00894E108F108F1
:105A000001091109C851DC4FE114F1040105110528
:105A100061F7CDB7DEB7E6E00C94A730789484B593
:105A2000826084BD84B5816084BD85B5826085BD9A
:105A300085B5816085BDEEE6F0E080818160808380
:105A4000E1E8F0E010828081826080838081816063
:105A50008083E0E8F0E0808181608083E1EBF0E02A
:105A6000808184608083E0EBF0E0808181608083CE
:105A7000EAE7F0E0808184608083808182608083B7
:105A80008081816080838081806880831092C100E2
:105A90000895833071F0843028F48130A1F0823091
:105AA00021F514C08630B1F08730D1F08430E9F4AC
:105AB00004C0809180008F7703C0809180008F7D2B
:105AC00080938000089584B58F7702C084B58F7D60
:105AD00084BD08958091B0008F778093B0000895C1
