:100000000C9444060C94252C0C94522C0C946C06E5
:100010000C946C060C946C060C946C060C946C0698
:100020000C946C060C946C060C942C210C946C06AD
:100030000C946C060C946C060C946C060C946C0678
:100040000C947F2C0C946C060C94D5100C941A1103
:100050000C946C060C946C060C946C060C946C0658
:100060000C946C060C946C067910921095109A10F2
:100070009F10A410A910B510C01097140C15D81417
:10008000DD14E214E714EC14F114F6140C15011548
:100090000C150615C917D017D017C917D017D017C8
:1000A000D017D017D017D017D017D017D017D01718
:1000B000D017D017D0174117D017D017D017D01797
:1000C000D017A416D017D017D017D017D017D01725
:1000D000D017D017D017D017D017D017D017D017E8
:1000E000D0174D174D174D174D174D174D174D176D
:1000F0004D174D17D017D017D017D017D017D017CE
:10010000A9164C174C174C174C17D0175A176217D3
:100110006A1772177A1782178A1792179C17A617F1
:10012000B017BA17F016B016D017D017D017D017CF
:100130004117D017D017D017D017D017D017D01716
:10014000D0174B174B174B174B17D0175A1762176F
:100150006A1772177A1782178A1792179C17A617B1
:10016000B017BA17F016B016D017D017D017D0178F
:100170004117FF17FF17FF17FF17FF17FF17FF178D
:10018000FF17FF17FF17FF17FF17FF172019201979
:100190002019201920192019481852185C186618BF
:1001A000C818D218E118F418851E9D1EA91EB21E8B
:1001B000C11EE71EEF1E261F011F261F181F456EBA
:1001C000746572206D656E752E2E2E00546F6767F4
:1001D0006C6564206D6963726F50504D00546F6799
:1001E000676C656420696E76657274656420505032
:1001F0004D2100546F67676C6564205458206D75FD
:1002000074696E672100546F67676C65642074655C
:100210006C656D65747279210050726F746F636FD5
:100220006C206572726F7220776974682052580072
:1002300054696D656F7574207768656E20636F6EA5
:100240006E656374696E6720746F20525800507237
:1002500065737320616E79206B657920746F2063FC
:10026000616E63656C00436F6E6E656374696E6783
:1002700020746F2052582C20706F77657220757033
:100280002074686520525820287769746820626954
:100290006E6420706C7567206966206E6F742075BF
:1002A00073696E6720616C776179732062696E642F
:1002B0002900546F67676C65642027696D6D6564FC
:1002C00069617465206F75747075742700546F6769
:1002D000676C65642027736C617665206D6F64655B
:1002E0002700546F67676C65642027616C776179BC
:1002F000732062696E642700546F67676C656420C1
:1003000050504D206368616E6E656C206C696D693C
:100310007400536574205253534920696E6A6563B3
:1003200074696F6E206368616E6E656C2028303D65
:100330003D64697361626C65290053657420505097
:100340004D206D696E696D756D2073796E63005314
:10035000657420626561636F6E20696E7465727684
:10036000616C0053657420626561636F6E20646523
:100370006C61790053657420626561636F6E2066FD
:1003800072657175656E637920696E20487A3A20CE
:10039000303D64697361626C652C2050783D504D2E
:1003A00052206368616E6E656C20782C2046783D23
:1003B000465253206368616E6E656C207800536509
:1003C000742050574D2073746F702064656C617990
:1003D0002028302064697361626C65642C20312DA3
:1003E000323535203D3D20302E3173202D203530E3
:1003F0006D696E29005365742050504D2073746FE1
:10040000702064656C6179202830206469736162B2
:100410006C65642C20312D323535203D3D20302E49
:100420003173202D2035306D696E2900536574209D
:100430006661696C736166652064656C617920280A
:10044000302064697361626C65642C20312D323513
:1004500035203D3D20302E3173202D2035306D6903
:100460006E29002A2A2A2A2A2A2A2A2A2A2A2A2AD3
:100470002A2A2A2A2A2A2A2A2A2A2A2A2A2A2A2ADC
:100480000052582041636B6564202D2072657665AB
:100490007274207375636365737366756C21002ACB
:1004A0002A2A2A2A2A2A2A2A2A2A2A2A2A2A2A2AAC
:1004B0002A2A2A2A2A2A2A2A2A2A2A2A002A2A2AC6
:1004C0002A2A2A2A2A2A2A2A2A2A2A2A2A2A2A2A8C
:1004D0002A2A2A2A2A2A2A2A2A2A0052582041630A
:1004E0006B6564202D20757064617465207375637D
:1004F0006365737366756C21002A2A2A2A2A2A2AC0
:100500002A2A2A2A2A2A2A2A2A2A2A2A2A2A2A2A4B
:100510002A2A2A2A2A2A0056616C69642063686F95
:1005200069636573206172653A205B315D2D5B31D3
:10053000365D20286368616E6E656C20312D313622
:100540002900536574206F757470757420666F721E
:1005500020706F727420005B585D2061626F72744E
:10056000206368616E67657320616E6420657869D9
:100570007420525820636F6E666967005B535D207C
:10058000736176652073657474696E677320746F28
:10059000205258005B525D2072657665727420525D
:1005A000582073657474696E677320746F20646576
:1005B0006661756C747300557365206E756D626548
:1005C0007273205B312D445D20746F206564697403
:1005D00020706F727473205B452D515D20666F72C1
:1005E0002073657474696E677300202D20726563D3
:1005F000656976657220636F6E666967757261748E
:100600006F722C20727820737720000A0A6F706551
:100610006E4C52536E6720005365742074656C6590
:100620006D65747279207061636B65742073697A8B
:10063000653A20005365742073657269616C2062AD
:10064000617564726174653A200056616C6964205A
:1006500063686F696365733A2031202D20342B3431
:10066000202F2032202D2038202F2033202D2038FD
:100670002B34202F2034202D203132202F203520E4
:100680002D2031322B34202F2036202D20313600E2
:10069000536574204368616E6E656C20636F6E668F
:1006A00069673A2000536574204461746172617413
:1006B000652028302D32293A200053657420486F78
:1006C00070206368616E6E656C7320286D617820A0
:1006D00032342C20736570617261746564206279B4
:1006E00020636F6D6D6173292076616C696420767B
:1006F000616C75657320312D3235353A20005365B4
:1007000074206368616E6E656C2073706163696EDE
:100710006720287831306B487A293A200053657475
:1007200020524620706F7765722028302D37293A85
:100730002000536574205246206D6167696320284C
:100740006865782920652E672E203078444541441D
:10075000463030443A20005365742062617365204E
:100760006672657175656E63792028696E20487AB6
:10077000293A20005B5A5D20656E746572207265AF
:1007800063656976657220636F6E6669677572610D
:1007900074696F6E207574696C79005B465D2064C6
:1007A0006973706C61792061637475616C20667225
:1007B000657175656E636965732075736564005B4B
:1007C000525D2063616C63756C6174652072616E4B
:1007D000646F6D206B657920616E6420686F702096
:1007E0006C697374005B495D207265696E69746938
:1007F000616C697A652073657474696E67732074BF
:100800006F20736B657463682064656661756C74D2
:1008100073005B585D207265766572742063686151
:100820006E67657320616E642065786974206D65FC
:100830006E75005B535D207361766520736574741B
:10084000696E677320746F20454550524F4D20618B
:100850006E642065786974206D656E7500557365EA
:10086000206E756D62657273205B302D395D20746A
:100870006F206564697420706172616D6574657262
:100880007300202D2053797374656D20636F6E663D
:10089000696775726174696F6E000A0A6F70656EC0
:1008A0004C52536E6720005129204F757470757437
:1008B000206265666F7265206C696E6B20283D460C
:1008C0005329203A2000502920536C617665206D11
:1008D0006F646520286578706572696D656E7461F6
:1008E0006C293A20004F292054696D6564204249E3
:1008F0004E44206174207374617274757020203AC4
:1009000020004E292050504D206F75747075742052
:100910006C696D6974656420202020203A200044B1
:10092000495341424C4544004D292050504D2052DE
:1009300053534920746F206368616E6E656C20208C
:1009400020203A20004C292050504D206D696E69BE
:100950006D756D2073796E63202875732920203A98
:10096000200044495341424C4544004B29204661F4
:10097000696C7361666520626561636F6E20696E84
:1009800074762E2028312D32353573293A20004ACD
:1009900029204661696C7361666520626561636FD9
:1009A0006E2064656C61792028302D323535203D0C
:1009B0003E20313073202D203135306D696E293A5B
:1009C00020004929204661696C7361666520626573
:1009D00061636F6E206672712E203A2000482920D4
:1009E00050574D2073746F702064656C61792020BE
:1009F00020202020203A200047292050504D2073ED
:100A0000746F702064656C61792020202020202084
:100A10003A20004629204661696C7361666520644E
:100A2000656C6179202020202020203A200050573A
:100A30004D206368616E6E656C200066756E637430
:100A4000696F6E3A20002920706F72742000506F19
:100A5000776572546F776572004454462055484656
:100A60002033322D6269742031306368004F706525
:100A70006E4C52536E675258206D696E6920342F48
:100A800036636800466C7974726F6E2F4F72616EB8
:100A900067655258205548462038636800525820F0
:100AA000747970653A200044697361626C65640012
:100AB000487A00203D3D200043616C63756C617491
:100AC0006564207061636B657420696E746572760D
:100AD000616C3A200044292054656C656D65747220
:100AE00079207061636B65742073697A653A2000C0
:100AF0004229204D6963726F202868616C66292045
:100B000050504D202020203A00412920496E766522
:100B1000727465642050504D20696E202020202082
:100B20003A003029204D7574652062757A7A6572B5
:100B300020286D6F73746C79293A00392920536528
:100B40007269616C2062617564726174653A0073E8
:100B50006D617274506F7274004672536B790054F9
:100B600072616E73706172656E7420284D61766C6F
:100B7000696E6B290044697361626C656400382991
:100B80002054656C656D657472793A2020202020B0
:100B90002020003729204368616E6E656C20636FEA
:100BA0006E6669673A2020003629204461746172BC
:100BB0006174652028302D32293A20202000352903
:100BC00020486F70206368616E6E656C733A2020F8
:100BD000202020003429204368616E6E656C2073EC
:100BE000706163696E673A202000332920524620E5
:100BF000706F7765722028302D37293A2020200029
:100C00003229205246206D616769633A20202020F6
:100C10002020202020003129204261736520667247
:100C2000657175656E63793A202020000000000030
:100C3000240027002A0000000000250028002B00C7
:100C4000000000002300260029000404040404041A
:100C5000040402020202020203030303030301026B
:100C6000040810204080010204081020010204083A
:100C7000102000000007000201000003040600002D
:100C8000000000000000652911241FBECFEFD8E04E
:100C9000DEBFCDBF13E0A0E0B1E0EAEDF7E602C0B1
:100CA00005900D92A43AB107D9F716E0A4EAB3E093
:100CB00001C01D92A135B107E1F71CE0C8E8DCE0F6
:100CC00004C02297FE010E94CA30C638D107C9F776
:100CD0000E9413300C94EB330C9400008091A60317
:100CE000813019F482E08093A6038091A6038330BB
:100CF00019F484E08093A6030895A895089583E1EC
:100D000061E00E94882D83E160E00E94CD2D82E0A9
:100D10008093B00085E08093B10083E061E00E94A1
:100D2000882D83E060E00E94CD2D0895EF92FF9220
:100D30000F931F93009769F19C0140E050E068E435
:100D400078EE81E090E00E94763079018A0183E1BB
:100D500061E00E94CD2D8FEFE816F1040105110529
:100D600009F030F4E114F1040105110539F00BC06C
:100D70009FEFE92EF12C012D112D05C081E0E82E09
:100D8000F12C012D112DE092B3008091B000806113
:100D900007C083E160E00E94CD2D8091B0008F7E7E
:100DA0008093B0001F910F91FF90EF9008958CE019
:100DB00060E00E94882D8BE061E00E94882D8DE02C
:100DC00061E00E94882D82E060E00E94882D84E02E
:100DD00061E00E94882D089580E06EE676E042E0B2
:100DE00050E00E94052C0895E3E0F0E089E0809354
:100DF0005700E491E67081E0E63009F080E0089564
:100E00000F931F93182F0E94F406882389F00FB7C1
:100E100081E080931606F8940E947D0688E1809315
:100E2000600010936000112311F00E947D060FBF37
:100E30001F910F910895382F20E08091A80590917F
:100E4000A9058227932760E041E250E19C01220F2F
:100E5000331F97FF04C0C9018427952701C0C9012A
:100E60006F5F683099F79093A9058093A80508955E
:100E70000F931F93082F19C05E9A409A64E670E0A2
:100E800080E090E00E94FB2C5E98409864E670E061
:100E900080E090E00E94FB2C1F5F101768F36CE26B
:100EA00071E080E090E00E94FB2C10E0F6CF0F9301
:100EB0001F93CF93DF93EC01062F15E0115051F0F3
:100EC000CE010E94D233081741F0CE01602F0E945C
:100ED000DA33F4CF82E00E943807DF91CF911F917F
:100EE0000F910895A0E0B0E0E8E7F7E00C949130AE
:100EF000682E762ECC24DD24C0E0D0E0AA24BB24CA
:100F000000E010E004C0CC24DD2477247394662034
:100F100061F48091A70397E3899FE0011124A9E080
:100F2000AA2EB12C08EA13E01AC0E62DE13069F4CC
:100F30008091A703F7E38F9FE00111242B96FAE23B
:100F4000AF2EB12C0CEC13E00AC0862D823039F4A0
:100F5000CCEDD0E0E1E0AE2EB12C07EA13E02E019B
:100F60004C0C5D1C1092A9051092A805E20117C057
:100F70007801E80CF91C772031F4CE010E94D233BD
:100F8000F701808305C0CE01F70160810E945707F9
:100F9000F801E80DF91D80810E941B072196CE0102
:100FA0008419882E99248A149B0410F3CE017E01A3
:100FB0000894E11CF11C7720A1F4CE010E94D233E9
:100FC000882EC7010E94D233382C222490E0822937
:100FD00093292091A8053091A9052817390759F4BC
:100FE00092CFE7016091A9050E945707C701609160
:100FF000A8050E945707E0E0F1E0CE0EDF1EF1E009
:10100000CF16F3E0DF0608F482CF872DCDB7DEB729
:10101000E2E10C94AD3086E38093CC0380E091EE66
:10102000A0E0B0E08093CD039093CE03A093CF03D4
:10103000B093D0038DE18093F50387E08093D903CB
:1010400080EC92E9ADEEB9E18093D1039093D203A5
:10105000A093D303B093D40385E08093DA038DEE9D
:101060009EEFADEABEED8093D5039093D603A09397
:10107000D703B093D803EBEDF3E080E090E0863047
:1010800028F4DC01AA57BC4F2C9101C020E0219329
:1010900001968831910599F782E08093F3038AE005
:1010A0008093F403089582E061E00E94720708953E
:1010B00082E060E00E9472078091A703843020F0F4
:1010C0001092A7030E9453080895A1E0B0E0EBE658
:1010D000F8E00C94A13089830E9458089091A703EE
:1010E0008981981731F0843020F48093A7030E94FF
:1010F00053082196E2E00C94BD3080EC91EDA8E914
:10110000BBE18093A9039093AA03A093AB03B09390
:10111000AC031092AD031092AE031092AF03109285
:10112000B003089580E061E00E94720781E061E011
:101130000E947207089580E060E00E947207882391
:1011400031F081E060E00E947207882331F40E9450
:101150007D080E940B080E9492080895A0E0B0E06C
:10116000E4EBF8E00C9497300E94D52C61157105E2
:1011700081059105C9F30E9461321092D503109246
:10118000D6031092D7031092D80314E02FEF822ECB
:10119000912CA12CB12CC090D503D090D603E09017
:1011A000D703F090D803FE2CED2CDC2CCC240E942D
:1011B0005C32A50194010E9476306C0D7D1D8E1D60
:1011C0009F1D6093D5037093D6038093D7039093AC
:1011D000D803115001F7CBEDD3E000E082E3C82E35
:1011E000D12CE12CF12CB0E18B2EB7E29B2E4BC021
:1011F0000F5F19F40E940B084AC00E945C32A701DD
:1012000096010E9476306F5FEBEDF3E080E004C062
:101210009191961769F38F5F8117D0F38091DA036C
:1012200090E0889DA001899D500D989D500D11243E
:10123000262F30E0429FC001439F900D529F900D9A
:101240001124AA2797FDA095BA2F2091D1033091A0
:10125000D2034091D3035091D403820F931FA41F54
:10126000B51F2091A9033091AA034091AB0350917F
:10127000AC03281739074A075B0708F4B9CF69930D
:101280001F5F183121F08881882309F0B1CFCDB7D5
:10129000DEB7ECE00C94B330BC018436910518F451
:1012A00080E090E022C08E3B910548F46A55704082
:1012B00080E090E02AE030E040E050E014C0823D61
:1012C000910548F4645B704080E090E024E630E0F3
:1012D00040E050E008C06D5C704080E090E028E5A0
:1012E00032E040E050E00E94223024E630E040E06E
:1012F00050E00E942230089590E08C599F4F0E9448
:101300004C090895DC019896EC919897F0E0E7700D
:10131000F070E258FC4F80810895A0E0B0E0E3E96E
:10132000F9E00C949930EC010E9482094FA150E041
:1013300023E130E0429FF001439FF00D529FF00DFA
:101340001124E554FD4FA080B180C280D38090E08D
:101350000F969C01B901882777FD8095982F20E48E
:101360003FE14DE750E00E942230A60195010E9426
:10137000543079018A0180ED97E0A0E0B0E0E80EFA
:10138000F91E0A1F1B1F88A58871D1F069A570E09E
:10139000615F7F4F882777FD8095982F20E43FE19C
:1013A0004DE750E00E942230A60195010E94543082
:1013B00028513C4F4F4F5F4FE20EF31E041F151F85
:1013C000C801B70169517C4F8F4F9F4F28EE33E022
:1013D00040E050E00E945430B901CA0128EE33E0E9
:1013E00040E050E00E942230CDB7DEB7EAE00C9436
:1013F000B5308F3F910559F050F022E080309207D0
:1014000040F023E08030920730F482E0089580E0DD
:10141000089581E0089583E00895A0E0B0E0E3E15D
:10142000FAE00C949C30EB018A01B82FB695A0E04D
:1014300028813981F80120832A813B8121832C81F5
:101440003D8122832E813F812383688179814A8176
:101450005B812C813D81EE81FF819F2F9295990FB9
:10146000990F907C672F6370962B452F4370440F24
:10147000440F942B232F23702295207F922BF80169
:1014800094830B5F1F4F2896AF5FBA1788F680FFD3
:1014900025C0888199810E94F909D82E2A813B8133
:1014A000C9010E94F909E82E2C813D81C9010E94E1
:1014B000F909F82E2E813F81C9010E94F909D294C1
:1014C000DD0CDD0C60ECD622E29450EFE522ED2835
:1014D000E82AFF0CFF0CFE28F801F082CDB7DEB73A
:1014E000E7E00C94B8309C0183E02032380708F123
:1014F00083E0283E380740F42F51334074E036959E
:1015000027957A95E1F71AC087E0203D380718F44F
:101510002C5D334013C088E02839380768F4285C14
:10152000374064E0369527956A95E1F72D503C4F9A
:1015300005C020E030E002C02FEF33E0C90108957C
:101540009C018C30910540F4F4E0220F331FFA9592
:10155000E1F7285D3C4F15C083E0243F380718F4BD
:1015600024523C4F0EC084E02030380740F4265708
:10157000334FE4E0220F331FEA95E1F702C020E980
:1015800038E0C90108959C01369527952575357574
:10159000821B930B9C0123733373969587959695C5
:1015A000879583739373820F931F9C01A4E03695F4
:1015B0002795AA95E1F7280F391F2F703F7041E05A
:1015C00051E0249FC001259F900D349F900D112460
:1015D000892F0895882321F02D9800002B9A03C0AD
:1015E0002D9800002B9800002D9A000008952D9A48
:1015F000000093B12D98000081E094FF80E00895F1
:101600000F931F93082F5C9A2D985C9818E0802FF9
:1016100080780E94EA0A000F1150C9F72D981F9197
:101620000F9108958F770E94000B08950F931F93D9
:10163000082F18E0802F80780E94EA0A000F1150CE
:10164000C9F72D981F910F9108950F931F932D980F
:1016500018E080E0082F000F0E94F70A800F115059
:10166000C9F71F910F9108950E94120B0E94250B3C
:101670005C9A0895A1E0B0E0E0E4FBE00C94A130B6
:10168000806869830E94000B6981862F0E94160B77
:101690005C9A2196E2E00C94BD301F931091D50323
:1016A0001827ECECF3E0E80FF11D89E767850E944D
:1016B0003A0B8DE3612F0E943A0B82E4612F0E9466
:1016C0003A0B1F91089586E20E94340B0895CF9340
:1016D000DF93EC018CE16C810E943A0B8DE16D810E
:1016E0000E943A0B8EE16E810E943A0B80E26F817C
:1016F0000E943A0B81E268850E943A0B82E269857A
:101700000E943A0B83E26A850E943A0B84E26B8561
:101710000E943A0B85E26C850E943A0B8AE26D8545
:101720000E943A0B8EE66E850E943A0B8FE66F851B
:101730000E943A0B80E768890E943A0B81E7698929
:101740000E943A0B82E76A890E943A0BDF91CF919F
:101750000895A1E0B0E0EFEAFBE00C949B307B0140
:101760008C01603048E374074CE984074CE194072E
:1017700048F520E836E948E950E00E945430B8EED8
:10178000CB2EBFEFDB2EC20ED31EB90180E090E05E
:1017900020E839E647E65FEF0E9422306E0D7F1D9C
:1017A000801F911FA2E0660F771F881F991FAA95BF
:1017B000D1F721E732E040E050E00E945430E32EC0
:1017C00080E425C020E03DE241E351E00E94543036
:1017D000F8EECF2EFFEFDF2EC20ED31EB90180E050
:1017E00090E020E033ED4EEC5EEF0E9422306E0D73
:1017F0007F1D801F911F660F771F881F991F21E78C
:1018000032E040E050E00E945430E32E80E66C2D40
:101810006F71680F85E729830E943A0B86E76E2D6A
:101820000E943A0B87E72981622F0E943A0B21968A
:10183000E8E00C94B7308F929F92AF92BF92CF9214
:10184000DF92EF92FF920F931F93982E83E00E94F6
:10185000340B8093F60384E00E94340B8093F703EB
:1018600086E060E00E943A0B87E061E00E943A0B5C
:1018700089E06FE70E943A0B8AE065E00E943A0B2C
:101880008BE062E10E943A0B8CE065E10E943A0B2A
:101890008DE06DEF0E943A0B8EE060E00E943A0B03
:1018A000992019F08AE193E00FC08091F30390E052
:1018B00043E150E0849F9001859F300D949F300D4F
:1018C0001124C90185549D4F0E94670B80E36CE889
:1018D0000E943A0B82E36FE00E943A0B83E362E4DA
:1018E0000E943A0B84E36AE00E943A0B85E36AE2C5
:1018F0000E943A0B86E36DE20E943A0B87E364EDA7
:101900000E943A0B88E360E00E943A0B89E360E0B2
:101910000E943A0B992049F4A090D503B090D603C9
:10192000C090D703D090D80308C095E7A92E91ECBA
:10193000B92E91ECC92E9EEDD92E8AE3882EED2C7E
:10194000FF2400271127882D6E2D0E943A0B882D29
:101950008B5F6E2D0E943A0BDC2CCB2CBA2CAA2468
:101960008394882D8E3359F783E46FEF0E943A0BEE
:1019700084E46FEF0E943A0B85E46FEF0E943A0B0C
:1019800086E46FEF0E943A0B992019F08DE666E02D
:1019900003C08DE66091D9030E943A0B89E760E0AD
:1019A0000E943A0B8AE76091DA030E943A0B83E7C0
:1019B00060E00E943A0B84E760E00E943A0B9920B5
:1019C00049F46091D1037091D2038091D303909137
:1019D000D40304C060EC72E98DEE99E10E94A90B7A
:1019E0001F910F91FF90EF90DF90CF90BF90AF903D
:1019F0009F908F90089587E061E00E943A0B8EE7F8
:101A000064E20E943A0B88E063E00E943A0B88E0AF
:101A100060E00E943A0B87E065E00E943A0B85E0A7
:101A200062E00E943A0B83E00E94340B8093F6033D
:101A300084E00E94340B8093F703089583E00E94B2
:101A4000340B8093F60384E00E94340B8093F703F9
:101A500087E061E00E943A0B6AE070E080E090E08D
:101A60000E94FB2C0E94FB0C00000895A2E2B0E053
:101A7000ECE3FDE00C9491301E010894211C311C14
:101A800080E1D1011D928A95E9F78CEF93E060E047
:101A900071E00E94BE2E0E941E0D1E8A1F8A188EA3
:101AA000198E00E01D8A10E088249924540140E436
:101AB000442E41EE542E4DE9642E48E1742E30E55B
:101AC000C32E33ECD32EE12CF12C24EF31E040E097
:101AD00050E02E8F3F8F48A359A380EC91EDA8E9E9
:101AE000BBE18A8F9B8FAC8FBD8F20E431EE4DE937
:101AF00058E1298B3A8B4B8B5C8BFAC08CEF93E0CF
:101B00000E94DA29843461F0853430F4833261F143
:101B10008C3209F0C0C039C0833509F0BCC0E1C0C7
:101B20008CEF93E064E40E948E2E8CEF93E040E40F
:101B300051EE6DE978E12AE030E00E94782F8CEFD9
:101B400093E06CE20E948E2E8CEF93E040EC51ED1E
:101B500068E97BE12AE030E00E94782F8CEF93E087
:101B60006CE20E94D12EC4C019821A821B821C8290
:101B70001D821E821F82188619861A861B861C8665
:101B80001D861E861F86188A39C01F5F143009F013
:101B9000AFC069817A818B819C8128EE33E040E07F
:101BA00050E00E942230698B7A8B8B8B9C8B6D81ED
:101BB0007E818F8198850E9422306A8F7B8F8C8FE7
:101BC0009D8F89859A85AB85BC858E8F9F8FA8A3B5
:101BD000B9A36D857E858F8598890E9422306B011F
:101BE0007C0190E2C9169EE4D90690E0E90690E0F7
:101BF000F90630F48CE162E30E943A0B10E078C001
:101C0000A0E3CA16A5E7DA06A0E0EA06A0E0FA0615
:101C100018F48CE162E2F0CFB0E4CB16BCE9DB064D
:101C2000B0E0EB06B0E0FB0618F48CE166E2E4CF2E
:101C3000E0E5CE16E3ECDE06E0E0EE06E0E0FE06D0
:101C400018F48CE162E1D8CFF0E6CF16FAEEDF06A9
:101C5000F0E0EF06F0E0FF0618F48CE165E1CCCF90
:101C600020E7C21621E1D20621E0E20620E0F206DA
:101C700018F48CE161E0C0CF30EAC31636E8D30631
:101C800031E0E30630E0F30618F48CE163E0B4CF12
:101C90008CE165E0B1CF80538AA38A3048F5212ECC
:101CA0003324220C331C220C331C41E050E04C0F37
:101CB0005D1F240E351ED1016D917D918D919C91FA
:101CC0002AE030E040E050E00E942230BAA16B0FE1
:101CD000711D811D911DF101608371838283938346
:101CE00007C049885A886B887C88882499245401C5
:101CF0008CEF93E00E94AA29009709F0FFCE81148F
:101D00009104A104B10489F4C301B2010E94A90B9A
:101D100061E070E080E090E00E94FB2C1E8A1F8A48
:101D2000188E198E00E0FFEFFD8B2E8D3F8D48A1A0
:101D300059A182169306A406B506D8F40E94630B37
:101D40002E893F89488D598D280F311D411D511D08
:101D50002E8B3F8B488F598F081708F4082F3D8929
:101D6000831708F48D8B0894811C911CA11CB11C55
:101D700056C0C301B20128EE33E040E050E00E94BB
:101D800054308CEF93E0BA01A9012AE030E00E94C0
:101D9000212F8CEF93E06CE20E948E2E8CEF93E06B
:101DA000602F4AE050E00E945D2F8CEF93E06CE2E0
:101DB0000E948E2E6E897F89888D998DA501940150
:101DC0000E9454308CEF93E0BA01A9012AE030E080
:101DD0000E94212F8CEF93E06CE20E948E2E8CEFFC
:101DE00093E06D894AE050E00E945D2F8CEF93E014
:101DF0006CE20E94D12E4C0C5D1C6E1C7F1C8A8DE7
:101E00009B8DAC8DBD8D84159505A605B70520F479
:101E100049885A886B887C888824992454012989A8
:101E20003A894B895C89283E83E0380780E048077F
:101E300080E0580709F05CCFA296E2E10C94AD3047
:101E4000A1E0B0E0E6E2FFE00C949D30182F062FF1
:101E50008EE399830E943A0B9981612F792F7B0140
:101E600006C0F70161917F018FE70E943A0B8E2D2A
:101E7000811B8017B0F385E064E00E943A0B83E099
:101E80000E94340B8093F60384E00E94340B80930D
:101E9000F7030E94D52C6093F8037093F9038093A5
:101EA000FA039093FB0387E069E00E943A0B81E01C
:101EB0008093A6032196E6E00C94B9300E94200F8F
:101EC0008091A6038130F1F40E94D52C2091F80373
:101ED0003091F9034091FA035091FB03621B730B9D
:101EE000840B950B603A26E8720721E0820720E018
:101EF000920730F307C08CEF93E06DE071E00E9431
:101F0000BE2E08958091A6038130A9F308950F9302
:101F10001F93CF93DF938C01CCEFD3E0CE01612FE1
:101F200070E04AE050E00E94432FCE016EE20E9432
:101F30008E2EB80154E0769567955A95E1F76F704B
:101F40007070CE014AE050E00E94432FCE016EE255
:101F50000E948E2EB8016F707070CE014AE050E082
:101F60000E94432FDF91CF911F910F9108958CEF25
:101F700093E00E94AA2920E830E0281B390B73E087
:101F8000369527957A95E1F744E650E0249FC00105
:101F9000259F900D349F900D112464E096958795B0
:101FA0006A95E1F70895AF92BF92DF92EF92FF92A8
:101FB0000F931F93DF93CF9300D0CDB7DEB75C01B3
:101FC0008EEF8093170689E080931806809128068B
:101FD000809319068F5F8093280683E380931A0607
:101FE00084E480931B0686EA80931C060DE116E0CC
:101FF00030931E0620931D06D80113961C921E9244
:1020000012974A8369830E94B70FF80186834A8139
:10201000448369816583178210868091180657E092
:10202000D52ED80EE82EFF24B7016A5F7F4FFB0143
:10203000E95EF94F85E18083F801359701E08FEF84
:102040009FEF1DC031913827232F2295207F232712
:1020500030E0522F4427D90113E0AA0FBB1F1A9575
:10206000E1F74A275B27892F992784279527A4E042
:1020700035952795AA95E1F7822793270F5F0D15D0
:1020800008F3695E794FDB018C93F701E95EF94F44
:102090009783D501ED91FC910484F585E02DC50170
:1020A00009958131910560F0D501ED91FC91028097
:1020B000F381E02DC50167E176E041E150E009954B
:1020C0000F900F90CF91DF911F910F91FF90EF90A4
:1020D000DF90BF90AF900895DC011896EC911897AF
:1020E000F0E0E930F10508F05CC0EC5CFF4F0C94C7
:1020F000C8306E3F09F055C01C9211961C92119782
:1021000012961C92129713961C92139714961C9277
:10211000149716961C921E92159717961C92179755
:1021200081E02AC06C9382E027C011966C931197CE
:1021300083E022C012966C93129784E01DC0139620
:102140006C93139785E018C014966C93149786E0EF
:1021500013C017968C9117978F5F17968C931797CC
:102160009C91891700F187E007C015966C9315972D
:1021700016961C92169788E018968C93189711C0A3
:10218000362F20E015968D919C911697822B932BDC
:1021900016969C938E93159718961C92189781E02B
:1021A000089580E0089580E008951F920F920FB681
:1021B0000F9211242F933F934F938F939F93EF93FD
:1021C000FF934091C6008091290690912A060196BE
:1021D00020912F06309130068223932320912B06E5
:1021E00030912C068217930781F0209129063091B7
:1021F0002A06E0913106F0913206E20FF31F408388
:1022000090932A068093290609C080912D0690910B
:102210002E06019690932E0680932D06FF91EF9146
:102220009F918F914F913F912F910F900FBE0F90E3
:102230001F9018951F920F920FB60F9211242F9393
:102240003F938F939F93EF93FF93209135063091A7
:102250003606809133069091340628173907E9F045
:102260008091350690913606E0913B06F0913C0650
:10227000E80FF91F80818093C60080913506909108
:10228000360601962091390630913A06822393232F
:10229000909336068093350610C020913306309116
:1022A000340680913506909136062817390729F4AF
:1022B0008091C1008F7D8093C100FF91EF919F912C
:1022C0008F913F912F910F900FBE0F901F901895F7
:1022D0001F93182F8CEF93E0612F0E942C2A80917E
:1022E0001A04812780931A041F910895A1E0B0E099
:1022F000ECE7F1E10C94A13099830E946811998177
:10230000892F0E9468112196E2E00C94BD30FF9263
:102310000F931F93CF93DF93F82E8B0110921A0423
:10232000CCEFD3E0CE0165EB0E942C2ACE0162E611
:102330000E942C2A8F2D0E946811C8010E947611DC
:10234000CDB7DEB7E5E00C94BA308CEF93E0609146
:102350001A040E942C2A0895882319F069E171E07B
:1023600002C06DE171E08CEF93E00E94BE2E0895F3
:10237000FF920F931F93CF93DF938CEF93E066E16F
:102380007CE00E94692E4091D1035091D20360916C
:10239000D3037091D4038CEF93E02AE030E00E94E5
:1023A000302F8CEF93E060E07CE00E94692E40913A
:1023B000D5035091D6036091D7037091D8038CEF69
:1023C00093E020E130E00E94302F8CEF93E06AEE42
:1023D0007BE00E94692E8CEF93E06091D9034AE084
:1023E00050E00E94652F8CEF93E064ED7BE00E944B
:1023F000692E8CEF93E06091DA034AE050E00E948E
:10240000652F8CEF93E06EEB7BE00E94692ECBEDA5
:10241000D3E0FF2414C08CEF93E060E271E00E94EF
:102420008B2E21968CEF93E0F80160814AE050E01A
:102430000E945D2FF394FF2DF83109F497C08E01AF
:102440008881882309F492C0FF2059F3E4CF8CEFF0
:1024500093E065E77BE00EC08CEF93E06FE57BE0F7
:1024600009C08CEF93E069E57BE004C08CEF93E05A
:102470006FE47BE00E94AB2E8CEF93E06BE37BE09C
:102480000E94692E4091CD035091CE036091CF03FD
:102490007091D0038CEF93E02AE030E00E94302F5F
:1024A0008CEF93E062E27BE00E94692E8091AD03A5
:1024B00080710E94AC118CEF93E069E07BE00E9498
:1024C000692E8091AD0380740E94AC118CEF93E073
:1024D00060EF7AE00E94692E8091AD0380720E94C5
:1024E000AC118CEF93E065ED7AE00E94692E8CEFE1
:1024F00093E06091F5034AE050E00E94652F8CEF75
:1025000093E068EB7AE00E94692E8CEC93E00E94E5
:102510008D09AB01BC018CEF93E02AE030E00E9412
:10252000212F8CEF93E063EB7AE00E94692E8CEC14
:1025300093E00E948D099B01AC0160E472E48FE09E
:1025400090E00E9454308CEF93E0BA01A9012AE098
:1025500030E00E94212F8CEF93E060EB7AE00E9444
:10256000AB2ECDB7DEB7E5E00C94BA308CEF93E03C
:102570000E94962E8CEF93E068EA7BE00E94692E21
:102580008CEF93E06091F3034AE050E00E94652FE6
:102590008CEF93E063E97BE00E94692EE091F40305
:1025A000F0E0E770F070EE0FFF1FE259FC4F608122
:1025B00071818CEF93E00E94BE2E8CEF93E06EE76A
:1025C0007BE00E94692E8091F40390E08871907006
:1025D0008830910509F440CF8930910524F40097A3
:1025E00009F435CF49CF8031910509F43ACF8831CC
:1025F000910509F041CF3ACFEF92FF920F931F93CD
:10260000882339F48CEF93E067EA7AE00E94AB2EDE
:102610002DC090E00E944C0924E630E040E050E0FC
:102620000E945430CA01B9012AE030E040E050E095
:102630000E9454307B018C018CEF93E0BA01A90118
:102640002AE030E00E94212F8CEF93E06EE20E949E
:102650008E2E8CEF93E0B801A7012AE030E00E94B3
:10266000212F8CEF93E063E70E94D12E1F910F91F1
:10267000FF90EF900895FF920F931F93CF93DF93F6
:102680008CEF93E06DE97AE00E94692E8091B103AE
:10269000813041F48CEF93E064E87AE00E94AB2E45
:1026A000FF246EC0823029F48CEF93E06DE67AE06F
:1026B000F5CF843029F48CEF93E069E57AE0EECF32
:1026C000853071F78CEF93E06EE47AE0E7CFCF2DA1
:1026D000D0E0C930D1051CF06F2D685C02C06F2DB1
:1026E0006F5C8CEF93E00E948E2E8CEF93E066E49B
:1026F0007AE00E94692EBE016F5F7F4F8CEF93E0FE
:102700004AE050E00E94AD2F8CEF93E06BE37AE05B
:102710000E94692E8E010F541C4FD8011196EC9126
:102720001197E032F8F48CEF93E06EE27AE00E94C9
:10273000692EF8018181803130F08CEF93E06AE2FC
:1027400071E00E948B2ECF54DC4F698170E06F7076
:1027500070706F5F7F4F8CEF93E04AE050E00E9413
:10276000B72F0DC0F0E0EF70F070EE0FFF1FE25BCF
:10277000FC4F608171818CEF93E00E94BE2EF39438
:102780008091A404F81608F4A2CF8CEF93E063E1E3
:102790007AE00E94692E8091C9030E94FC128CEF9E
:1027A00093E068EF79E00E94692E8091CA030E944D
:1027B000FC128CEF93E06DED79E00E94692E809120
:1027C000CB030E94FC128CEF93E062EC79E00E9454
:1027D000692E4091C1035091C2036091C30370916F
:1027E000C403411551056105710539F18CEF93E082
:1027F0002AE030E00E94302F8CEF93E06FE879E020
:102800000E94692E8091C5030E947C09AB01BC0126
:102810008CEF93E02AE030E00E94302F8CEF93E0C1
:102820006BE679E00E94692E8CEF93E06091C6031D
:102830004AE050E00E94652F06C08CEF93E062E60C
:1028400079E00E94AB2E8CEF93E065E479E00E9482
:10285000692E6091C7037091C8038CEF93E04AE042
:1028600050E00E944A2F8CEF93E068E279E00E94EA
:10287000692E6091C003603150F470E06F5F7F4F4C
:102880008CEF93E04AE050E00E94B72F06C08CEF37
:1028900093E06FE179E00E94AB2E8CEF93E062E071
:1028A00079E00E94692E8091BF0380FF03C062E23D
:1028B00071E002C066E271E08CEF93E00E94BE2EF0
:1028C0008CEF93E065EE78E00E94692E8091BF0363
:1028D00082700E94AC118CEF93E066EC78E00E946D
:1028E000692E8091BF0384700E94AC118CEF93E03D
:1028F00067EA78E00E94692E8091BF0388700E9489
:10290000AC11CDB7DEB7E5E00C94BA3080911B0472
:10291000992787FD9095A92FB92F01968D309105A4
:1029200008F07AC0835C9F4FFC010C94C8308CEF98
:1029300093E06AE978E00E94AB2E84E693E00E947F
:10294000870F8CEF93E062E878E00E94AB2E8CEF6B
:1029500093E06DE578E00E94AB2E8CEF93E063E3AB
:1029600078E00E94AB2E8CEF93E062E178E00E9469
:10297000AB2E8CEF93E065EE77E00E94AB2E8CEFF0
:1029800093E06FEB77E00E94AB2E8CEF93E06BE966
:1029900077E00E94AB2E8CEF93E064E777E00E9433
:1029A000AB2E8CEF93E00E94962E0E94B81134C09B
:1029B0008CEF93E067E577E02DC08CEF93E062E366
:1029C00077E028C08CEF93E06DE177E023C08CEFD7
:1029D00093E06EEF76E01EC08CEF93E06AEB76E05A
:1029E00019C08CEF93E065EA76E014C08CEF93E0B9
:1029F00060E976E00E94AB2E8CEF93E06AE476E02B
:102A000009C08CEF93E064E376E004C08CEF93E0C0
:102A100068E176E00E94AB2E6AE070E080E090E032
:102A20000E94FB2C04C08CEF93E00E94DA298CEF0B
:102A300093E00E94AA290097B1F708950F931F937E
:102A4000CF93DF9320911B042F3FA9F58CEF93E0E8
:102A50006BE076E00E94692E84E693E00E94870F87
:102A60008CEF93E06AEE75E00E94692E8091A504D8
:102A70009091A6040E94870F8CEF93E067EB75E0BE
:102A80000E94AB2E8CEF93E064E975E00E94AB2EC0
:102A90008CEF93E06CE775E00E94AB2E8CEF93E037
:102AA00067E575E00E94AB2E8CEF93E00E94962EB6
:102AB0000E943B1369C012160CF066C0332727FD35
:102AC00030958091A40490E0821793070CF45CC0C9
:102AD0008CEF93E062E475E00E94692E60911B0424
:102AE000772767FD70958CEF93E04AE050E00E94F5
:102AF000B72F8CEF93E067E175E00E94692E10E03C
:102B000008E23AC0C12FD0E0CC0FDD1FCD57DB4F1C
:102B1000288130E080911B04992787FD90950197CB
:102B20002817390741F58CEF93E06CE271E00E94C1
:102B30008B2E8CEF93E0602F4AE050E00E945D2FD7
:102B40008CEF93E060E371E00E948B2EE981F0E06E
:102B5000EF70F070EE0FFF1FE25BFC4F6081718140
:102B60008CEF93E00E948B2E8CEF93E064E371E096
:102B70000E948B2E0F5F1F5F8091A304181710F225
:102B80008CEF93E00E94962EDF91CF911F910F91D1
:102B90000895EF92FF921F93CF93DF93CBEDD3E095
:102BA00010E07E0188818823F1F18CEF93E066E3E9
:102BB00071E00E948B2E8CEF93E0612F4AE050E091
:102BC0000E945D2F8CEF93E063E471E00E948B2EF6
:102BD0002196F701608170E080E090E02091DA03B7
:102BE00030E040E050E00E94223020E137E240E057
:102BF00050E00E942230AB01BC018091D103909142
:102C0000D203A091D303B091D403480F591F6A1F78
:102C10007B1F8CEF93E02AE030E00E94302F1F5F93
:102C2000183109F0BECFDF91CF911F91FF90EF9047
:102C300008951092810485E6ECE1F4E0DF011D9235
:102C40008A95E9F708951F93182F8F3711F0883070
:102C5000E1F5E0918104EE2309F455C0E150E093E1
:102C60008104F0E0E45EFB4F10828CEF93E06DE0B6
:102C70000E942C2A10E00AC0E12FF0E0E45EFB4F36
:102C80008CEF93E060810E942C2A1F5F8091810469
:102C9000181790F38CEF93E060E20E942C2A8CEFDF
:102CA00093E06DE00E942C2A10E00AC0E12FF0E0D2
:102CB000E45EFB4F8CEF93E060810E942C2A1F5F43
:102CC00080918104181790F31CC08B3119F40E9475
:102CD00019161FC08D30E9F08A30D9F08091810437
:102CE000843688F48CEF93E0612F0E942C2A809127
:102CF0008104E82FF0E0E45EFB4F10838F5F809348
:102D0000810480E007C08CEF93E067E00E948E2E84
:102D1000F8CF81E01F910895ACE1B0E0E2E9F6E17F
:102D20000C949B3090911B049F3F09F040C1282FC9
:102D300030E02A5030402F36310508F031C1265B93
:102D40003F4FF9010C94C8308CEF93E067E471E0D9
:102D5000AEC08CEF93E067E471E00E94BE2E19C113
:102D60008CEF93E063E571E00E94BE2E85E78983D6
:102D7000DE011296E1EBF3E08BE101900D928150C0
:102D8000E1F7CE0101966CE10E945E0F0E94FB0C00
:102D900083E08093A60368EC70E080E090E00E94FE
:102DA000FB2C8091A603843009F0FAC08FE70E94C3
:102DB000120B0E94250B8983853509F0F1C08CEF39
:102DC00093E069EF74E00E94AB2E8CEF93E06BED23
:102DD00074E00E94AB2E8CEF93E06DEB74E0A9C021
:102DE0008CEF93E06BE671E00E94BE2E89E689834A
:102DF000CE01019661E00E945E0F0E94FB0C83E011
:102E00008093A60368EC70E080E090E00E94FB2CC9
:102E10008091A603843009F0C3C08FE70E94120B93
:102E20000E94250B89838E010E5F1F4F4DE1E42E1A
:102E3000F12CEC0EFD1E0E94250BF80181938F01F1
:102E4000EE15FF05C1F7A1EBB3E0FE0132968BE171
:102E500001900D928150E1F78981893409F0A0C079
:102E60008CEF93E06FE974E00E94AB2E8CEF93E05F
:102E700061E874E00E94AB2E8CEF93E063E674E0AF
:102E800058C08CEF93E065E871E00E94BE2E8EEF93
:102E900080931B0485C08052875080539091A40476
:102EA000981708F074C08CEF93E064E971E00E9419
:102EB000BE2E76C084E180931B048CEF93E06CE21D
:102EC00074E037C085E180931B048CEF93E065EFDD
:102ED00073E02FC086E180931B048CEF93E06EEBD0
:102EE00073E027C087E180931B048CEF93E064E7D5
:102EF00073E01FC088E180931B048CEF93E063E6CE
:102F000073E017C089E180931B048CEF93E06FE4BA
:102F100073E00FC08AE180931B048CEF93E06AE3B7
:102F200073E007C08BE180931B048CEF93E062E1B8
:102F300073E00E94AB2E34C08CEF93E068EF72E038
:102F40000E94AB2E8091BF0391E01DC08CEF93E0F7
:102F500062EE72E00E94AB2E8091BF0392E013C03C
:102F60008CEF93E06DEC72E00E94AB2E8091BF037A
:102F700094E009C08CEF93E062EB72E00E94AB2E0C
:102F80008091BF0398E089278093BF038FEF8093E0
:102F90001B040E941E1504C08CEF93E00E94DA29E6
:102FA0008CEF93E00E94AA290097B1F761C10E94BB
:102FB0002316882309F45CC180918104882321F4BD
:102FC0008FEF80931B044CC18CE194E060E070E0D3
:102FD00040E050E00E946A3200911B04202F33270A
:102FE00027FD3095432F532F215030402B31310591
:102FF00008F026C127543F4FF9010C94C83011271F
:1030000007FD10952091A40430E0201731070CF43F
:1030100017C19B01AC01215030404040504020324C
:1030200031054105510580F0A3E8B4E0E091A30427
:10303000CE2EDD24CC0CDD1CCA0EDB1EFF2428E2C4
:10304000E22E0150104020C0F801EF54FC4F6150B7
:103050006083DEC02C9130E020173107A1F42E2DC3
:1030600030E040E050E0261737074807590751F491
:1030700098012F543C4F11964C911197F9014183BF
:10308000FF24F394E3941296AC15BD0519F7BEC066
:103090006F3F71058105910511F008F0D1C0609373
:1030A000C903B6C06F3F71058105910511F008F0A5
:1030B000C7C06093CA03ACC06F3F7105810591051D
:1030C00011F008F0BDC06093CB03A2C020911C0496
:1030D00020622037F9F48DE194E060E070E040E098
:1030E00050E00E946A329B01AC01215030404040C8
:1030F0005040283031054105510508F0B4C024ED99
:1031000030E340E050E00E9422306A5E7C4A8A460A
:10311000954E26C02636F9F48DE194E060E070E02B
:1031200040E050E00E946A329B01AC0121503040E7
:1031300040405040273031054105510508F093C00B
:1031400028EA31E640E050E00E942230645E7C4391
:103150008E46944E05C0611571058105910579F083
:103160009B01AC012054314E4D4958412138F0EFBC
:103170003F07FAEF4F07F2E05F0708F061C0609386
:10318000C1037093C2038093C3039093C40340C0F0
:103190006F3F71058105910511F008F051C06093F2
:1031A000C50336C09B01AC01215030404040504027
:1031B0002F3F31054105510508F042C06093C60319
:1031C00027C09B01AC01245C3940404050402D3465
:1031D000EDE13E07E0E04E07E0E05E0728F4709383
:1031E000C8036093C70314C061157105810591057B
:1031F00021F48FEF8093C0030BC06131710581050D
:103200009105F0F461506093C00302C0FF20C1F04B
:10321000809182048823D1F48091D5039091D603C4
:10322000A091D703B091D8030196A11DB11D809341
:10323000D5039093D603A093D703B093D80306C0C9
:103240008CEF93E066EA71E00E94BE2E0E94191690
:103250008FEF80931B048CEF93E06AE00E94D12EE5
:103260000E941E1505C061E070E080E090E078CF1C
:103270006C96E8E00C94B730ACE1B0E0E2E4F9E140
:103280000C9499300E94D52C6B017C0181E00E9446
:103290001B0C74E7A72E8E010F5F1F4F63E0B62E45
:1032A000A982C80161E00E945E0FB092A6030E944D
:1032B000FB0C6AEF70E080E090E00E94FB2C8091B4
:1032C000A603833009F07EC08CEF93E00E94AA2908
:1032D000009709F077C00E94D52C6C197D098E09E2
:1032E0009F09603823EC720729EC820721E09207DE
:1032F000B8F268C08FE70E94120B0E94250B8983E9
:10330000843509F058C00E94250B182F00E0109357
:10331000A6040093A5040E94250B080F111D10930D
:10332000A6040093A5040E94250B8093A4040E9488
:10333000250B8093A3048131F0F5CC2407C00E94B3
:10334000250BF801ED57FB4F8083C3940C2D10E043
:103350008091A30490E0880F991F0817190778F34C
:1033600080E78983CE01019661E00E945E0F83E0D1
:103370008093A6030E94FB0C62E370E080E090E083
:103380000E94FB2C8091A6038330B9F08FE70E9446
:10339000120B0E94250B8983803569F401EB13E041
:1033A0000E94250BF80181938F01F3E00C3C1F076D
:1033B000B9F781E003C083E001C082E06C96EAE0E7
:1033C0000C94B5308091A603833009F093CFF5CFEC
:1033D000AEE3B0E0EEEEF9E10C949D307B018A01A2
:1033E0008B3009F41FC18C3040F5853009F484C05E
:1033F000863080F4823009F459C0833020F4813063
:1034000009F044C242C0833009F461C0843009F03D
:103410003DC265C0883009F4A0C0893038F48630D8
:1034200009F489C0873009F031C28FC0893009F4AE
:103430009CC08A3009F02AC2CBC0893609F47AC10F
:103440008A3680F4863609F42AC1873620F4853618
:1034500009F01CC210C1873609F435C1883609F05D
:1034600015C239C18C3609F4BCC18D3638F48A36A0
:1034700009F46BC18B3609F009C2A7C18D3609F476
:10348000E5C1873C09F002C2F4C181E06AE270E064
:103490000E9487110CEC13E0F80181918F010E94CA
:1034A0006811F3E0063F1F07B9F7F8C182E06BE14E
:1034B00070E00E94871101EB13E0F80181918F0108
:1034C0000E946811F3E00C3C1F07B9F7E7C183E0E5
:1034D00061E070E00E9487110E943C19DDC184E028
:1034E00061E070E00E94871181E00E9468110E94F3
:1034F000A5110E94360DD4C16091A30470E0660F3F
:10350000771F85E00E94871113E8E12E14E0F12E69
:1035100000E010E007C0F70181917F010E9468116F
:103520000F5F1F4F8091A30490E0880F991F081729
:10353000190788F3B3C186E062E070E00E9487114A
:1035400084E693E00E947611A9C187E061E070E013
:103550000E9487118091A4049FC188E061E070E01F
:103560000E9487118091A70397C186E68983CE01C7
:10357000019661E00E945E0F0E94FB0C83E0809345
:10358000A60368EC70E080E090E00E94FB2C809144
:10359000A6038430D9F48FE70E94120B0E94250BFA
:1035A0008983863469F489E060E270E00E948711C3
:1035B00000E20E94250B0E9468110150D1F76EC1F4
:1035C00089E061E070E00E948711BDC089E05FC1C1
:1035D0008AE069E070E00E9487111092A8032091B0
:1035E00016068091AD039091AE03A091AF03B09108
:1035F000B003222311F0806801C08F778093AD0360
:103600009093AE03A093AF03B093B00308EA13E026
:10361000F80181918F010E946811F3E0013B1F07BF
:10362000B9F73CC18BE061E270E00E9487118091A4
:10363000E7048F3F39F08091E704982F9F5F9093C4
:10364000E70402C08091E7040E94681100E010E0E6
:10365000F894F801EE0FFF1FE35DFC4F808191812C
:103660000E94A00A0E94761178940F5F1F4F0031CC
:10367000110571F713C185E661E070E00E948711C2
:103680008AE2E816F10409F006C1D801ECECF3E097
:103690008D91819383E0E63FF807D1F754C086E629
:1036A00061E070E00E948711EBE1EE16F10409F091
:1036B000F2C0D801E1EBF3E08D91819383E0EC3C23
:1036C000F807D1F740C087E661E070E00E948711FB
:1036D0000E94920838C088E661E070E00E9487117D
:1036E00085E78E8FDE015F96E1EBF3E08BE10190E1
:1036F0000D928150E1F7CE014E966CE10E945E0F73
:103700000E94FB0C83E08093A60360E273E080E0FC
:1037100090E00E94FB2C8091A603843009F0BBC08E
:103720008FE70E94120B0E94250B8E8F853509F0C2
:10373000B2C009C089E661E070E00E9487110E9472
:103740000B080E947D0881E0A7C08AE661E070E076
:103750000E94871189E68A83CE01029661E00E9469
:103760005E0F0E94FB0C83E08093A60360E273E08F
:1037700080E090E00E94FB2C8091A603843009F049
:103780008AC08FE70E94120B0E94250B8A838E014C
:103790000D5F1F4FEEE1EE2EF12CEC0EFD1E0E9490
:1037A000250BF80181938F01EE15FF05C1F7A1EB01
:1037B000B3E0FE0133968BE101900D928150E1F769
:1037C0008A81893409F067C0BECF8BE661E070E082
:1037D0000E948711F80180810E9465080E949B0861
:1037E000B2CF8CE661E070E00E948711F0E2EF1644
:1037F000F10471F487E68E8FDE015F96F80180E2B6
:1038000001900D928150E1F7CE014E9661E205C024
:1038100087E48E8FCE014E9661E00E945E0F0E947B
:10382000FB0C83E08093A6036CE474E080E090E0FE
:103830000E94FB2C8091A603843069F58FE70E94DB
:10384000120B0E94250B873431F57DCF8DE661E0A8
:1038500070E00E94871189E0E816F104E1F4D801D4
:10386000E8EAF3E08D91819383E0E13BF807D1F73B
:103870006ACF87EC61E070E00E94871181E00E94CE
:1038800068110E94A511109219040AC08AEC61E027
:1038900070E00E94871180E00E9468110E94A511CB
:1038A000EE96E6E00C94B930A0E0B0E0EAE5FCE189
:1038B0000C94973054E0C52E46E0D42E35E0E32E2C
:1038C0000AEA15E024E6F22E92E0B92E83E0A82E53
:1038D000A2C08CEF93E00E94DA29809315069091A4
:1038E0001406933021F1943028F4913099F09230FD
:1038F000B8F409C0953009F44AC0953020F19630EB
:1039000009F089C061C0853B09F085C081E08093E2
:10391000140681C0823609F07CC0B09214067BC0C8
:103920008093130680931206A092140674C08093AD
:103930001006109211069091120698279093120685
:10394000C092140668C04E01982EE0E0EF0120916D
:103950001006309111062C2B3D2B3093110620932D
:10396000100690911206982790931206E092140682
:103970002536310508F44FC08CEC61E070E00E9400
:10398000871181E00E9468110E94A51142C0209118
:103990000E0630910F06F901E655FA4F808390919B
:1039A0001206982790931206C901019690930F066C
:1039B00080930E062091100630911106821793070E
:1039C00050F1D092140627C090911206981759F41E
:1039D00060910E0670910F06809113064AEA55E039
:1039E0000E94E8190DC08BEC62E070E00E94871124
:1039F000809113060E94681180911A040E94681138
:103A0000F8018F2C11928A94E9F710920F06109208
:103A10000E06109214068CEF93E00E94AA290097DC
:103A200009F057CFCDB7DEB7ECE00C94B3308CEF94
:103A300093E066E672E00E94AB2E8CEF93E06EE4BA
:103A400072E00E94AB2E8CEF93E00E94AA290097AF
:103A500031F08CEF93E00E94DA290E948C160E94CC
:103A60003C19823019F0833069F405C08CEF93E083
:103A700060E372E004C08CEF93E069E172E00E94C1
:103A8000AB2E08958FEF80931B04109282040E9446
:103A90001E150CC08CEF93E00E94AA29009731F00C
:103AA0008CEF93E00E94DA290E948C1680911B040F
:103AB0008E3F81F708951F9310911B041F3F09F05B
:103AC000FDC0893409F46DC08A3440F5883309F4A7
:103AD0007FC0893368F4803309F48CC0813308F0E7
:103AE00075C08B3109F453C0813209F0E1C043C085
:103AF000813409F4A0C0823438F4893309F478C0E1
:103B0000803409F0D5C037C0843409F4C6C0863487
:103B100009F459C0823409F0CBC0A0C0843609F43E
:103B2000BCC08536A8F4883591F1893538F48235E2
:103B300009F442C0833509F0BBC022C0813609F4C4
:103B40007AC0823609F48AC08A3509F0B1C0ABC0A8
:103B5000823791F1833730F48636A9F1893609F03E
:103B6000A7C01FC0883799F08A3709F49CC08337F3
:103B700009F09EC005C08CEF93E067E471E019C0C6
:103B80000E9492088CEF93E064EC71E006C00E9402
:103B90009B088CEF93E06EED71E00E94BE2E8EEFDD
:103BA00085C00E940B080E947D088CEF93E06DEFAA
:103BB00071E00E94BE2E7CC00E94AE088CEF93E0A4
:103BC00066E172E0F6CF0E94C91572C080536EC0E4
:103BD0008CEF93E066E072E00E94AB2E9091F403CC
:103BE000892F885F8871977E892B8093F40320C08A
:103BF00089E05CC08CEF93E063EF71E00E94AB2E34
:103C00008091AD039091AE03A091AF03B091B0034A
:103C100020E130E040E050E082279327A427B52739
:103C20008093AD039093AE03A093AF03B093B00322
:103C300010931B043DC08CEF93E06DED71E00E948A
:103C4000AB2E8091AD039091AE03A091AF03B091E4
:103C5000B00320E430E040E050E012C08CEF93E08D
:103C60006CEC71E00E94AB2E8091AD039091AE039D
:103C7000A091AF03B091B00320E230E040E050E00B
:103C800082279327A427B5278093AD039093AE0393
:103C9000A093AF03B093B00308C08BE080931B04E4
:103CA0000E94861405C00E94171D8FEF80931B048D
:103CB00080911B048E3F09F0EDC0F4C00E942316D2
:103CC000882309F4EFC080918104882321F48FEFC9
:103CD00080931B04DFC08CE194E060E070E040E082
:103CE00050E00E946A3220911B04332727FD309553
:103CF000432F532F215030402B30310508F0A6C000
:103D00002C523F4FF9010C94C8309B01AC01215457
:103D1000314E4D4958412F37F0EF3F07FAEF4F072B
:103D2000F2E05F0708F092C06093D1037093D20372
:103D30008093D3039093D403B0C06093D503709362
:103D4000D6038093D7039093D80381E080938204B5
:103D5000A4C0683071058105910508F077C06093B3
:103D6000D9039BC09B01AC012150304040405040E2
:103D70002A3031054105510508F068C06093DA0327
:103D80008CC08CE194E060E271E00E949E3310E010
:103D90000CC0E12FF0E0E453FC4F87871F5F80E009
:103DA00090E060E271E00E949E33009769F00E940B
:103DB0007833009749F0183160F3F1CFE12FF0E04C
:103DC000E453FC4F17861F5F1831C0F366C065309F
:103DD000710581059105D0F56093F3035EC09B01E9
:103DE000AC01215030404040504026303105410563
:103DF000510560F52091F403287F262B2093F403CE
:103E00004CC09B01AC01215030404040504020301C
:103E1000E2EC3E07E1E04E07E0E05E07B8F46093B5
:103E2000CD037093CE038093CF039093D00335C01E
:103E30009B01AC0121503040404050402F333105B0
:103E40004105510518F46093F50327C08CEF93E00A
:103E500066EA71E00E94BE2E13C08091D503909156
:103E6000D603A091D703B091D8030196A11DB11D2F
:103E70008093D5039093D603A093D703B093D80330
:103E80000E9419168FEF80931B048CEF93E06AE079
:103E90000E94D12E0E94861405C08091820488233E
:103EA000E1F2EECF1F9108958FEF80931B041092E3
:103EB00082040E9486140CC08CEF93E00E94AA2911
:103EC000009731F08CEF93E00E94DA290E945B1D8D
:103ED00080911B048E3F81F76AE070E080E090E003
:103EE0000E94FB2C04C08CEF93E00E94DA298CEF37
:103EF00093E00E94AA290097B1F7089581E080938A
:103F0000190408C08CEF93E00E94AA29009711F0D1
:103F10000E94541C809119048823A1F708951F93CF
:103F2000182F0E94D52C6093B9047093BA04809323
:103F3000BB049093BC041093A704112329F040E024
:103F400051EE60E070E004C040E855E260E070E0EF
:103F50008CEF93E00E949A291F910895EF92FF92AF
:103F60000F931F93CF93DF93F82E092F8CEF93E0DD
:103F70006EE70E942C2AEF2CE7017E01F02EE7016C
:103F8000FF24F0E2EF2E8E0188818D57823040F4BD
:103F90008CEF93E06DE70E942C2A88818E25888320
:103FA00021968CEF93E0F80160810E942C2AF39413
:103FB000FF2DF93041F78CEF93E06EE70E942C2A39
:103FC000CDB7DEB7E6E00C94B930A9E0B0E0EBEE97
:103FD000FFE10C94A1309091BD04992371F49EEF00
:103FE00099838A836B8350E0559547954C832D8345
:103FF000198618861F821E823DC04091B804842F06
:1040000090E09C01B4E035952795BA95E1F78F7063
:10401000907028173907E9F08DEF89831B82FE0124
:10402000349650E0242F30E0C901A4E0959587959F
:10403000AA95E1F72F70307082179307C1F0885569
:104040009B4FDC018C918193405F5F5F563079F02C
:10405000E9CF8091BD0490E0019666E070E00E9497
:1040600041308093BD042996E2E00C94BD3040932A
:10407000B8045A83CE0101960E94AE1FEACFA0E099
:10408000B0E0E5E4F0E20C949A306C018CEF93E040
:104090006EE70E942C2A8601EE24FF24C0E0D0E0C7
:1040A00030E2B32E0BC028E0E216F10429F4FE0141
:1040B000E0958E2FF60180870F5F1F4FF80160811A
:1040C000862F8D57823040F48CEF93E06DE70E948D
:1040D0002C2AF80160816B258CEF93E00E942C2A3A
:1040E000E114F10459F0F80180819E01280F311D7F
:1040F000C901C92FDD27C80FD91FD0700894E11C52
:10410000F11C39E0E316F10471F6CDB7DEB7E9E052
:104110000C94B6308CEF93E06EE70E942C2A089541
:10412000A9E0B0E0E6E9F0E20C94A030182F362FB9
:104130008091BD0490E0019664E270E00E944130FD
:104140008093BD0458E9598350E15A83813071F05E
:10415000813028F0823099F08330E1F416C085E098
:104160008B8381EF8C832F5F2D8317C08B8381EF2F
:104170008C8384E6489FA00111245D830EC084E0F7
:104180008B8381EF8C831D8308C08B8381EF8C83AD
:104190003D8303C00E948A2004C0CE0101960E9484
:1041A0003F202996E3E00C94BC30A1E0B0E0EBEDB9
:1041B000F0E20C949930C82ED62EB42EA02E29836E
:1041C0000E94D52C7B018C013091A7048091B90409
:1041D0009091BA04A091BB04B091BC04298133230F
:1041E000D1F0B801A701481B590B6A0B7B0BDB010F
:1041F000CA01813E5EE2950750E0A50750E0B50791
:1042000038F1422FB21608F44B2D8C2D6D2D2A2D2E
:104210000E94902015C0B801A701481B590B6A0BDA
:104220007B0BDB01CA01813355E7950750E0A507F9
:1042300050E0B50768F08C2D6D2D4B2D0E94E51FC9
:10424000E092B904F092BA040093BB041093BC044A
:104250002196EAE00C94B5301F920F920FB60F92A0
:1042600011241F932F933F934F935F936F937F93EB
:104270008F939F93AF93BF93CF93DF93EF93FF936E
:10428000C0918600D09187008091090590910A0520
:104290002091E804222309F047C09E01281B390B16
:1042A000C9012091AD0325FD02C09695879539E09F
:1042B000853C930710F180914D038630D8F08091B2
:1042C0004D038F3FB9F040E00FC0842F90E0880F7E
:1042D000991FFC01E751FB4F20813181835D9C4F89
:1042E000FC01318320834F5F80914D03481768F3B1
:1042F0001092E70410924D0317C0F2E08D3B9F0728
:1043000058F120914D03203138F510914D030E9452
:10431000730AE12FF0E0EE0FFF1FE751FB4F91838F
:1043200080831F5F10934D03D0930A05C093090546
:10433000FF91EF91DF91CF91BF91AF919F918F91BD
:104340007F916F915F914F913F912F911F910F90AE
:104350000FBE0F901F9018958FEF80934D03E4CF01
:1043600083E0809380008AE9809381008091AD038F
:1043700086FD05C0809181008064809381008FEF6D
:104380009FEF909389008093880080916F008062F6
:1043900080936F000895ABE2B0E0E1EDF1E20C94A0
:1043A00096300E94C72C7B018C0181E00E941B0C7F
:1043B00004C08CEF93E00E94DA298CEF93E00E9416
:1043C000AA290097B1F75E984098BB24B394F2E60F
:1043D0007F2EE2E08E2E912C8C0E9D1E6E01089495
:1043E000C11CD11C73E0A72E0E94C72C6E197F0937
:1043F000800B910B21E030E0693C7105810591054E
:1044000010F420E030E08B2D90E08223932300977E
:10441000A9F10E94C72C7B018C015D9A419A80ED25
:1044200097E00E9496067982D401ECECF3E08AE2F0
:1044300001900D928150E1F7C6016BE20E945E0F80
:104440005D98419880E090E00E949606A092A603B5
:104450000E94FB0C62E370E080E090E00E94FB2C85
:104460008091A603843051F4A092A6038FE70E94A6
:10447000120B0E94250B823409F4BB2482E10E94B6
:10448000022E009771F5BB24B3942BC05E9A409A1C
:104490005D9A419A8CEF93E00E94DA298D30910564
:1044A00071F08E30910524F48A309105B1F407C083
:1044B0008332910569F08234910579F40CC08CEF58
:1044C00093E06EEB71E00E94AB2E0E94541F05C07A
:1044D0000E94360D02C00E947E1F5E9840985D9833
:1044E00041988CEF93E00E94AA29009709F47CCFB1
:1044F000CDCF7F928F929F92AF92BF92CF92DF9259
:10450000EF92FF920F931F9382E10E94022E009779
:1045100009F080C068EC70E080E090E00E94FB2C25
:1045200080E090E00E9496060E94C72C5B016C011F
:10453000A0ECEA2EA2E1FA2E012D112DE60EF71EB7
:10454000081F191F06C082E10E94022E009709F081
:104550005FC00E94C72C6E157F058007910798F3F6
:1045600082E10E94022E009709F052C080ED97E090
:104570000E9496060E94C72C7B018C0188249924F6
:10458000939488E496E2A0E0B0E0A80EB91ECA1E9B
:10459000DB1E7724739424C0AE14BF04C006D1067A
:1045A00038F480ED97E00E9496068824839418C022
:1045B0000E94C72C6E197F09800B910B693C710515
:1045C0008105910568F00E94C72C7B018C0197241E
:1045D00019F080ED97E002C080E090E00E9496061E
:1045E00082E10E94022E0097B9F280E090E00E94E2
:1045F0009606882049F08091A7038F5F83700E9400
:1046000065080E949B0806C00E94AE080E9492089E
:104610000E94CB211F910F91FF90EF90DF90CF90E0
:10462000BF90AF909F908F907F900895EF92FF92F0
:104630000F931F9380E00E9400070E94D70686E038
:1046400061E00E94882D85E061E00E94882D8EE067
:1046500061E00E94882D8FE061E00E94882D82E158
:1046600060E00E94882D88E060E00E94882D88E04C
:1046700061E00E94CD2D0E947F068CEF93E040E028
:1046800052EC61E070E020E830E000E410E00E94CD
:10469000372B0E9458080E949B080E94B0218FEF80
:1046A0008093E7040E94EC0678940E94C72C7B015B
:1046B0008C018091E7048F3F09F09AC00E94C72CBB
:1046C0006E197F09800B910B603D27E0720720E097
:1046D000820720E0920768F38BC08CEF93E00E9482
:1046E000DA2982349105B1F48CEF93E00E94DA2943
:1046F0008E34910579F48CEF93E00E94DA298434AA
:10470000910541F48CEF93E00E94DA298132910502
:1047100009F49FC04091CD035091CE036091CF0327
:104720007091D003DB01CA010197A109B10984305E
:104730009105A105B10568F44093E804433029F4DC
:1047400040EA56E861E070E004C040E052EC61E00D
:1047500070E08CEF93E020E830E000E410E00E948D
:10476000372B0E9479225E98409880E090E00E946A
:1047700096060E94B02180E00E941B0C8091CD041F
:104780000E944D0B0E94FB0C1092A00510E015C07A
:1047900062E370E080E090E00E94FB2C80ED97E007
:1047A0000E94960662E370E080E090E00E94FB2C9D
:1047B00080E090E00E9496061F5F8091A70381171A
:1047C00038F78091F40390E084FF0AC09C012871BF
:1047D000307081E02831310509F080E00E948F1FA0
:1047E0008FE00E9400071F910F91FF90EF900895B6
:1047F00080ED97E00E94960682E161E00E94CD2D57
:104800005E9A409A8CEF93E063E372E00E948B2EF5
:1048100084E693E00E94870F8CEF93E06AE472E0F5
:104820000E948B2E8CEF93E065E070E04AE050E050
:104830000E94B72F62E370E080E090E00E94FB2CC2
:104840008CEF93E00E94AA29843091050CF462CF8A
:1048500044CF80E090E00E9496060E94CB215ACF80
:104860006F3020F086958695805408958DE0689F7E
:10487000802D11240895A0E0B0E0E1E4F4E20C946E
:104880009930082F0E94D52C2091A2053091A305C4
:104890004091A4055091A5055B016C01A21AB30AD1
:1048A000C40AD50AA60195012938E3E13E07E0E0F4
:1048B0004E07E0E05E0710F01092A1056093A2059C
:1048C0007093A3058093A4059093A5052091E80417
:1048D000822F81508230D8F58091A105882309F478
:1048E000C6C1813011F482E034C2803108F0ACC11D
:1048F000E82FF0E0E751FB4F00838F5F8093A10525
:10490000803109F028C2EBEEF4E0213029F4A181D6
:10491000A695A695808108C080819181A92FA69532
:10492000A695A69596958795A03148F4B0E090E0BD
:10493000AA0FBB1FA35DBC4F11969C938E93109240
:10494000E704329684E0E93FF807F9F604C2233021
:1049500009F07DC18091A105882321F40F3009F071
:10496000FAC185C1883130F4E82FF0E0E851FB4FFF
:104970000083EEC1883109F067C1002309F064C1EA
:104980008091E9042091EA04922F9770959587957C
:1049900090932E0380932D03322F369536953695BE
:1049A0002091EB04422F4295440F407E842F832BAD
:1049B000322F369536953695932F97709595879526
:1049C0009093300380932F0322952695269523708C
:1049D0003091EC04432F440F440F842F822B432F3C
:1049E00042954695469543703091ED04232F2170F2
:1049F000220F220F922F942B959587959093320337
:104A00008093310336952091EE04422F4795442739
:104A10004795842F832B322F3695932F977095953A
:104A200087959093340380933303322F32953F70F0
:104A30002091EF04422F4295407F842F832B322F09
:104A400032953F70932F9770959587959093360385
:104A500080933503221F2227221F3091F004432F19
:104A6000440F842F822B432F441F4427441F30912F
:104A7000F104232F2370220F922F942B9595879565
:104A80009093380380933703369536952091F2043E
:104A9000422F4295440F440F407C842F832B322FAA
:104AA00036953695932F97709595879590933A0301
:104AB000809339032295269527703091F304432F74
:104AC000440F440F440F842F822B932F9295969579
:104AD00097709595879590933C0380933B038091C5
:104AE000F4042091F504922F9770959587959093F3
:104AF0003E0380933D03322F3695369536952091AF
:104B0000F604422F4295440F407E842F832B322F90
:104B1000369536953695932F977095958795909302
:104B2000400380933F03229526952695237030916C
:104B3000F704432F440F440F842F822B432F4295B9
:104B40004695469543703091F804232F2170220F2B
:104B5000220F922F942B95958795909342038093E3
:104B6000410336952091F904422F479544274795F4
:104B7000842F832B322F3695932F97709595879599
:104B80009093440380934303322F32953F702091DA
:104B9000FA04422F4295407F842F832B322F329587
:104BA0003F70932F977095958795909346038093C8
:104BB0004503221F2227221F3091FB04432F440F5D
:104BC000842F822B432F441F4427441F3091FC0421
:104BD000232F2370220F922F942B959587959093D6
:104BE000480380934703369536952091FD04422F64
:104BF0004295440F440F407C842F832B322F3695EF
:104C00003695932F97709595879590934A03809347
:104C100049032295269527703091FE04432F440FB7
:104C2000440F440F842F822B932F92959695977063
:104C30009595879590934C0380934B038091FF0447
:104C400083FD02C01092E7041092A10584C02430B5
:104C500009F081C06091A105662359F4083AB1F4C6
:104C60001092A9051092A80588EA0E941B0781E00E
:104C700070C0613019F40093A60504C0623031F4AD
:104C80000093A705802F0E941B075EC07091A705A7
:104C9000872F90E0880F991F262F30E0AC014E5FE0
:104CA0005F4F421753073CF0633260F72A513B4F86
:104CB000F9010083E7CF03964091A8055091A9051B
:104CC0002817390749F4902F80E08427952790937F
:104CD000A9058093A80538C010E04017510791F549
:104CE0008091A605813071F5713118F080E18093D3
:104CF000A705D090A70549EEE42E44E0F42E00E08D
:104D000010E01CC080E0EC01F701818190E08C2B69
:104D10009D2B33E0969587953A95E1F70E94730AAB
:104D2000F801EE0FFF1FE35DFC4F918380830F5F5F
:104D30001F4FB2E0AB2EB12CEA0CFB1C0D1510F38B
:104D40001092E7041092A1058091A105882319F023
:104D50008F5F8093A105CDB7DEB7EAE00C94B53044
:104D6000A2E0B0E0E6EBF6E20C9499308CE00E9411
:104D7000340B882379F48CEF93E062E572E00E94B3
:104D8000BE2E5E9A409A80E00E941B0C0E94FB0C93
:104D90005E9840988091E804882339F40CC08CEF29
:104DA00093E00E94DA290E943B248CEF93E00E945A
:104DB000AA290097A1F78091A603843009F0A2C028
:104DC0000E94D52C7B018C016093D7047093D8048A
:104DD0008093D9049093DA046115710581059105DA
:104DE00061F481E090E0A0E0B0E08093D70490937C
:104DF000D804A093D904B093DA048091E30490918D
:104E0000E40481609093E4048093E30483E080935E
:104E1000A6038FE70E94120BE0E2AE2EE5E0BE2E65
:104E2000CC24DD2408C00E94250BF50181935F018D
:104E30000894C11CD11C8091F50390E0C816D906D6
:104E400094F320910B0590912005892F822786FFEE
:104E50004CC080E4822780930B057FE3C72EC922D4
:104E600009F443C0DD24D394ED2DF0E0E05EFA4F69
:104E7000A0808CEF93E06A2D0E942C2A82EC94E0B3
:104E80006A2D0E946C10882361F18091BE0490917C
:104E9000BF04A091C004B091C104A8019701281BD0
:104EA000390B4A0B5B0BDA01C901813A36E89307EB
:104EB00031E0A30730E0B307A0F04091DC0420917B
:104EC000CB043091CC048CEF93E060E050E00E9482
:104ED000D30FE092BE04F092BF040093C00410937D
:104EE000C104D394CD1408F0BFCF8091A0058130C8
:104EF00019F482E08093A0058091A005833011F41D
:104F00001092A0050E94D52C7B018C018091DF04BA
:104F10009091E004A091E104B091E2040097A10512
:104F2000B105E1F057016801A81AB90ACA0ADB0AFB
:104F3000D601C501883B2BE0920720E0A20720E0C4
:104F4000B20760F00E94630B8093DC041092DF04D0
:104F50001092E0041092E1041092E2048CEC93E0D1
:104F60000E948D092091D3043091D4044091D5043E
:104F70005091D60457016801A21AB30AC40AD50A8F
:104F8000A616B706C806D90608F4DAC0E092D3041C
:104F9000F092D4040093D5041093D6040E947D06A9
:104FA0008091E7048F5F8093E704A090D704B090CE
:104FB000D804C090D904D090DA04A114B104C1047B
:104FC000D10459F18CEC93E00E948D09EA18FB089A
:104FD0000C091D096E157F0580079107D0F480919B
:104FE000AD0384FD04C080ED97E00E949606809199
:104FF000CB049091CC0401969093CC048093CB0485
:105000001092D7041092D8041092D9041092DA04A6
:1050100004C080E090E00E94960680910B05807CA1
:1050200080930B058CEF93E00E94AA29009709F466
:105030002BC18091A005823009F026C180910B051B
:10504000805880930B058CEC93E00E948209893094
:1050500018F4082F015001C008E010E07E01089408
:10506000E11CF11C101708F01FC18CEF93E00E94A7
:10507000AA29009709F418C11F5F8CEF93E0B701CC
:1050800041E050E00E94F62F212F30E08981F901A4
:10509000E55FFA4F8083205A3A4FF9018083E2CFCF
:1050A00031913D93E817F907D9F7822F895C9091E8
:1050B0000B05892B80930B0500C19091CE04923093
:1050C00041F480910B05816080930B055E9A409AB4
:1050D0000EC05E984098882319F481E08093A00563
:1050E0008091A005833019F484E08093A005F894A2
:1050F0008091F40387706DE273E04CE055E00E940C
:105100000D0A78945D9A419A8091CD040E944D0BCE
:105110008CEC93E00E948209682F8BE095E00E945E
:10512000200FE091CD04EF5FE093CD04E83131F042
:10513000F0E0E453FC4F8785882311F41092CD04EE
:105140008091F403887171F18091A603823051F54A
:105150008091E3049091E404880F991F9093E404F4
:105160008093E30483E08093A6030E94FB0C0E94DB
:10517000D52C6093DF047093E0048093E104909356
:10518000E204611571058105910561F481E090E00B
:10519000A0E0B0E08093DF049093E004A093E104EA
:1051A000B093E2048091F40384FF1FC08091E30474
:1051B0009091E4048E7F0E94C30A182F8091DB0433
:1051C0006091E5040E943024482F8091DC04612F17
:1051D0004A830E943024282F8091DD046091DE04F0
:1051E0004A810091A7030E94D5205D984198809143
:1051F000CE048130D1F0813020F0823009F061C0DE
:1052000037C082E10E94022E009709F05AC081E067
:105210008093CE040E94C72C6093CF047093D00477
:105220008093D1049093D2044CC082E10E94022E5C
:10523000009739F50E94C72C2091CF043091D004FB
:105240004091D1045091D204621B730B840B950BD7
:10525000693EF3E07F07F0E08F07F0E09F0788F1F9
:1052600082E08093CE0480ED97E00E94960629C0EC
:1052700082E10E94022E009721F180E090E00E94DE
:1052800096061092CE041DC08091A005843009F0CE
:1052900014CF20916005E1E6F5E0ACE0B5E0822FA7
:1052A00090E08E0F9F1FFECE812F895C90910B05A1
:1052B000892B80930B051093600583E08093A005F4
:1052C00021CF2296EAE00C94B5308F92AF92CF9224
:1052D000EF92FF920F931F938CEF93E060E045EC09
:1052E00050E024EC30E000EC10E0B1ECEB2EF12CBF
:1052F000CC24C394A8E9AA2EF0E28F2E0E94762A2D
:105300001092C2041092C3041092C4041092C504F7
:105310001092C6041092C8041092C7041092C904D7
:105320001092CA041F910F91FF90EF90CF90AF9011
:105330008F9008950F931F93DC01ED91FC910288EB
:10534000F389E02D20E030E000E010E009951F91A6
:105350000F910895FC01838D882371F00788F08DEB
:10536000E02D2081318182819381281B390B868138
:1053700097812823392302C02FEF3FEFC9010895F9
:10538000FC01838D882391F0018CF28DE02D20812A
:10539000318182819381281B390B2095309586813C
:1053A0009781282339232F5F3F4F02C02FEF3FEF14
:1053B000C9010895FC01838D882351F00788F08D81
:1053C000E02D20813181828193812817390721F4D2
:1053D0002FEF3FEFC901089582819381A085B185A8
:1053E000A80FB91F2C918281938101964681578124
:1053F000842395239383828330E0ECCFFC01838D5B
:10540000882351F00788F08DE02D20813181828141
:1054100093812817390721F42FEF3FEFC901089531
:10542000828193810084F185E02DE80FF91F2081AE
:1054300030E0F4CFFC01A789B08D12968D919C913C
:10544000139711969C938E93018CF28DE02D8081A1
:105450009181938382830895FC01838D8823A9F130
:10546000A18DB28D8D919C911197019616962D91DB
:105470003C91179782239323248D222339F012968F
:105480002D913C91139782179307F9F012962D9165
:105490003C91139782179307C9F32D913C91119773
:1054A00018960D90BC91A02DA20FB31F6C93A18DE7
:1054B000B28D11969C938E93A289B3898C91968913
:1054C000892B8C9321E030E002C020E030E0C9015C
:1054D000089521E030E002C0220F331F8A95E2F7E1
:1054E00080913D06822B80933D0608956F927F92B6
:1054F0008F92AF92CF92EF92FF920F931F93DF9311
:10550000CF93CDB7DEB73C01862FFA01D3011396B6
:105510001C921E92129748EE53E060E070E01496E1
:105520004D935D936D937C93179740E953E01196EB
:105530005C934E931D96FC93EE931C971F963C93A1
:105540002E931E9751961C930E9350975396FC9250
:10555000EE9252975496CC9254975596AC9255979A
:1055600056968C925697482F50E09A01220F331F7F
:1055700073E0440F551F7A95E1F7240F351F275D1F
:10558000394F58963C932E935797482F50E09A01E5
:10559000220F331F93E0440F551F9A95E1F7240F14
:1055A000351F2D5C394F5A963C932E9359970E9484
:1055B000692AC30140E051EE60E070E00E949A2940
:1055C000CF91DF911F910F91FF90EF90CF90AF900F
:1055D0008F907F906F9008950F931F93CF93DF93D9
:1055E000EC011B821A828A819B8199838883E1E086
:1055F00021E030E001C0EF5FA9010E2E02C0440F90
:10560000551F0A94E2F7862F972FF2E081309F070B
:1056100010F080E092E04817590768F301E010E0CD
:1056200002C0000F111FEA95E2F701501040888573
:105630009985009739F02E813F812017310789F035
:105640000E947C311F830E83C80101960E94E230C4
:105650009C019987888781E02115310519F480E044
:1056600001C081E0DF91CF911F910F910895A0E0DB
:10567000B0E0EDE3FBE20C949930EC015A016B01D0
:1056800079018B8D8823D1F02115310539F4EF890B
:10569000F88DE680F7800894E11CF11C01151105D6
:1056A00031F4E98DFA8D068117810F5F1F4FE88174
:1056B000F9810088F189E02DCE0109958F89988DB7
:1056C000E114F10419F4F0E8EF2EF12CB7010E9477
:1056D000EC2A882361F0898D9A8D0115110511F44A
:1056E00000E110E0B8010E94EC2A8823F1F5E8817E
:1056F000F9810088F189E02DCE01099553C0E88930
:10570000F98980E0A81681EEB80680E0C80680E03E
:10571000D80609F443C081E090E00C8802C0880FED
:10572000991F0A94E2F7808360E079E08DE390E0CE
:10573000A60195010E9476302150304040405040F3
:10574000CA01B90122E030E040E050E00E9476302A
:10575000EC85FD853083EE85FF852083EA89FB8912
:1057600080819D89892B80831DC0E98DFA8D1382EC
:1057700012828281938191838083EF89F88D1382D5
:105780001282828193819183808381E08B8F1A14AE
:105790001B041C041D040CF4B2CFE0CF108220E1E6
:1057A00030E0D6CFCDB7DEB7EAE00C94B530CF937A
:1057B000DF93EC011B821A828A819B819983888303
:1057C0001F821E8288859985009721F00E947C3176
:1057D00019861886DF91CF910895CF93DF93EC015E
:1057E000EA89FB8990818E892D89822B8095892376
:1057F00080838F89988D0E94D72B898D9A8D0E94E6
:10580000D72B1B8EDF91CF9108958230E8F4E82FDB
:10581000F0E0EE0FFF1FE25CF94F7183608381308F
:1058200041F0809169008C7F842B80936900E89A15
:10583000089580916900440F551F440F551F837FC1
:10584000842B80936900E99A08951F920F920FB6F6
:105850000F9211242F933F934F935F936F937F93F6
:105860008F939F93AF93BF93EF93FF9380913E06E7
:1058700090913F06009729F0E0913E06F0913F0697
:105880000995FF91EF91BF91AF919F918F917F917A
:105890006F915F914F913F912F910F900FBE0F909D
:1058A0001F9018951F920F920FB60F9211242F93ED
:1058B0003F934F935F936F937F938F939F93AF9398
:1058C000BF93EF93FF93809140069091410600971C
:1058D00029F0E0914006F09141060995FF91EF9182
:1058E000BF91AF919F918F917F916F915F914F91F8
:1058F0003F912F910F900FBE0F901F9018951F9200
:105900000F920FB60F9211242F933F938F939F9373
:10591000AF93BF938091460690914706A0914806A9
:10592000B091490630914A060196A11DB11D232F61
:105930002D5F2D3720F02D570196A11DB11D20930D
:105940004A068093460690934706A0934806B09374
:1059500049068091420690914306A0914406B09179
:1059600045060196A11DB11D809342069093430602
:10597000A0934406B0934506BF91AF919F918F913C
:105980003F912F910F900FBE0F901F9018958FB7DA
:10599000F894209146063091470640914806509170
:1059A00049068FBFB901CA0108959FB7F8942091A5
:1059B000420630914306409144065091450686B513
:1059C000A89B06C08F3F21F02F5F3F4F4F4F5F4F87
:1059D0009FBF542F432F322F2227280F311D411DE7
:1059E000511D82E0220F331F441F551F8A95D1F7A6
:1059F000B901CA010895EF92FF920F931F93CF93BD
:105A0000DF937B018C010E94D52CEB010FC00E941B
:105A1000D52C6C1B7D0B83E0683E780738F008942A
:105A2000E108F10801091109C851DC4FE114F10442
:105A30000105110561F7CDB7DEB7E6E00C94B9308A
:105A4000789484B5826084BD84B5816084BD85B559
:105A5000826085BD85B5816085BDEEE6F0E0808120
:105A600081608083E1E8F0E0108280818260808341
:105A7000808181608083E0E8F0E0808181608083C4
:105A8000E1EBF0E0808184608083E0EBF0E08081F6
:105A900081608083EAE7F0E0808184608083808198
:105AA0008260808380818160808380818068808340
:105AB0001092C1000895833071F0843028F4813051
:105AC000A1F0823021F514C08630B1F08730D1F0DA
:105AD0008430E9F404C0809180008F7703C0809106
