:100000000C945F070C9487070C9487070C94870760
:100010000C9487070C9487070C9487070C94870728
:100020000C9487070C94F1070C9488340C944F338C
:100030000C9487070C9487070C9487070C94870708
:100040000C9419220C9487070C9487070C9487074B
:100050000C9487070C9487070C9487070C94C22C88
:100060000C9487070C94EC110C9431120C948707B4
:100070000C9487070C9487070C9487070C948707C8
:100080000C9487070C9487070C9487070C948707B8
:100090000C9487070C9487070C9487070C948707A8
:1000A0000C9487070C9487070C9487079011A9116B
:1000B000AC11B111B611BB11C011CC11D711AE15D5
:1000C0002316EF15F415F915FE15031608160D166F
:1000D0002316181623161D16E018E718E718E0185F
:1000E000E718E718E718E718E718E718E718E71818
:1000F000E718E718E718E718E7185818E718E71897
:10010000E718E718E718BB17E718E718E718E71824
:10011000E718E718E718E718E718E718E718E718E7
:10012000E718E718E7186418641864186418641866
:100130006418641864186418E718E718E718E718D3
:10014000E718E718C0176318631863186318E718EF
:10015000711879188118891891189918A118A91877
:10016000B318BD18C718D1180718C717E718E7182C
:10017000E718E7185818E718E718E718E718E71816
:10018000E718E718E7186218621862186218E7188B
:10019000711879188118891891189918A118A91837
:1001A000B318BD18C718D1180718C717E718E718EC
:1001B000E718E718581816191619161916191619E6
:1001C00016191619161916191619161916191619B7
:1001D000371A371A371A371A371A371A5F1969193F
:1001E00073197D19DF19E919F8190B1A9C1FB41F2F
:1001F000C01FC91FD81FFE1F06203D2018203D200C
:100200002F20CD2DD02DC32DC72DF12DF12DF12D6A
:10021000D42DD82DDC2DE22DE62DF12DEC2D546FB3
:1002200067676C6564206D6963726F50504D005450
:100230006F67676C656420696E76657274656420AB
:1002400050504D2100546F67676C656420545820EE
:100250006D7574696E672100546F67676C65642003
:1002600074656C656D65747279210050726F746F7E
:10027000636F6C206572726F7220776974682052A8
:10028000580054696D656F7574207768656E2063DA
:100290006F6E6E656374696E6720746F20525800CC
:1002A000507265737320616E79206B657920746F6D
:1002B0002063616E63656C00436F6E6E6563746985
:1002C0006E6720746F2052582C20706F77657220F3
:1002D00075702074686520525820287769746820EA
:1002E00062696E6420706C7567206966206E6F7439
:1002F000207573696E6720616C776179732062691C
:100300006E642900546F67676C65642027696D6DA2
:10031000656469617465206F757470757427005425
:100320006F67676C65642027736C617665206D6FFD
:1003300064652700546F67676C65642027616C777C
:100340006179732062696E642700546F67676C651A
:10035000642050504D206368616E6E656C206C693E
:100360006D697400536574205253534920696E6A55
:10037000656374696F6E206368616E6E656C2028BA
:10038000303D3D64697361626C652900536574207A
:1003900050504D206D696E696D756D2073796E6377
:1003A0000053657420626561636F6E20696E7465C9
:1003B0007276616C0053657420626561636F6E20B4
:1003C00064656C61790053657420626561636F6E6A
:1003D000206672657175656E637920696E20487A52
:1003E0003A20303D64697361626C652C2050783D21
:1003F000504D52206368616E6E656C20782C2046EB
:10040000783D465253206368616E6E656C207800BB
:100410005365742050574D2073746F702064656C61
:1004200061792028302064697361626C65642C20D6
:10043000312D323535203D3D20302E3173202D2099
:1004400035306D696E29005365742050504D20730E
:10045000746F702064656C61792028302064697342
:1004600061626C65642C20312D323535203D3D2094
:10047000302E3173202D2035306D696E2900536583
:1004800074206661696C736166652064656C61796E
:100490002028302064697361626C65642C20312DE2
:1004A000323535203D3D20302E3173202D20353022
:1004B0006D696E29002A2A2A2A2A2A2A2A2A2A2A01
:1004C0002A2A2A2A2A2A2A2A2A2A2A2A2A2A2A2A8C
:1004D0002A2A0052582041636B6564202D207265E2
:1004E00076657274207375636365737366756C21CA
:1004F000002A2A2A2A2A2A2A2A2A2A2A2A2A2A2A86
:100500002A2A2A2A2A2A2A2A2A2A2A2A2A2A002A75
:100510002A2A2A2A2A2A2A2A2A2A2A2A2A2A2A2A3B
:100520002A2A2A2A2A2A2A2A2A2A2A2A0052582009
:1005300041636B6564202D20757064617465207360
:1005400075636365737366756C21002A2A2A2A2AEB
:100550002A2A2A2A2A2A2A2A2A2A2A2A2A2A2A2AFB
:100560002A2A2A2A2A2A2A2A0056616C69642063C8
:10057000686F69636573206172653A205B315D2D38
:100580005B31365D20286368616E6E656C20312DAD
:1005900031362900536574206F7574707574206648
:1005A0006F7220706F727420005B585D2061626F03
:1005B0007274206368616E67657320616E64206584
:1005C00078697420525820636F6E666967005B53C8
:1005D0005D20736176652073657474696E6773203E
:1005E000746F205258005B525D207265766572749C
:1005F0002052582073657474696E677320746F207D
:1006000064656661756C747300557365206E756DF5
:1006100062657273205B312D445D20746F206564C8
:10062000697420706F727473205B452D515D206674
:100630006F722073657474696E677300202D207269
:100640006563656976657220636F6E66696775724A
:1006500061746F722C20727820737720000A0A6F01
:1006600070656E4C52536E6720005365742074653C
:100670006C656D65747279207061636B657420734D
:10068000697A653A20005365742073657269616CFC
:100690002062617564726174653A200056616C690C
:1006A000642063686F696365733A2031202D2034BC
:1006B0002B34202F2032202D2038202F2033202DA6
:1006C00020382B34202F2034202D203132202F2091
:1006D00035202D2031322B34202F2036202D203173
:1006E0003600536574204368616E6E656C20636FDD
:1006F0006E6669673A2000536574204461746172C4
:100700006174652028302D32293A20005365742009
:10071000486F70206368616E6E656C7320286D6130
:10072000782032342C2073657061726174656420A6
:10073000627920636F6D6D6173292076616C6964E5
:100740002076616C75657320312D3235353A200085
:10075000536574206368616E6E656C2073706163AD
:10076000696E6720287831306B487A293A20005327
:10077000657420524620706F7765722028302D37BF
:10078000293A2000536574205246206D61676963E1
:1007900020286865782920652E672E20307844450A
:1007A0004144463030443A200053657420626173FE
:1007B00065206672657175656E63792028696E20A3
:1007C000487A293A20005B5A5D20656E7465722074
:1007D000726563656976657220636F6E66696775B9
:1007E000726174696F6E207574696C79005B465D27
:1007F00020646973706C61792061637475616C2029
:100800006672657175656E6369657320757365647D
:10081000005B525D2063616C63756C61746520726E
:10082000616E646F6D206B657920616E6420686F06
:1008300070206C697374005B495D207265696E6934
:100840007469616C697A652073657474696E677325
:1008500020746F20736B65746368206465666175CE
:100860006C7473005B585D207265766572742063EA
:1008700068616E67657320616E64206578697420B5
:100880006D656E75005B535D2073617665207365E1
:100890007474696E677320746F20454550524F4DD4
:1008A00020616E642065786974206D656E750055F1
:1008B0007365206E756D62657273205B302D395DD6
:1008C00020746F206564697420706172616D657455
:1008D00065727300202D2053797374656D20636FEA
:1008E0006E66696775726174696F6E000A0A6F706F
:1008F000656E4C52536E6720005129204F757470FD
:100900007574206265666F7265206C696E6B202855
:100910003D465329203A2000502920536C617665CA
:10092000206D6F646520286578706572696D656EED
:1009300074616C293A20004F292054696D65642048
:1009400042494E4420617420737461727475702042
:10095000203A20004E292050504D206F757470753C
:1009600074206C696D6974656420202020203A2011
:100970000044495341424C4544004D292050504DBC
:10098000205253534920746F206368616E6E656C0A
:10099000202020203A20004C292050504D206D6905
:1009A0006E696D756D2073796E63202875732920CB
:1009B000203A200044495341424C4544004B2920F1
:1009C0004661696C7361666520626561636F6E2064
:1009D000696E74762E2028312D32353573293A20F0
:1009E000004A29204661696C736166652062656111
:1009F000636F6E2064656C61792028302D32353547
:100A0000203D3E20313073202D203135306D696E10
:100A1000293A20004929204661696C736166652086
:100A2000626561636F6E206672712E203A20004805
:100A3000292050574D2073746F702064656C617964
:100A4000202020202020203A200047292050504DEF
:100A50002073746F702064656C61792020202020E1
:100A600020203A20004629204661696C7361666542
:100A70002064656C6179202020202020203A20000D
:100A800050574D206368616E6E656C200066756E10
:100A90006374696F6E3A20002920706F72742000B1
:100AA000506F776572546F776572004454462055D5
:100AB00048462033322D6269742031306368004F1C
:100AC00070656E4C52536E675258206D696E692086
:100AD000342F36636800466C7974726F6E2F4F72D4
:100AE000616E676552582055484620386368005249
:100AF0005820747970653A200044697361626C65AE
:100B00006400487A00203D3D200043616C63756CB1
:100B100061746564207061636B657420696E7465CF
:100B20007276616C3A200044292054656C656D65CD
:100B3000747279207061636B65742073697A653AA9
:100B400020004229204D6963726F202868616C661D
:100B5000292050504D202020203A00412920496E64
:100B60007665727465642050504D20696E20202097
:100B700020203A003029204D7574652062757A7AFC
:100B8000657220286D6F73746C79293A00392920B9
:100B900053657269616C2062617564726174653A53
:100BA00000736D617274506F7274004672536B798A
:100BB000005472616E73706172656E7420284D61AD
:100BC000766C696E6B290044697361626C656400C0
:100BD00038292054656C656D657472793A2020203F
:100BE00020202020003729204368616E6E656C202C
:100BF000636F6E6669673A2020003629204461746D
:100C000061726174652028302D32293A202020003D
:100C1000352920486F70206368616E6E656C733A89
:100C20002020202020003429204368616E6E656CEE
:100C30002073706163696E673A2020003329205267
:100C40004620706F7765722028302D37293A202092
:100C500020003229205246206D616769633A2020C6
:100C6000202020202020200031292042617365208F
:100C70006672657175656E63793A20202000000008
:100C80000000240027002A002D0030000000000092
:100C9000250028002B002E0031000000000023005A
:100CA000260029002C002F0004040404040304057A
:100CB00002020202040302020202060606060606F9
:100CC00004040202020404080201104080401020C3
:100CD0004080408008020401804020100201108002
:100CE000102040400000000200080E000003040134
:100CF000000B0000000000000000000000000000E9
:100D00000000070605040100080A0B0C0D09080B7A
:100D100000020202010009040000010202000005B5
:100D20002400100105240101010424020605240603
:100D300000010705810310004009040100020A00B8
:100D40000000070502024000000705830240000082
:100D50000403090422034100720064007500690065
:100D60006E006F0020004C0065006F006E00610097
:100D7000720064006F001803410072006400750087
:100D800069006E006F0020004C004C00430012010F
:100D900000020000004041233680000101020001F2
:100DA00012010002020000404123368000010102CE
:100DB000000100C18081C105010902A1010901A151
:100DC0000085010509190129031500250195037501
:100DD0000181029501750581030501093009310979
:100DE000381581257F750895038106C0C005010966
:100DF00006A1018502050719E029E71500250175FF
:100E000001950881029501750881039506750815FD
:100E10000025650507190029658100C00904020045
:100E200001030000000921010100012265000705FE
:100E3000840340000100000000000000002A2B286D
:100E400000000000000000000000000000000000A2
:100E500000000000002C9EB4A0A1A2A434A6A7A567
:100E6000AE362D3738271E1F20212223242526B3F6
:100E700033B62EB7B89F8485868788898A8B8C8DF8
:100E80008E8F909192939495969798999A9B9C9D0A
:100E90002F3130A3AD350405060708090A0B0C0DE8
:100EA0000E0F101112131415161718191A1B1C1DEA
:100EB000AFB1B0B50000222A962F07354D36112468
:100EC0001FBECFEFDAE0DEBFCDBF13E0A0E0B1E0A0
:100ED000E2E4F4E702C005900D92AE3CB107D9F709
:100EE00016E0AEECB3E001C01D92A33FB107E1F7FD
:100EF0001EE0CEEBDEE004C02297FE010E94FE362B
:100F0000C63BD107C9F70E9494310C941F3A0C9448
:100F10000000809100089091010827E78737920729
:100F200009F0A89508958091D003813019F482E0EA
:100F30008093D0038091D003833019F484E08093B0
:100F4000D003089588E08093C1008AE061E00E94A8
:100F5000F22D8AE060E00E94372E0895009721F17B
:100F60009C0140E050E068E478EE81E090E00E946F
:100F7000AA362F3F31054105510509F030F42115FE
:100F800031054105510531F009C02FEF30E040E057
:100F900050E004C021E030E040E050E02093D10078
:100FA0008091C000806103C08091C0008F7E8093DB
:100FB000C0000895219A229A23988BE060E00E9455
:100FC000F22D8CE061E00E94F22D0895EBE6F0E056
:100FD000808180688083E8E6F0E0808181608083A2
:100FE00008951F920F920FB60F9211242F933F93E3
:100FF0004F935F936F937F938F939F93AF93BF9321
:10100000EF93FF931F9902C00E949307FF91EF9106
:10101000BF91AF919F918F917F916F915F914F9110
:101020003F912F910F900FBE0F901F90189581E068
:1010300008950F931F93182F0E941708882389F093
:101040000FB781E080934006F8940E94890788E1F9
:101050008093600010936000112311F00E948907B3
:101060000FBF1F910F910895382F20E08091D20576
:101070009091D3058227932760E041E250E19C01E3
:10108000220F331F97FF04C0C9018427952701C091
:10109000C9016F5F683099F79093D3058093D205AB
:1010A00008950F931F93082F17C05F9A64E670E0AE
:1010B00080E090E00E943E2D5F9864E670E080E062
:1010C00090E00E943E2D1F5F101778F36CE271E0F4
:1010D00080E090E00E943E2D10E0F6CF0F931F932A
:1010E000CF93DF93EC01062F15E0115051F0CE01A4
:1010F0000E94063A081741F0CE01602F0E940E3A76
:10110000F4CF82E00E945108DF91CF911F910F919F
:101110000895A0E0B0E0EFE8F8E00C94C536682E42
:10112000762ECC24DD24C0E0D0E0AA24BB2400E04D
:1011300010E004C0CC24DD2477247394662061F48D
:101140008091D10397E3899FE0011124A9E0AA2EA1
:10115000B12C02ED13E01AC0E62DE13069F4809164
:10116000D103F7E38F9FE00111242B96FAE2AF2E13
:10117000B12C06EF13E00AC0862D823039F4CCED95
:10118000D0E0E1E0AE2EB12C01ED13E02E014C0CCD
:101190005D1C1092D3051092D205E20117C07801B0
:1011A000E80CF91C772031F4CE010E94063AF701D1
:1011B000808305C0CE01F70160810E946E08F801AE
:1011C000E80DF91D80810E9434082196CE01841912
:1011D000882E99248A149B0410F3CE017E01089472
:1011E000E11CF11C7720A1F4CE010E94063A882E62
:1011F000C7010E94063A382C222490E082299329C4
:101200002091D2053091D3052817390759F492CF90
:10121000E7016091D3050E946E08C7016091D20575
:101220000E946E08E0E0F1E0CE0EDF1EF1E0CF1686
:10123000F3E0DF0608F482CF872DCDB7DEB7E2E119
:101240000C94E13686E38093F60380E091EEA0E013
:10125000B0E08093F7039093F803A093F903B09361
:10126000FA038DE180931F0487E08093030480ECF0
:1012700092E9ADEEB9E18093FB039093FC03A09358
:10128000FD03B093FE0385E0809304048DEE9EEF92
:10129000ADEABEED8093FF0390930004A093010498
:1012A000B0930204E5E0F4E080E090E0863028F4BA
:1012B000DC01A057BC4F2C9101C020E02193019686
:1012C0008831910599F782E080931D048AE080932C
:1012D0001E04089582E061E00E948908089582E07A
:1012E00060E00E9489088091D103843020F0109240
:1012F000D1030E946A090895A1E0B0E0E2E8F9E0B4
:101300000C94D53689830E946F099091D10389810D
:10131000981731F0843020F48093D1030E946A0939
:101320002196E2E00C94F13680EC91EDA8E9BBE166
:101330008093D3039093D403A093D503B093D603A3
:101340001092D7031092D8031092D9031092DA03A7
:10135000089580E061E00E94890881E061E00E94D8
:101360008908089580E060E00E948908882331F0B0
:1013700081E060E00E948908882331F40E9494098A
:101380000E9422090E94A9090895A0E0B0E0EBECB8
:10139000F9E00C94CB360E94182D6115710581057A
:1013A0009105C9F30E9495381092FF031092000432
:1013B000109201041092020414E02FEF822E912C5F
:1013C000A12CB12CC090FF03D0900004E090010448
:1013D000F0900204FE2CED2CDC2CCC240E949038E2
:1013E000A50194010E94AA366C0D7D1D8E1D9F1DC6
:1013F0006093FF03709300048093010490930204B0
:10140000115001F7C5E0D4E000E082E3C82ED12CF2
:10141000E12CF12CB0E18B2EB7E29B2E4BC00F5F7D
:1014200019F40E9422094AC00E949038A70196012F
:101430000E94AA366F5FE5E0F4E080E004C091917D
:10144000961769F38F5F8117D0F38091040490E0C1
:10145000889DA001899D500D989D500D1124262F27
:1014600030E0429FC001439F900D529F900D112488
:10147000AA2797FDA095BA2F2091FB033091FC037A
:101480004091FD035091FE03820F931FA41FB51FCF
:101490002091D3033091D4034091D5035091D603CA
:1014A000281739074A075B0708F4B9CF69931F5F0C
:1014B000183121F08881882309F0B1CFCDB7DEB78C
:1014C000ECE00C94E736BC018436910518F480E01A
:1014D00090E022C08E3B910548F46A55704080E050
:1014E00090E02AE030E040E050E014C0823D9105F9
:1014F00048F4645B704080E090E024E630E040E037
:1015000050E008C06D5C704080E090E028E532E07B
:1015100040E050E00E94563624E630E040E050E0E3
:101520000E945636089590E08C599F4F0E94630A9E
:101530000895DC019896EC919897F0E0E770F070D0
:10154000E857FC4F80810895A0E0B0E0EAEAFAE0B5
:101550000C94CD36EC010E94990A4FA150E023E192
:1015600030E0429FF001439FF00D529FF00D112497
:10157000E554FD4FA080B180C280D38090E00F96EB
:101580009C01B901882777FD8095982F20E43FE1E1
:101590004DE750E00E945636A60195010E9488361C
:1015A00079018A0180ED97E0A0E0B0E0E80EF91E35
:1015B0000A1F1B1F88A58871D1F069A570E0615FC3
:1015C0007F4F882777FD8095982F20E43FE14DE7F6
:1015D00050E00E945636A60195010E948836285197
:1015E0003C4F4F4F5F4FE20EF31E041F151FC80103
:1015F000B70169517C4F8F4F9F4F28EE33E040E099
:1016000050E00E948836B901CA0128EE33E040E07C
:1016100050E00E945636CDB7DEB7EAE00C94E936CA
:101620008F3F910559F050F022E08030920740F052
:1016300023E08030920730F482E0089580E008953E
:1016400081E0089583E00895A0E0B0E0EAE2FBE0E5
:101650000C94D036EB018A01B82FB695A0E0288112
:101660003981F80120832A813B8121832C813D81AE
:1016700022832E813F812383688179814A815B8126
:101680002C813D81EE81FF819F2F9295990F990FBB
:10169000907C672F6370962B452F4370440F440F47
:1016A000942B232F23702295207F922BF801948373
:1016B0000B5F1F4F2896AF5FBA1788F680FF25C0D3
:1016C000888199810E94100BD82E2A813B81C90103
:1016D0000E94100BE82E2C813D81C9010E94100B45
:1016E000F82E2E813F81C9010E94100BD294DD0C8F
:1016F000DD0C60ECD622E29450EFE522ED28E82ADA
:10170000FF0CFF0CFE28F801F082CDB7DEB7E7E052
:101710000C94EC369C0183E02032380708F183E01A
:10172000283E380740F42F51334074E03695279512
:101730007A95E1F71AC087E0203D380718F42C5D50
:10174000334013C088E02839380768F4285C3740F4
:1017500064E0369527956A95E1F72D503C4F05C01A
:1017600020E030E002C02FEF33E0C90108959C0172
:101770008C30910540F4F4E0220F331FFA95E1F725
:10178000285D3C4F15C083E0243F380718F42452ED
:101790003C4F0EC084E02030380740F42657334FCA
:1017A000E4E0220F331FEA95E1F702C020E938E0B8
:1017B000C90108959C013695279525753575821BBD
:1017C000930B9C0123733373969587959695879514
:1017D00083739373820F931F9C01A4E03695279522
:1017E000AA95E1F7280F391F2F703F7041E051E0B3
:1017F000249FC001259F900D349F900D1124892FA7
:101800000895882321F0299800002A9A03C0299876
:1018100000002A980000299A00000895299A0000E3
:1018200093B12998000081E093FF80E008950F9321
:101830001F93082F5E9A29985E9818E0802F807871
:101840000E94010C000F1150C9F729981F910F91A8
:1018500008958F770E94170C08950F931F93082FF8
:1018600018E0802F80780E94010C000F1150C9F7FA
:1018700029981F910F9108950F931F93299818E0AD
:1018800080E0082F000F0E940E0C800F1150C9F746
:101890001F910F9108950E94290C0E943C0C5E9AA2
:1018A0000895A1E0B0E0E7E5FCE00C94D53680684F
:1018B00069830E94170C6981862F0E942D0C5E9A05
:1018C0002196E2E00C94F1361F931091FF03182744
:1018D000E6EFF3E0E80FF11D89E767850E94510C00
:1018E0008DE3612F0E94510C82E4612F0E94510C04
:1018F0001F91089586E20E944B0C0895CF93DF93C9
:10190000EC018CE16C810E94510C8DE16D810E9493
:10191000510C8EE16E810E94510C80E26F810E9419
:10192000510C81E268850E94510C82E269850E9417
:10193000510C83E26A850E94510C84E26B850E94FF
:10194000510C85E26C850E94510C8AE26D850E94E3
:10195000510C8EE66E850E94510C8FE66F850E94B9
:10196000510C80E768890E94510C81E769890E94C7
:10197000510C82E76A890E94510CDF91CF91089542
:10198000A1E0B0E0E6ECFCE00C94CF367B018C01EA
:10199000603048E374074CE984074CE1940748F54C
:1019A00020E836E948E950E00E948836B8EECB2EB0
:1019B000BFEFDB2EC20ED31EB90180E090E020E81D
:1019C00039E647E65FEF0E9456366E0D7F1D801F99
:1019D000911FA2E0660F771F881F991FAA95D1F764
:1019E00021E732E040E050E00E948836E32E80E4B8
:1019F00025C020E03DE241E351E00E948836F8EE48
:101A0000CF2EFFEFDF2EC20ED31EB90180E090E093
:101A100020E033ED4EEC5EEF0E9456366E0D7F1DDA
:101A2000801F911F660F771F881F991F21E732E0E3
:101A300040E050E00E948836E32E80E66C2D6F7106
:101A4000680F85E729830E94510C86E76E2D0E945E
:101A5000510C87E72981622F0E94510C2196E8E002
:101A60000C94EB368F929F92AF92BF92CF92DF92FF
:101A7000EF92FF920F931F93982E83E00E944B0CDE
:101A80008093200484E00E944B0C8093210486E024
:101A900060E00E94510C87E061E00E94510C89E0F7
:101AA0006FE70E94510C8AE065E00E94510C8BE0C8
:101AB00065E10E94510C8CE062E10E94510C8DE0C6
:101AC0006DEF0E94510C8EE060E00E94510C992055
:101AD00019F08AE193E00FC080911D0490E043E18A
:101AE00050E0849F9001859F300D949F300D11240C
:101AF000C90185549D4F0E947E0C80E36CE80E94D2
:101B0000510C82E36FE00E94510C83E362E40E9477
:101B1000510C84E36AE00E94510C85E36AE20E9462
:101B2000510C86E36DE20E94510C87E364ED0E9444
:101B3000510C88E360E00E94510C89E360E00E9450
:101B4000510C992049F4A090FF03B0900004C0907C
:101B50000104D090020408C095E7A92E91ECB92E9B
:101B600091ECC92E9EEDD92E8AE3882EED2CFF2410
:101B700000271127882D6E2D0E94510C882D8B5F18
:101B80006E2D0E94510CDC2CCB2CBA2CAA248394F1
:101B9000882D8E3359F783E46FEF0E94510C84E453
:101BA0006FEF0E94510C85E46FEF0E94510C86E4A8
:101BB0006FEF0E94510C992019F08DE666E003C08A
:101BC0008DE6609103040E94510C89E760E00E9459
:101BD000510C8AE7609104040E94510C83E760E095
:101BE0000E94510C84E760E00E94510C992049F456
:101BF0006091FB037091FC038091FD039091FE03C3
:101C000004C060EC72E98DEE99E10E94C00C1F9156
:101C10000F91FF90EF90DF90CF90BF90AF909F908B
:101C20008F90089587E061E00E94510C8EE764E296
:101C30000E94510C88E063E00E94510C88E060E053
:101C40000E94510C87E065E00E94510C85E062E043
:101C50000E94510C83E00E944B0C8093200484E08E
:101C60000E944B0C80932104089583E00E944B0C4A
:101C70008093200484E00E944B0C8093210487E031
:101C800061E00E94510C6AE070E080E090E00E9408
:101C90003E2D0E94120E00000895A2E2B0E0E3E59E
:101CA000FEE00C94C5361E010894211C311C80E115
:101CB000D1011D928A95E9F789EC96E060E071E028
:101CC0000E943F300E94350E1E8A1F8A188E198E80
:101CD00000E01D8A10E088249924540140E4442E39
:101CE00041EE542E4DE9642E48E1742E30E5C32EAA
:101CF00033ECD32EE12CF12C24EF31E040E050E026
:101D00002E8F3F8F48A359A380EC91EDA8E9BBE14A
:101D10008A8F9B8FAC8FBD8F20E431EE4DE958E167
:101D2000298B3A8B4B8B5C8BFAC089EC96E00E9436
:101D3000BC2E843461F0853430F4833261F18C320E
:101D400009F0C0C039C0833509F0BCC0E1C089ECDE
:101D500096E064E40E940F3089EC96E040E451EE96
:101D60006DE978E12AE030E00E94F93089EC96E0F4
:101D70006CE20E940F3089EC96E040EC51ED68E98E
:101D80007BE12AE030E00E94F93089EC96E06CE2D9
:101D90000E945230C4C019821A821B821C821D828A
:101DA0001E821F82188619861A861B861C861D862F
:101DB0001E861F86188A39C01F5F143009F0AFC015
:101DC00069817A818B819C8128EE33E040E050E08C
:101DD0000E945636698B7A8B8B8B9C8B6D817E81B2
:101DE0008F8198850E9456366A8F7B8F8C8F9D8F4E
:101DF00089859A85AB85BC858E8F9F8FA8A3B9A353
:101E00006D857E858F8598890E9456366B017C0191
:101E100090E2C9169EE4D90690E0E90690E0F90642
:101E200030F48CE162E30E94510C10E078C0A0E332
:101E3000CA16A5E7DA06A0E0EA06A0E0FA0618F45A
:101E40008CE162E2F0CFB0E4CB16BCE9DB06B0E097
:101E5000EB06B0E0FB0618F48CE166E2E4CFE0E5C7
:101E6000CE16E3ECDE06E0E0EE06E0E0FE0618F457
:101E70008CE162E1D8CFF0E6CF16FAEEDF06F0E0B3
:101E8000EF06F0E0FF0618F48CE165E1CCCF20E727
:101E9000C21621E1D20621E0E20620E0F20618F4A3
:101EA0008CE161E0C0CF30EAC31636E8D30631E0FA
:101EB000E30630E0F30618F48CE163E0B4CF8CE184
:101EC00065E0B1CF80538AA38A3048F5212E3324B0
:101ED000220C331C220C331C41E050E04C0F5D1FE0
:101EE000240E351ED1016D917D918D919C912AE03A
:101EF00030E040E050E00E945636BAA16B0F711DF1
:101F0000811D911DF101608371838283938307C0DA
:101F100049885A886B887C8888249924540189ECE4
:101F200096E00E94962E009709F0FFCE811491044E
:101F3000A104B10489F4C301B2010E94C00C61E0A4
:101F400070E080E090E00E943E2D1E8A1F8A188E6D
:101F5000198E00E0FFEFFD8B2E8D3F8D48A159A11A
:101F600082169306A406B506D8F40E947A0C2E8930
:101F70003F89488D598D280F311D411D511D2E8BD4
:101F80003F8B488F598F081708F4082F3D89831716
:101F900008F48D8B0894811C911CA11CB11C56C0A7
:101FA000C301B20128EE33E040E050E00E948836E1
:101FB00089EC96E0BA01A9012AE030E00E94A23043
:101FC00089EC96E06CE20E940F3089EC96E0602F7D
:101FD0004AE050E00E94DE3089EC96E06CE20E941C
:101FE0000F306E897F89888D998DA50194010E949B
:101FF000883689EC96E0BA01A9012AE030E00E9417
:10200000A23089EC96E06CE20E940F3089EC96E0F9
:102010006D894AE050E00E94DE3089EC96E06CE287
:102020000E9452304C0C5D1C6E1C7F1C8A8D9B8D57
:10203000AC8DBD8D84159505A605B70520F449889E
:102040005A886B887C8888249924540129893A8984
:102050004B895C89283E83E0380780E0480780E0B0
:10206000580709F05CCFA296E2E10C94E136A1E0BA
:10207000B0E0EDE3F0E10C94D136182F062F8EE39B
:1020800099830E94510C9981612F792F7B0106C0A1
:10209000F70161917F018FE70E94510C8E2D811B0A
:1020A0008017B0F385E064E00E94510C83E00E9449
:1020B0004B0C8093200484E00E944B0C80932104FD
:1020C0000E94182D609322047093230480932404AB
:1020D0009093250487E069E00E94510C81E0809391
:1020E000D0032196E6E00C94ED360E9437108091E3
:1020F000D0038130F1F40E94182D209122043091F8
:1021000023044091240450912504621B730B840B1B
:10211000950B603A26E8720721E0820720E09207DB
:1021200030F307C089EC96E06DE071E00E943F302B
:1021300008958091D0038130A9F308950F931F93E0
:10214000CF93DF938C01C9ECD6E0CE01612F70E014
:102150004AE050E00E94C430CE016EE20E940F308F
:10216000B80154E0769567955A95E1F76F707070F5
:10217000CE014AE050E00E94C430CE016EE20E94DF
:102180000F30B8016F707070CE014AE050E00E94CD
:10219000C430DF91CF911F910F91089589EC96E0A3
:1021A0000E94962E20E830E0281B390B73E036950C
:1021B00027957A95E1F744E650E0249FC001259FDA
:1021C000900D349F900D112464E0969587956A9543
:1021D000E1F70895AF92BF92DF92EF92FF920F93D3
:1021E0001F93DF93CF9300D0CDB7DEB75C018EEFA6
:1021F0008093410689E08093420680915206809345
:1022000043068F5F8093520683E38093440684E401
:102210008093450686EA8093460607E416E03093ED
:10222000480620934706D80113961C921E921297D7
:102230004A8369830E94CE10F80186834A814483D1
:1022400069816583178210868091420657E0D52EFA
:10225000D80EE82EFF24B7016A5F7F4FFB01EF5BCA
:10226000F94F85E18083F801359701E08FEF9FEF0B
:102270001DC031913827232F2295207F232730E05E
:10228000522F4427D90113E0AA0FBB1F1A95E1F77B
:102290004A275B27892F992784279527A4E035951E
:1022A0002795AA95E1F7822793270F5F0D1508F36D
:1022B0006F5B794FDB018C93F701EF5BF94F9783ED
:1022C000D501ED91FC910484F585E02DC5010995BA
:1022D0008131910560F0D501ED91FC910280F3818F
:1022E000E02DC50161E476E041E150E009950F90F1
:1022F0000F90CF91DF911F910F91FF90EF90DF90A2
:10230000BF90AF900895DC011896EC911897F0E01B
:10231000E930F10508F05CC0EA5AFF4F0C94FC3636
:102320006E3F09F055C01C9211961C92119712969F
:102330001C92129713961C92139714961C92149742
:1023400016961C921E92159717961C92179781E06D
:102350002AC06C9382E027C011966C93119783E09A
:1023600022C012966C93129784E01DC013966C9352
:10237000139785E018C014966C93149786E013C0E9
:1023800017968C9117978F5F17968C9317979C9140
:10239000891700F187E007C015966C93159716967C
:1023A0001C92169788E018968C93189711C0362FB8
:1023B00020E015968D919C911697822B932B169663
:1023C0009C938E93159718961C92189781E0089508
:1023D00080E0089580E008951F920F920FB60F924B
:1023E00011242F933F934F938F939F93EF93FF93DA
:1023F0004091CE0080915D0690915E0601962091FD
:102400006306309164068223932320915F06309106
:1024100060068217930781F020915D0630915E0679
:10242000E0916506F0916606E20FF31F40839093FA
:102430005E0680935D0609C08091610690916206F8
:1024400001969093620680936106FF91EF919F91B0
:102450008F914F913F912F910F900FBE0F901F9032
:1024600018951F920F920FB60F9211242F933F933E
:102470008F939F93EF93FF9320917306309174068F
:10248000809171069091720628173907E9F08091C2
:10249000730690917406E0917906F0917A06E80F40
:1024A000F91F80818093CE0080917306909174060D
:1024B000019620917706309178068223932390939A
:1024C00074068093730610C02091710630917206D5
:1024D00080917306909174062817390729F480912A
:1024E000C9008F7D8093C900FF91EF919F918F91DB
:1024F0003F912F910F900FBE0F901F9018951F9333
:10250000182F89EC96E0612F0E94DF2E8091440401
:102510008127809344041F910895A1E0B0E0E3E98E
:10252000F2E10C94D53699830E947F129981892F0C
:102530000E947F122196E2E00C94F136FF920F93F5
:102540001F93CF93DF93F82E8B0110924404C9ECB4
:10255000D6E0CE0165EB0E94DF2ECE0162E60E943E
:10256000DF2E8F2D0E947F12C8010E948D12CDB7E1
:10257000DEB7E5E00C94EE3689EC96E06091440419
:102580000E94DF2E0895882319F069E171E002C0EE
:102590006DE171E089EC96E00E943F300895FF9272
:1025A0000F931F93CF93DF9389EC96E068E67CE06E
:1025B0000E94EA2F4091FB035091FC036091FD03C0
:1025C0007091FE0389EC96E02AE030E00E94B13081
:1025D00089EC96E062E57CE00E94EA2F4091FF03DF
:1025E00050910004609101047091020489EC96E01E
:1025F00020E130E00E94B13089EC96E06CE37CE0B1
:102600000E94EA2F89EC96E0609103044AE050E0D2
:102610000E94E63089EC96E066E27CE00E94EA2FB8
:1026200089EC96E0609104044AE050E00E94E630B4
:1026300089EC96E060E17CE00E94EA2FC5E0D4E0FE
:10264000FF2414C089EC96E060E271E00E940C3037
:10265000219689EC96E0F80160814AE050E00E9402
:10266000DE30F394FF2DF83109F497C08E01888194
:10267000882309F492C0FF2059F3E4CF89EC96E057
:1026800067EC7BE00EC089EC96E061EB7BE009C073
:1026900089EC96E06BEA7BE004C089EC96E061EAA5
:1026A0007BE00E942C3089EC96E06DE87BE00E9494
:1026B000EA2F4091F7035091F8036091F90370916C
:1026C000FA0389EC96E02AE030E00E94B13089EC10
:1026D00096E064E77BE00E94EA2F8091D703807147
:1026E0000E94C31289EC96E06BE57BE00E94EA2F22
:1026F0008091D70380740E94C31289EC96E062E453
:102700007BE00E94EA2F8091D70380720E94C3125F
:1027100089EC96E067E27BE00E94EA2F89EC96E084
:1027200060911F044AE050E00E94E63089EC96E098
:102730006AE07BE00E94EA2F86EF93E00E94A40A01
:10274000AB01BC0189EC96E02AE030E00E94A230A7
:1027500089EC96E065E07BE00E94EA2F86EF93E04B
:102760000E94A40A9B01AC0160E472E48FE090E057
:102770000E94883689EC96E0BA01A9012AE030E08F
:102780000E94A23089EC96E062E07BE00E942C304F
:10279000CDB7DEB7E5E00C94EE3689EC96E00E940A
:1027A000173089EC96E06AEF7BE00E94EA2F89EC13
:1027B00096E060911D044AE050E00E94E63089EC0A
:1027C00096E065EE7BE00E94EA2FE0911E04F0E0C7
:1027D000E770F070EE0FFF1FE858FC4F60817181C9
:1027E00089EC96E00E943F3089EC96E060ED7BE05A
:1027F0000E94EA2F80911E0490E0887190708830CA
:10280000910509F440CF8930910524F4009709F42B
:1028100035CF49CF8031910509F43ACF8831910500
:1028200009F041CF3ACFEF92FF920F931F93882385
:1028300039F489EC96E069EF7AE00E942C302DC0E3
:1028400090E00E94630A24E630E040E050E00E94FD
:102850008836CA01B9012AE030E040E050E00E9429
:1028600088367B018C0189EC96E0BA01A9012AE047
:1028700030E00E94A23089EC96E06EE20E940F30B8
:1028800089EC96E0B801A7012AE030E00E94A2306E
:1028900089EC96E063E70E9452301F910F91FF9000
:1028A000EF900895FF920F931F93CF93DF9389ECDE
:1028B00096E06FEE7AE00E94EA2F8091DB03813090
:1028C00041F489EC96E066ED7AE00E942C30FF241A
:1028D0006EC0823029F489EC96E06FEB7AE0F5CF98
:1028E000843029F489EC96E06BEA7AE0EECF85300B
:1028F00071F789EC96E060EA7AE0E7CFCF2DD0E07F
:10290000C930D1051CF06F2D685C02C06F2D6F5C63
:1029100089EC96E00E940F3089EC96E068E97AE055
:102920000E94EA2FBE016F5F7F4F89EC96E04AE07C
:1029300050E00E942E3189EC96E06DE87AE00E942A
:10294000EA2F8E0105521C4FD8011196EC91119778
:10295000E032F8F489EC96E060E87AE00E94EA2F31
:10296000F8018181803130F089EC96E06AE271E013
:102970000E940C30C552DC4F698170E06F7070703E
:102980006F5F7F4F89EC96E04AE050E00E9438315B
:102990000DC0F0E0EF70F070EE0FFF1FE85AFC4F33
:1029A0006081718189EC96E00E943F30F3948091C0
:1029B000CE04F81608F4A2CF89EC96E065E67AE03A
:1029C0000E94EA2F8091F3030E94131489EC96E091
:1029D0006AE47AE00E94EA2F8091F4030E941314C3
:1029E00089EC96E06FE27AE00E94EA2F8091F5038D
:1029F0000E94131489EC96E064E17AE00E94EA2FC9
:102A00004091EB035091EC036091ED037091EE0364
:102A1000411551056105710539F189EC96E02AE00F
:102A200030E00E94B13089EC96E061EE79E00E94DE
:102A3000EA2F8091EF030E94930AAB01BC0189EC5D
:102A400096E02AE030E00E94B13089EC96E06DEB30
:102A500079E00E94EA2F89EC96E06091F0034AE069
:102A600050E00E94E63006C089EC96E064EB79E025
:102A70000E942C3089EC96E067E979E00E94EA2F09
:102A80006091F1037091F20389EC96E04AE050E026
:102A90000E94CB3089EC96E06AE779E00E94EA2F49
:102AA0006091EA03603150F470E06F5F7F4F89EC12
:102AB00096E04AE050E00E94383106C089EC96E08A
:102AC00061E779E00E942C3089EC96E064E579E0DA
:102AD0000E94EA2F8091E90380FF03C062E271E067
:102AE00002C066E271E089EC96E00E943F3089EC1A
:102AF00096E067E379E00E94EA2F8091E903827013
:102B00000E94C31289EC96E068E179E00E94EA2F06
:102B10008091E90384700E94C31289EC96E069EF0A
:102B200078E00E94EA2F8091E90388700E94C31226
:102B3000CDB7DEB7E5E00C94EE36809145049927D9
:102B400087FD9095A92FB92F01968D30910508F03A
:102B50007AC0815A9F4FFC010C94FC3689EC96E0B8
:102B60006CEE78E00E942C3084E693E00E949E1088
:102B700089EC96E064ED78E00E942C3089EC96E0D8
:102B80006FEA78E00E942C3089EC96E065E878E006
:102B90000E942C3089EC96E064E678E00E942C30AC
:102BA00089EC96E067E378E00E942C3089EC96E0AF
:102BB00061E178E00E942C3089EC96E06DEE77E0E0
:102BC0000E942C3089EC96E066EC77E00E942C3075
:102BD00089EC96E00E9417300E94CF1234C089EC35
:102BE00096E069EA77E02DC089EC96E064E877E04A
:102BF00028C089EC96E06FE677E023C089EC96E088
:102C000060E577E01EC089EC96E06CE077E019C0E3
:102C100089EC96E067EF76E014C089EC96E062EE0E
:102C200076E00E942C3089EC96E06CE976E009C0F1
:102C300089EC96E066E876E004C089EC96E06AE606
:102C400076E00E942C306AE070E080E090E00E9424
:102C50003E2D04C089EC96E00E94BC2E89EC96E0E3
:102C60000E94962E0097B1F708950F931F93CF936C
:102C7000DF93209145042F3FA9F589EC96E06DE59F
:102C800076E00E94EA2F84E693E00E949E1089EC91
:102C900096E06CE376E00E94EA2F8091CF04909159
:102CA000D0040E949E1089EC96E069E076E00E94D4
:102CB0002C3089EC96E066EE75E00E942C3089ECB1
:102CC00096E06EEC75E00E942C3089EC96E069EAA3
:102CD00075E00E942C3089EC96E00E9417300E942B
:102CE000521469C012160CF066C0332727FD3095C8
:102CF0008091CE0490E0821793070CF45CC089ECBD
:102D000096E064E975E00E94EA2F60914504772718
:102D100067FD709589EC96E04AE050E00E943831FA
:102D200089EC96E069E675E00E94EA2F10E008E27F
:102D30003AC0C12FD0E0CC0FDD1FC355DB4F288137
:102D400030E080914504992787FD909501972817D9
:102D5000390741F589EC96E06CE271E00E940C3095
:102D600089EC96E0602F4AE050E00E94DE3089EC6A
:102D700096E060E371E00E940C30E981F0E0EF70D2
:102D8000F070EE0FFF1FE85AFC4F6081718189ECF3
:102D900096E00E940C3089EC96E064E371E00E94BA
:102DA0000C300F5F1F5F8091CD04181710F289EC73
:102DB00096E00E941730DF91CF911F910F910895F7
:102DC000EF92FF921F93CF93DF93C5E0D4E010E022
:102DD0007E0188818823F1F189EC96E066E371E059
:102DE0000E940C3089EC96E0612F4AE050E00E948E
:102DF000DE3089EC96E063E471E00E940C302196AD
:102E0000F701608170E080E090E02091040430E000
:102E100040E050E00E94563620E137E240E050E0CA
:102E20000E945636AB01BC018091FB039091FC03DC
:102E3000A091FD03B091FE03480F591F6A1F7B1F2D
:102E400089EC96E02AE030E00E94B1301F5F183133
:102E500009F0BECFDF91CF911F91FF90EF900895C1
:102E60001092AB0485E6E6E4F4E0DF011D928A955A
:102E7000E9F708951F93182F8F3711F08830E1F587
:102E8000E091AB04EE2309F455C0E150E093AB04AC
:102E9000F0E0EA5BFB4F108289EC96E06DE00E9467
:102EA000DF2E10E00AC0E12FF0E0EA5BFB4F89EC77
:102EB00096E060810E94DF2E1F5F8091AB0418179F
:102EC00090F389EC96E060E20E94DF2E89EC96E0B8
:102ED0006DE00E94DF2E10E00AC0E12FF0E0EA5B17
:102EE000FB4F89EC96E060810E94DF2E1F5F80918E
:102EF000AB04181790F31CC08B3119F40E943017E3
:102F00001FC08D30E9F08A30D9F08091AB0484364F
:102F100088F489EC96E0612F0E94DF2E8091AB044B
:102F2000E82FF0E0EA5BFB4F10838F5F8093AB04E8
:102F300080E007C089EC96E067E00E940F30F8CF90
:102F400081E01F910895ACE1B0E0E9EAF7E10C946B
:102F5000CF36909145049F3F09F040C1282F30E0C3
:102F60002A5030402F36310508F031C124593F4FE7
:102F7000F9010C94FC3689EC96E067E471E0AEC090
:102F800089EC96E067E471E00E943F3019C189EC5A
:102F900096E063E571E00E943F3085E78983DE01BA
:102FA0001296EBEDF3E08BE101900D928150E1F789
:102FB000CE0101966CE10E9475100E94120E83E012
:102FC0008093D00368EC70E080E090E00E943E2D9A
:102FD0008091D003843009F0FAC08FE70E94290C59
:102FE0000E943C0C8983853509F0F1C089EC96E09C
:102FF0006BE475E00E942C3089EC96E06DE275E0A0
:103000000E942C3089EC96E06FE075E0A9C089EC55
:1030100096E06BE671E00E943F3089E68983CE013D
:10302000019661E00E9475100E94120E83E0809369
:10303000D00368EC70E080E090E00E943E2D80912B
:10304000D003843009F0C3C08FE70E94290C0E948E
:103050003C0C89838E010E5F1F4F4DE1E42EF12C55
:10306000EC0EFD1E0E943C0CF80181938F01EE15C1
:10307000FF05C1F7ABEDB3E0FE0132968BE10190A5
:103080000D928150E1F78981893409F0A0C089EC63
:1030900096E061EF74E00E942C3089EC96E063EDDD
:1030A00074E00E942C3089EC96E065EB74E058C027
:1030B00089EC96E065E871E00E943F308EEF8093E6
:1030C000450485C08052875080539091CE04981754
:1030D00008F074C089EC96E064E971E00E943F302A
:1030E00076C084E18093450489EC96E06EE774E055
:1030F00037C085E18093450489EC96E067E474E08D
:103100002FC086E18093450489EC96E060E174E08D
:1031100027C087E18093450489EC96E066EC73E074
:103120001FC088E18093450489EC96E065EB73E06D
:1031300017C089E18093450489EC96E061EA73E069
:103140000FC08AE18093450489EC96E06CE873E057
:1031500007C08BE18093450489EC96E064E673E058
:103160000E942C3034C089EC96E06AE473E00E943F
:103170002C308091E90391E01DC089EC96E064E376
:1031800073E00E942C308091E90392E013C089EC37
:1031900096E06FE173E00E942C308091E90394E0A7
:1031A00009C089EC96E064E073E00E942C308091C5
:1031B000E90398E089278093E9038FEF8093450422
:1031C0000E94351604C089EC96E00E94BC2E89EC62
:1031D00096E00E94962E0097B1F761C10E943A17BF
:1031E000882309F45CC18091AB04882321F48FEF1C
:1031F000809345044CC186E494E060E070E040E0D8
:1032000050E00E949E3800914504202F332727FD6F
:103210003095432F532F215030402B31310508F08A
:1032200026C125523F4FF9010C94FC36112707FDAA
:1032300010952091CE0430E0201731070CF417C10F
:103240009B01AC01215030404040504020323105BC
:103250004105510580F0ADEAB4E0E091CD04CE2EF9
:10326000DD24CC0CDD1CCA0EDB1EFF2428E2E22E7E
:103270000150104020C0F801E552FC4F61506083BE
:10328000DEC02C9130E020173107A1F42E2D30E064
:1032900040E050E0261737074807590751F49801D6
:1032A00025523C4F11964C911197F9014183FF240F
:1032B000F394E3941296AC15BD0519F7BEC06F3FA9
:1032C00071058105910511F008F0D1C06093F303F9
:1032D000B6C06F3F71058105910511F008F0C7C0B8
:1032E0006093F403ACC06F3F71058105910511F047
:1032F00008F0BDC06093F503A2C02091460420628F
:103300002037F9F487E494E060E070E040E050E0BA
:103310000E949E389B01AC012150304040405040FB
:10332000283031054105510508F0B4C024ED30E3E3
:1033300040E050E00E9456366A5E7C4A8A46954ECE
:1033400026C02636F9F487E494E060E070E040E0BF
:1033500050E00E949E389B01AC012150304040401B
:103360005040273031054105510508F093C028EA47
:1033700031E640E050E00E945636645E7C438E4663
:10338000944E05C0611571058105910579F09B0189
:10339000AC012054314E4D4958412138F0EF3F07E0
:1033A000FAEF4F07F2E05F0708F061C06093EB03AC
:1033B0007093EC038093ED039093EE0340C06F3F56
:1033C00071058105910511F008F051C06093EF037C
:1033D00036C09B01AC0121503040404050402F3F4F
:1033E00031054105510508F042C06093F00327C044
:1033F0009B01AC01245C3940404050402D34EDE14C
:103400003E07E0E04E07E0E05E0728F47093F20329
:103410006093F10314C0611571058105910521F4D4
:103420008FEF8093EA030BC061317105810591052F
:10343000F0F461506093EA0302C0FF20C1F0809174
:10344000AC048823D1F48091FF0390910004A091F3
:103450000104B09102040196A11DB11D8093FF03E8
:1034600090930004A0930104B093020406C089EC79
:1034700096E066EA71E00E943F300E9430178FEFBD
:103480008093450489EC96E06AE00E9452300E94E5
:10349000351605C061E070E080E090E078CF6C9672
:1034A000E8E00C94EB36ACE1B0E0E9E5FAE10C942D
:1034B000CD360E94182D6B017C0181E00E94320DF7
:1034C00074E7A72E8E010F5F1F4F63E0B62EA9820F
:1034D000C80161E00E947510B092D0030E94120EE4
:1034E0006AEF70E080E090E00E943E2D8091D00372
:1034F000833009F07EC089EC96E00E94962E0097FA
:1035000009F077C00E94182D6C197D098E099F095A
:10351000603823EC720729EC820721E09207B8F2A9
:1035200068C08FE70E94290C0E943C0C8983843577
:1035300009F058C00E943C0C182F00E01093D004F2
:103540000093CF040E943C0C080F111D1093D0046F
:103550000093CF040E943C0C8093CE040E943C0C4C
:103560008093CD048131F0F5CC2407C00E943C0C3F
:10357000F801E355FB4F8083C3940C2D10E080913C
:10358000CD0490E0880F991F0817190778F380E79A
:103590008983CE01019661E00E94751083E08093DB
:1035A000D0030E94120E62E370E080E090E00E947F
:1035B0003E2D8091D0038330B9F08FE70E94290C13
:1035C0000E943C0C8983803569F40BED13E00E9466
:1035D0003C0CF80181938F01F3E0063F1F07B9F718
:1035E00081E003C083E001C082E06C96EAE00C94C5
:1035F000E9368091D003833009F093CFF5CFAEE365
:10360000B0E0E5E0FBE10C94D1367B018A018B3020
:1036100009F41FC18C3040F5853009F484C0863030
:1036200080F4823009F459C0833020F4813009F0ED
:1036300044C242C0833009F461C0843009F03DC205
:1036400065C0883009F4A0C0893038F4863009F4A8
:1036500089C0873009F031C28FC0893009F49CC01D
:103660008A3009F02AC2CBC0893609F47AC18A3679
:1036700080F4863609F42AC1873620F4853609F0AD
:103680001CC210C1873609F435C1883609F015C24D
:1036900039C18C3609F4BCC18D3638F48A3609F448
:1036A0006BC18B3609F009C2A7C18D3609F4E5C19B
:1036B000873C09F002C2F4C181E06AE270E00E9436
:1036C0009E1206EF13E0F80181918F010E947F1294
:1036D000F4E000321F07B9F7F8C182E06BE170E057
:1036E0000E949E120BED13E0F80181918F010E9460
:1036F0007F12F3E0063F1F07B9F7E7C183E061E0FF
:1037000070E00E949E120E94531ADDC184E061E0C5
:1037100070E00E949E1281E00E947F120E94BC1203
:103720000E944D0ED4C16091CD0470E0660F771FEA
:1037300085E00E949E121DEAE12E14E0F12E00E0C9
:1037400010E007C0F70181917F010E947F120F5F97
:103750001F4F8091CD0490E0880F991F081719071B
:1037600088F3B3C186E062E070E00E949E1284E6B6
:1037700093E00E948D12A9C187E061E070E00E9491
:103780009E128091CE049FC188E061E070E00E94AB
:103790009E128091D10397C186E68983CE0101965E
:1037A00061E00E9475100E94120E83E08093D003A6
:1037B00068EC70E080E090E00E943E2D8091D003A4
:1037C0008430D9F48FE70E94290C0E943C0C898335
:1037D000863469F489E060E270E00E949E1200E2A3
:1037E0000E943C0C0E947F120150D1F76EC189E00B
:1037F00061E070E00E949E12BDC089E05FC18AE076
:1038000069E070E00E949E121092D203209140065F
:103810008091D7039091D803A091D903B091DA0396
:10382000222311F0806801C08F778093D703909393
:10383000D803A093D903B093DA0302ED13E0F801A3
:1038400081918F010E947F12F3E00B3D1F07B9F7B2
:103850003CC18BE061E270E00E949E1280911105F4
:103860008F3F39F080911105982F9F5F909311053C
:1038700002C0809111050E947F1200E010E0F894D0
:10388000F801EE0FFF1FE35DFC4F808191810E94E4
:10389000B70B0E948D1278940F5F1F4F00311105F6
:1038A00071F713C185E661E070E00E949E128AE222
:1038B000E816F10409F006C1D801E6EFF3E08D91B6
:1038C000819384E0E032F807D1F754C086E661E0E6
:1038D00070E00E949E12EBE1EE16F10409F0F2C0D6
:1038E000D801EBEDF3E08D91819383E0E63FF8079B
:1038F000D1F740C087E661E070E00E949E120E940E
:10390000A90938C088E661E070E00E949E1285E750
:103910008E8FDE015F96EBEDF3E08BE101900D926F
:103920008150E1F7CE014E966CE10E9475100E9425
:10393000120E83E08093D00360E273E080E090E0B9
:103940000E943E2D8091D003843009F0BBC08FE7E8
:103950000E94290C0E943C0C8E8F853509F0B2C064
:1039600009C089E661E070E00E949E120E9422096F
:103970000E94940981E0A7C08AE661E070E00E949D
:103980009E1289E68A83CE01029661E00E9475103C
:103990000E94120E83E08093D00360E273E080E027
:1039A00090E00E943E2D8091D003843009F08AC0BF
:1039B0008FE70E94290C0E943C0C8A838E010D5FC8
:1039C0001F4FEEE1EE2EF12CEC0EFD1E0E943C0C82
:1039D000F80181938F01EE15FF05C1F7ABEDB3E060
:1039E000FE0133968BE101900D928150E1F78A81BF
:1039F000893409F067C0BECF8BE661E070E00E94B9
:103A00009E12F80180810E947C090E94B209B2CF07
:103A10008CE661E070E00E949E12F0E2EF16F10485
:103A200071F487E68E8FDE015F96F80180E20190E7
:103A30000D928150E1F7CE014E9661E205C087E418
:103A40008E8FCE014E9661E00E9475100E94120E7C
:103A500083E08093D0036CE474E080E090E00E9407
:103A60003E2D8091D003843069F58FE70E94290CA8
:103A70000E943C0C873431F57DCF8DE661E070E02B
:103A80000E949E1289E0E816F104E1F4D801E2ED0B
:103A9000F3E08D91819383E0EB3DF807D1F76ACF96
:103AA00087EC61E070E00E949E1281E00E947F122C
:103AB0000E94BC12109243040AC08AEC61E070E0DC
:103AC0000E949E1280E00E947F120E94BC12EE961D
:103AD000E6E00C94ED36A0E0B0E0E1E7FDE10C9407
:103AE000CB3654E0C52E46E0D42E35E0E32E04ED6F
:103AF00015E024E6F22E92E0B92E83E0A82EA2C0B3
:103B000089EC96E00E94BC2E80933F0690913E0681
:103B1000933021F1943028F4913099F09230B8F438
:103B200009C0953009F44AC0953020F1963009F06B
:103B300089C061C0853B09F085C081E080933E0665
:103B400081C0823609F07CC0B0923E067BC0809373
:103B50003D0680933C06A0923E0674C080933A06D0
:103B600010923B0690913C06982790933C06C09299
:103B70003E0668C04E01982EE0E0EF0120913A0623
:103B800030913B062C2B3D2B30933B0620933A067D
:103B900090913C06982790933C06E0923E0625368D
:103BA000310508F44FC08CEC61E070E00E949E1279
:103BB00081E00E947F120E94BC1242C02091380610
:103BC00030913906F901EC52FA4F808390913C060E
:103BD000982790933C06C9010196909339068093EB
:103BE000380620913A0630913B068217930750F130
:103BF000D0923E0627C090913C06981759F46091E8
:103C000038067091390680913D0644ED55E00E94DA
:103C1000FF1A0DC08BEC62E070E00E949E12809152
:103C20003D060E947F12809144040E947F12F80199
:103C30008F2C11928A94E9F7109239061092380667
:103C400010923E0689EC96E00E94962E009709F0AD
:103C500057CFCDB7DEB7ECE00C94E73689EC96E0B1
:103C600068EB72E00E942C3089EC96E060EA72E02A
:103C70000E942C3089EC96E00E94962E009731F03D
:103C800089EC96E00E94BC2E0E94A3170E94531A52
:103C9000823019F0833069F405C089EC96E062E85F
:103CA00072E004C089EC96E06BE672E00E942C3072
:103CB00008958FEF809345041092AC040E9435164E
:103CC0000CC089EC96E00E94962E009731F089ECAA
:103CD00096E00E94BC2E0E94A317809145048E3F5F
:103CE00081F708951F93109145041F3F09F0FDC00F
:103CF000893409F46DC08A3440F5883309F47FC0F3
:103D0000893368F4803309F48CC0813308F075C0BE
:103D10008B3109F453C0813209F0E1C043C08134D2
:103D200009F4A0C0823438F4893309F478C08034AF
:103D300009F0D5C037C0843409F4C6C0863409F40C
:103D400059C0823409F0CBC0A0C0843609F4BCC08D
:103D50008536A8F4883591F1893538F4823509F42F
:103D600042C0833509F0BBC022C0813609F47AC055
:103D7000823609F48AC08A3509F0B1C0ABC08237F7
:103D800091F1833730F48636A9F1893609F0A7C05E
:103D90001FC0883799F08A3709F49CC0833709F02F
:103DA0009EC005C089EC96E067E471E019C00E94EE
:103DB000A90989EC96E064EC71E006C00E94B209A2
:103DC00089EC96E06EED71E00E943F308EEF85C089
:103DD0000E9422090E94940989EC96E06DEF71E03F
:103DE0000E943F307CC00E94C50989EC96E066E1E4
:103DF00072E0F6CF0E94E01672C080536EC089EC6C
:103E000096E068E572E00E942C3090911E04892FA4
:103E1000885F8871977E892B80931E0420C089E07B
:103E20005CC089EC96E065E472E00E942C308091E1
:103E3000D7039091D803A091D903B091DA0320E180
:103E400030E040E050E082279327A427B5278093F5
:103E5000D7039093D803A093D903B093DA031093B8
:103E600045043DC089EC96E06FE272E00E942C3080
:103E70008091D7039091D803A091D903B091DA0330
:103E800020E430E040E050E012C089EC96E06EE1C2
:103E900072E00E942C308091D7039091D803A091BA
:103EA000D903B091DA0320E230E040E050E082270D
:103EB0009327A427B5278093D7039093D803A09383
:103EC000D903B093DA0308C08BE0809345040E94C5
:103ED0009D1505C00E942E1E8FEF80934504809192
:103EE00045048E3F09F0EDC0F4C00E943A178823C4
:103EF00009F4EFC08091AB04882321F48FEF809305
:103F00004504DFC086E494E060E070E040E050E00B
:103F10000E949E3820914504332727FD3095432F7A
:103F2000532F215030402B30310508F0A6C02A50C5
:103F30003F4FF9010C94FC369B01AC012154314EEA
:103F40004D4958412F37F0EF3F07FAEF4F07F2E0A6
:103F50005F0708F092C06093FB037093FC038093AB
:103F6000FD039093FE03B0C06093FF0370930004C1
:103F7000809301049093020481E08093AC04A4C078
:103F8000683071058105910508F077C060930304DE
:103F90009BC09B01AC0121503040404050402A3032
:103FA00031054105510508F068C0609304048CC0D8
:103FB00086E494E060E271E00E94D23910E00CC027
:103FC000E12FF0E0EA50FC4F87871F5F80E090E030
:103FD00060E271E00E94D239009769F00E94AC392A
:103FE000009749F0183160F3F1CFE12FF0E0EA508B
:103FF000FC4F17861F5F1831C0F366C0653071052E
:1040000081059105D0F560931D045EC09B01AC0154
:104010002150304040405040263031054105510587
:1040200060F520911E04287F262B20931E044CC08F
:104030009B01AC0121503040404050402030E2EC28
:104040003E07E1E04E07E0E05E07B8F46093F70357
:104050007093F8038093F9039093FA0335C09B01A2
:10406000AC0121503040404050402F3331054105D4
:10407000510518F460931F0427C089EC96E066EAA6
:1040800071E00E943F3013C08091FF0390910004C3
:10409000A0910104B09102040196A11DB11D80936D
:1040A000FF0390930004A0930104B09302040E94C4
:1040B00030178FEF8093450489EC96E06AE00E9408
:1040C00052300E949D1505C08091AC048823E1F216
:1040D000EECF1F91089581E08093430408C089ECDE
:1040E00096E00E94962E009711F00E946B1D809121
:1040F00043048823A1F708951F93182F0E94182DB9
:104100006093E3047093E4048093E5049093E604E1
:104110001093D104112329F040E051EE60E070E0EB
:1041200004C040E855E260E070E086E294E00E945E
:10413000572A1F910895EF92FF920F931F93CF93E9
:10414000DF93F82E092F86E294E06EE70E94E92AB9
:10415000EF2CE7017E01F02EE701FF24F0E2EF2EC5
:104160008E0188818D57823040F486E294E06DE7BD
:104170000E94E92A88818E258883219686E294E030
:10418000F80160810E94E92AF394FF2DF93041F78C
:1041900086E294E06EE70E94E92ACDB7DEB7E6E05A
:1041A0000C94ED36A9E0B0E0E8EDF0E20C94D536E1
:1041B0009091E704992371F49EEF99838A836B832E
:1041C00050E0559547954C832D83198618861F829C
:1041D0001E823DC04091E204842F90E09C01B4E037
:1041E00035952795BA95E1F78F70907028173907A4
:1041F000E9F08DEF89831B82FE01349650E0242F75
:1042000030E0C901A4E095958795AA95E1F72F7054
:10421000307082179307C1F08E529B4FDC018C9156
:104220008193405F5F5F563079F0E9CF8091E7047A
:1042300090E0019666E070E00E9475368093E70496
:104240002996E2E00C94F1364093E2045A83CE01C1
:1042500001960E949B20EACFA0E0B0E0E2E3F1E209
:104260000C94CE366C0186E294E06EE70E94E92A57
:104270008601EE24FF24C0E0D0E030E2B32E0BC074
:1042800028E0E216F10429F4FE01E0958E2FF601F4
:1042900080870F5F1F4FF8016081862F8D57823016
:1042A00040F486E294E06DE70E94E92AF80160811B
:1042B0006B2586E294E00E94E92AE114F10459F0AA
:1042C000F80180819E01280F311DC901C92FDD270A
:1042D000C80FD91FD0700894E11CF11C39E0E31617
:1042E000F10471F6CDB7DEB7E9E00C94EA3686E268
:1042F00094E06EE70E94E92A0895A9E0B0E0E3E8BF
:10430000F1E20C94D436182F362F8091E70490E018
:10431000019664E270E00E9475368093E70458E9E4
:10432000598350E15A83813071F0813028F0823016
:1043300099F08330E1F416C085E08B8381EF8C83A4
:104340002F5F2D8317C08B8381EF8C8384E6489F7A
:10435000A00111245D830EC084E08B8381EF8C83E8
:104360001D8308C08B8381EF8C833D8303C00E9433
:10437000772104C0CE0101960E942C212996E3E00A
:104380000C94F036A1E0B0E0E8ECF1E20C94CD360C
:10439000C82ED62EB42EA02E29830E94182D7B0164
:1043A0008C013091D1048091E3049091E404A091B8
:1043B000E504B091E60429813323D1F0B801A701C7
:1043C000481B590B6A0B7B0BDB01CA01813E5EE285
:1043D000950750E0A50750E0B50738F1422FB21617
:1043E00008F44B2D8C2D6D2D2A2D0E947D2115C09A
:1043F000B801A701481B590B6A0B7B0BDB01CA01F3
:10440000813355E7950750E0A50750E0B50768F000
:104410008C2D6D2D4B2D0E94D220E092E304F09262
:10442000E4040093E5041093E6042196EAE00C947A
:10443000E9361F920F920FB60F9211241F932F93FC
:104440003F934F935F936F937F938F939F93AF931C
:10445000BF93CF93DF93EF93FF93C0918600D091EA
:104460008700809133059091340520911205222315
:1044700009F047C09E01281B390BC9012091D703C1
:1044800025FD02C09695879539E0853C930710F18C
:1044900080914D038630D8F080914D038F3FB9F065
:1044A00040E00FC0842F90E0880F991FFC01ED5E63
:1044B000FA4F20813181835D9C4FFC013183208341
:1044C0004F5F80914D03481768F3109211051092C9
:1044D0004D0317C0F2E08D3B9F0758F120914D032B
:1044E000203138F510914D030E948A0BE12FF0E046
:1044F000EE0FFF1FED5EFA4F918380831F5F1093D5
:104500004D03D0933405C0933305FF91EF91DF91B4
:10451000CF91BF91AF919F918F917F916F915F915B
:104520004F913F912F911F910F900FBE0F901F90B1
:1045300018958FEF80934D03E4CF83E08093800044
:104540008AE9809381008091D70386FD05C0809120
:1045500081008064809381008FEF9FEF90938900AA
:104560008093880080916F00806280936F0008952F
:10457000ABE2B0E0EEEBF2E20C94CA360E940A2DF8
:104580007B018C0181E00E94320D04C089EC96E031
:104590000E94BC2E89EC96E00E94962E0097B1F7FF
:1045A0005F98BB24B394F2E67F2EE2E08E2E912C2E
:1045B0008C0E9D1E6E010894C11CD11C73E0A72EA9
:1045C0000E940A2D6E197F09800B910B21E030E0CB
:1045D000693C71058105910510F420E030E08B2DD8
:1045E00090E082239323009799F10E940A2D7B018A
:1045F0008C01469A80ED97E00E94AE077982D40143
:10460000E6EFF3E08AE201900D928150E1F7C601F6
:104610006BE20E947510469880E090E00E94AE0721
:10462000A092D0030E94120E62E370E080E090E05E
:104630000E943E2D8091D003843051F4A092D0038B
:104640008FE70E94290C0E943C0C823409F4BB24A1
:1046500082E10E946C2E0097B9F4BB24B39414C07D
:104660005F9A469A89EC96E00E94BC2E83329105AF
:1046700021F08234910531F403C00E944D0E02C036
:104680000E946B205F98469889EC96E00E94962ED7
:10469000009709F495CFE4CF7F928F929F92AF92CB
:1046A000BF92CF92DF92EF92FF920F931F9382E11E
:1046B0000E946C2E009709F080C068EC70E080E0EA
:1046C00090E00E943E2D80E090E00E94AE070E94A4
:1046D0000A2D5B016C01A0ECEA2EA2E1FA2E012D5D
:1046E000112DE60EF71E081F191F06C082E10E9459
:1046F0006C2E009709F05FC00E940A2D6E157F0591
:104700008007910798F382E10E946C2E009709F0D0
:1047100052C080ED97E00E94AE070E940A2D7B01F7
:104720008C0188249924939488E496E2A0E0B0E078
:10473000A80EB91ECA1EDB1E7724739424C0AE14C3
:10474000BF04C006D10638F480ED97E00E94AE07A2
:104750008824839418C00E940A2D6E197F09800B4B
:10476000910B693C71058105910568F00E940A2D45
:104770007B018C01972419F080ED97E002C080E066
:1047800090E00E94AE0782E10E946C2E0097B9F281
:1047900080E090E00E94AE07882049F08091D1032C
:1047A0008F5F83700E947C090E94B20906C00E943C
:1047B000C5090E94A9090E94B8221F910F91FF907C
:1047C000EF90DF90CF90BF90AF909F908F907F90B1
:1047D0000895EF92FF920F931F9380E00E941908B3
:1047E0000E94DA0786E061E00E94F22D85E061E038
:1047F0000E94F22D82E160E00E94F22D84E060E0F0
:104800000E94F22D84E061E00E94372E0E94A207F0
:1048100089EC96E060E070E00E94952F0E946F099D
:104820000E94B2090E949D228FEF809311050E9481
:10483000E60778940E940A2D7B018C018091110576
:104840008F3F09F099C00E940A2D6E197F09800BD5
:10485000910B603D27E0720720E0820720E092077D
:1048600068F38AC089EC96E00E94BC2E82349105E0
:10487000B1F489EC96E00E94BC2E8E34910579F457
:1048800089EC96E00E94BC2E8434910541F489ECB9
:1048900096E00E94BC2E8132910509F49DC04091A2
:1048A000F7035091F8036091F9037091FA03DB016B
:1048B000CA010197A109B10984309105A105B1058B
:1048C00068F440931205433029F440EA56E861E069
:1048D00070E004C040E052EC61E070E086E294E0F9
:1048E00020E830E000E410E00E94F42B0E944C230A
:1048F0005F9880E090E00E94AE070E949D2280E0D9
:104900000E94320D8091F7040E94640C0E94120EE6
:104910001092CA0510E015C062E370E080E090E0FC
:104920000E943E2D80ED97E00E94AE0762E370E0AA
:1049300080E090E00E943E2D80E090E00E94AE0773
:104940001F5F8091D103811738F780911E0490E09A
:1049500084FF0AC09C012871307081E02831310544
:1049600009F080E00E947C208FE00E9419081F91CE
:104970000F91FF90EF90089580ED97E00E94AE07B1
:1049800082E161E00E94372E5F9A89EC96E063E352
:1049900072E00E940C3084E693E00E949E1089EC45
:1049A00096E06AE472E00E940C3089EC96E066E0E2
:1049B00070E04AE050E00E94383162E370E080E04D
:1049C00090E00E943E2D89EC96E00E94962E843065
:1049D00091050CF464CF46CF80E090E00E94AE07D2
:1049E0000E94B8225CCF6F3020F086958695805467
:1049F00008958DE0689F802D11240895A0E0B0E017
:104A0000E4E0F5E20C94CD36082F0E94182D209199
:104A1000CC053091CD054091CE055091CF055B017D
:104A20006C01A21AB30AC40AD50AA6019501293855
:104A3000E3E13E07E0E04E07E0E05E0710F0109291
:104A4000CB056093CC057093CD058093CE059093F4
:104A5000CF0520911205822F81508230D8F58091A8
:104A6000CB05882309F4C6C1813011F482E034C239
:104A7000803108F0ACC1E82FF0E0ED5EFA4F008322
:104A80008F5F8093CB05803109F028C2E5E1F5E026
:104A9000213029F4A181A695A695808108C0808146
:104AA0009181A92FA695A695A69596958795A03153
:104AB00048F4B0E090E0AA0FBB1FA35DBC4F119675
:104AC0009C938E9310921105329685E0E332F8079D
:104AD000F9F604C2233009F07DC18091CB0588230B
:104AE00021F40F3009F0FAC185C1883130F4E82F84
:104AF000F0E0EE5EFA4F0083EEC1883109F067C145
:104B0000002309F064C18091130520911405922FB0
:104B100097709595879590932E0380932D03322F50
:104B200036953695369520911505422F4295440FBE
:104B3000407E842F832B322F369536953695932FD2
:104B40009770959587959093300380932F032295C6
:104B500026952695237030911605432F440F440F58
:104B6000842F822B432F4295469546954370309172
:104B70001705232F2170220F220F922F942B95952A
:104B800087959093320380933103369520911805D1
:104B9000422F479544274795842F832B322F3695F4
:104BA000932F977095958795909334038093330353
:104BB000322F32953F7020911905422F4295407F48
:104BC000842F832B322F32953F70932F97709595BA
:104BD00087959093360380933503221F2227221F47
:104BE00030911A05432F440F842F822B432F441FEB
:104BF0004427441F30911B05232F2370220F922F2F
:104C0000942B959587959093380380933703369529
:104C1000369520911C05422F4295440F440F407C4D
:104C2000842F832B322F36953695932F9770959539
:104C3000879590933A0380933903229526952770A0
:104C400030911D05432F440F440F440F842F822BB6
:104C5000932F9295969597709595879590933C0391
:104C600080933B0380911E0520911F05922F977022
:104C70009595879590933E0380933D03322F36950B
:104C80003695369520912005422F4295440F407E5F
:104C9000842F832B322F369536953695932F977028
:104CA000959587959093400380933F032295269591
:104CB0002695237030912105432F440F440F842FF4
:104CC000822B432F4295469546954370309122059D
:104CD000232F2170220F220F922F942B95958795C9
:104CE0009093420380934103369520912305422FF0
:104CF000479544274795842F832B322F3695932F42
:104D00009770959587959093440380934303322F32
:104D100032953F7020912405422F4295407F842F89
:104D2000832B322F32953F70932F977095958795EF
:104D30009093460380934503221F2227221F309120
:104D40002505432F440F842F822B432F441F4427D4
:104D5000441F30912605232F2370220F922F942B6E
:104D6000959587959093480380934703369536959C
:104D700020912705422F4295440F440F407C842FF9
:104D8000832B322F36953695932F9770959587956F
:104D900090934A038093490322952695277030917A
:104DA0002805432F440F440F440F842F822B932F49
:104DB0009295969597709595879590934C038093CF
:104DC0004B038091290583FD02C0109211051092BA
:104DD000CB0584C0243009F081C06091CB056623E7
:104DE00059F4083AB1F41092D3051092D20588EA2A
:104DF0000E94340881E070C0613019F40093D0053E
:104E000004C0623031F40093D105802F0E94340831
:104E10005EC07091D105872F90E0880F991F262FD3
:104E200030E0AC014E5F5F4F421753073CF06332F6
:104E300060F7205F3A4FF9010083E7CF0396409176
:104E4000D2055091D3052817390749F4902F80E0F7
:104E5000842795279093D3058093D20538C010E01E
:104E60004017510791F58091D005813071F571316E
:104E700018F080E18093D105D090D10543E1E42E74
:104E800045E0F42E00E010E01CC080E0EC01F701EA
:104E9000818190E08C2B9D2B33E0969587953A95F8
:104EA000E1F70E948A0BF801EE0FFF1FE35DFC4F54
:104EB000918380830F5F1F4FB2E0AB2EB12CEA0CC1
:104EC000FB1C0D1510F3109211051092CB0580916B
:104ED000CB05882319F08F5F8093CB05CDB7DEB764
:104EE000EAE00C94E936A2E0B0E0E9E7F7E20C94DE
:104EF000CD368CE00E944B0C882369F489EC96E057
:104F000062E572E00E943F305F9A80E00E94320DBD
:104F10000E94120E5F9880911205882339F40CC00C
:104F200089EC96E00E94BC2E0E94FE2489EC96E05B
:104F30000E94962E0097A1F78091D003843009F04B
:104F4000A2C00E94182D7B018C0160930105709313
:104F50000205809303059093040561157105810591
:104F6000910561F481E090E0A0E0B0E0809301055C
:104F700090930205A0930305B093040580910D055D
:104F800090910E05816090930E0580930D0583E04E
:104F90008093D0038FE70E94290CEAE4AE2EE5E06F
:104FA000BE2ECC24DD2408C00E943C0CF501819368
:104FB0005F010894C11CD11C80911F0490E0C816A9
:104FC000D90694F32091350590914A05892F8227BF
:104FD00086FF4CC080E48227809335057FE3C72E8F
:104FE000C92209F443C0DD24D394ED2DF0E0E65B43
:104FF000FA4FA08086E294E06A2D0E94E92A8CEEA6
:1050000094E06A2D0E948311882361F18091E80465
:105010009091E904A091EA04B091EB04A8019701F2
:10502000281B390B4A0B5B0BDA01C901813A36E8C0
:10503000930731E0A30730E0B307A0F040910605E5
:105040002091F5043091F60486E294E060E050E0AF
:105050000E94EA10E092E804F092E9040093EA0466
:105060001093EB04D394CD1408F0BFCF8091CA0500
:10507000813019F482E08093CA058091CA0583309B
:1050800011F41092CA050E94182D7B018C018091A9
:10509000090590910A05A0910B05B0910C050097A8
:1050A000A105B105E1F057016801A81AB90ACA0AB9
:1050B000DB0AD601C501883B2BE0920720E0A2075E
:1050C00020E0B20760F00E947A0C809306051092EF
:1050D000090510920A0510920B0510920C0586EF37
:1050E00093E00E94A40A2091FD043091FE044091B7
:1050F000FF045091000557016801A21AB30AC40ABF
:10510000D50AA616B706C806D90608F4D7C0E09295
:10511000FD04F092FE040093FF04109300050E942A
:105120008907809111058F5F80931105A09001057B
:10513000B0900205C0900305D0900405A114B104FD
:10514000C104D10459F186EF93E00E94A40AEA1841
:10515000FB080C091D096E157F0580079107D0F427
:105160008091D70384FD04C080ED97E00E94AE07D4
:105170008091F5049091F60401969093F604809343
:10518000F504109201051092020510920305109289
:10519000040504C080E090E00E94AE0780913505D0
:1051A000807C8093350586E294E00E94672A009710
:1051B00009F427C18091CA05823009F022C180918B
:1051C000350580588093350586EF93E00E94990A53
:1051D000893018F4082F015001C008E010E07E016A
:1051E0000894E11CF11C101708F01BC186E294E042
:1051F0000E94672A009709F414C11F5F86E294E0B9
:10520000B70141E050E00E947731212F30E08981E1
:10521000F901EB5CFA4F808326573A4FF9018083FE
:10522000E2CF31913D93E817F907D9F7822F895CD6
:1052300090913505892B80933505FCC09091F80439
:10524000923039F4809135058160809335055F9AFD
:105250000DC05F98882319F481E08093CA0580917E
:10526000CA05833019F484E08093CA05F8948091CC
:105270001E0487706DE273E046E355E00E94240B44
:105280007894469A8091F7040E94640C86EF93E02C
:105290000E94990A682F85E395E00E943710E091FB
:1052A000F704EF5FE093F704E83131F0F0E0EA5003
:1052B000FC4F8785882311F41092F70480911E0417
:1052C000887171F18091D003823051F580910D0584
:1052D00090910E05880F991F90930E0580930D05F0
:1052E00083E08093D0030E94120E0E94182D6093D9
:1052F000090570930A0580930B0590930C056115C1
:1053000071058105910561F481E090E0A0E0B0E0D5
:105310008093090590930A05A0930B05B0930C05A3
:1053200080911E0484FF1FC080910D0590910E0591
:105330008E7F0E94DA0B182F8091050560910F0572
:105340000E94F324482F80910605612F4A830E9412
:10535000F324282F80910705609108054A81009168
:10536000D1030E94C22146988091F8048130D1F087
:10537000813020F0823009F061C037C082E10E94A4
:105380006C2E009709F05AC081E08093F8040E94C7
:105390000A2D6093F9047093FA048093FB049093B0
:1053A000FC044CC082E10E946C2E009739F50E94EB
:1053B0000A2D2091F9043091FA044091FB04509198
:1053C000FC04621B730B840B950B693EF3E07F07B3
:1053D000F0E08F07F0E09F0788F182E08093F80407
:1053E00080ED97E00E94AE0729C082E10E946C2EFA
:1053F000009721F180E090E00E94AE071092F8043F
:105400001DC08091CA05843009F018CF20918A050B
:10541000EBE8F5E0A6E3B5E0822F90E08E0F9F1F4A
:1054200002CF812F895C90913505892B80933505BA
:1054300010938A0583E08093CA0523CF2296EAE081
:105440000C94E9368F92AF92CF92EF92FF920F9326
:105450001F9386E294E061E04DEC50E02CEC30E0EC
:1054600008EC10E0B9ECEB2EF12CCC24C394A8E9A5
:10547000AA2EF0E28F2E0E94332B1092EC04109291
:10548000ED041092EE041092EF041092F0041092CA
:10549000F2041092F1041092F3041092F4041F919C
:1054A0000F91FF90EF90CF90AF908F9008950F9352
:1054B0001F93DC01ED91FC910288F389E02D20E03F
:1054C00030E000E010E009951F910F910895FC0174
:1054D000838D882371F00788F08DE02D2081318144
:1054E00082819381281B390B868197812823392358
:1054F00002C02FEF3FEFC9010895FC01838D88237F
:1055000091F0018CF28DE02D208131818281938197
:10551000281B390B209530958681978128233923C4
:105520002F5F3F4F02C02FEF3FEFC9010895FC01ED
:10553000838D882351F00788F08DE02D2081318103
:10554000828193812817390721F42FEF3FEFC9019A
:10555000089582819381A085B185A80FB91F2C91F0
:105560008281938101964681578184239523938379
:10557000828330E0ECCFFC01838D882351F00788D3
:10558000F08DE02D208131818281938128173907A8
:1055900021F42FEF3FEFC9010895828193810084A8
:1055A000F185E02DE80FF91F208130E0F4CFFC01F8
:1055B000A789B08D12968D919C91139711969C930B
:1055C0008E93018CF28DE02D808191819383828373
:1055D0000895FC01838D8823A9F1A18DB28D8D9151
:1055E0009C911197019616962D913C9117978223C5
:1055F0009323248D222339F012962D913C911397F9
:1056000082179307F9F012962D913C911397821708
:105610009307C9F32D913C91119718960D90BC9169
:10562000A02DA20FB31F6C93A18DB28D11969C93E8
:105630008E93A289B3898C919689892B8C9321E0D2
:1056400030E002C020E030E0C901089521E030E000
:1056500002C0220F331F8A95E2F780917B06822BCE
:1056600080937B0608956F927F928F92AF92CF9234
:10567000EF92FF920F931F93DF93CF93CDB7DEB7D7
:105680003C01862FFA01D30113961C921E921297A9
:1056900048EE53E060E070E014964D935D936D9397
:1056A0007C9317974AE953E011965C934E931D96AD
:1056B000FC93EE931C971F963C932E931E97519646
:1056C0001C930E9350975396FC92EE9252975496D9
:1056D000CC9254975596AC92559756968C92569775
:1056E000482F50E09A01220F331F73E0440F551FDB
:1056F0007A95E1F7240F351F2D5A394F58963C9370
:105700002E935797482F50E09A01220F331F93E0B2
:10571000440F551F9A95E1F7240F351F2959394F2A
:105720005A963C932E9359970E94262BC30140E032
:1057300051EE60E070E00E94572ACF91DF911F91F7
:105740000F91FF90EF90CF90AF908F907F906F90E0
:1057500008950F931F93CF93DF93EC011B821A825E
:105760008A819B8199838883E1E021E030E001C058
:10577000EF5FA9010E2E02C0440F551F0A94E2F7F5
:10578000862F972FF2E081309F0710F080E092E0A3
:105790004817590768F301E010E002C0000F111F1D
:1057A000EA95E2F70150104088859985009739F015
:1057B0002E813F812017310789F00E94B0371F8367
:1057C0000E83C80101960E9416379C01998788872D
:1057D00081E02115310519F480E001C081E0DF91FD
:1057E000CF911F910F910895A0E0B0E0EAEFFBE2A6
:1057F0000C94CD36EC015A016B0179018B8D882315
:10580000D1F02115310539F4EF89F88DE680F78064
:105810000894E11CF11C0115110531F4E98DFA8D94
:10582000068117810F5F1F4FE881F9810088F18998
:10583000E02DCE0109958F89988DE114F10419F4BA
:10584000F0E8EF2EF12CB7010E94A92B882361F01C
:10585000898D9A8D0115110511F400E110E0B80150
:105860000E94A92B8823F1F5E881F9810088F1894C
:10587000E02DCE01099553C0E889F98980E0A8168A
:1058800081EEB80680E0C80680E0D80609F443C07F
:1058900081E090E00C8802C0880F991F0A94E2F71B
:1058A000808360E079E08DE390E0A60195010E949D
:1058B000AA362150304040405040CA01B90122E090
:1058C00030E040E050E00E94AA36EC85FD85308350
:1058D000EE85FF852083EA89FB8980819D89892B5C
:1058E00080831DC0E98DFA8D13821282828193819B
:1058F00091838083EF89F88D138212828281938154
:105900009183808381E08B8F1A141B041C041D0477
:105910000CF4B2CFE0CF108220E130E0D6CFCDB78B
:10592000DEB7EAE00C94E936CF93DF93EC011B82FB
:105930001A828A819B81998388831F821E8288852F
:105940009985009721F00E94B03719861886DF915B
:10595000CF910895CF93DF93EC01EA89FB89908181
:105960008E892D89822B8095892380838F89988DBC
:105970000E94942C898D9A8D0E94942C1B8EDF910D
:10598000CF9108951F920F920FB60F9211242F936B
:105990003F938F939F93AF93BF9380918006909195
:1059A0008106A0918206B09183063091840601960B
:1059B000A11DB11D232F2D5F2D3720F02D570196EE
:1059C000A11DB11D209384068093800690938106CB
:1059D000A0938206B093830680917C0690917D0609
:1059E000A0917E06B0917F060196A11DB11D809306
:1059F0007C0690937D06A0937E06B0937F06BF91B0
:105A0000AF919F918F913F912F910F900FBE0F906B
:105A10001F9018958FB7F8942091800630918106D9
:105A200040918206509183068FBFB901CA01089543
:105A30009FB7F89420917C0630917D0640917E06B8
:105A400050917F0686B5A89B06C08F3F21F02F5F3F
:105A50003F4F4F4F5F4F9FBF542F432F322F22276F
:105A6000280F311D411D511D82E0220F331F441F9D
:105A7000551F8A95D1F7B901CA010895EF92FF9297
:105A80000F931F93CF93DF937B018C010E94182DFE
:105A9000EB010FC00E94182D6C1B7D0B83E0683E4C
:105AA000780738F00894E108F10801091109C85194
:105AB000DC4FE114F1040105110561F7CDB7DEB744
:105AC000E6E00C94ED36789484B5826084BD84B5AC
:105AD000816084BD85B5826085BD85B5816085BDE9
